:100000000C941D020C9445020C9445020C9445027C
:100010000C9445020C9445020C9445020C94450244
:100020000C9445020C9445020C943B100C94AA10BD
:100030000C9445020C9445020C9445020C94450224
:100040000C9445020C9445020C9445020C94450214
:100050000C9445020C9445020C9445020C94F10F4B
:100060000C9445020C9445020C9445020C944502F4
:100070000C9445020C9445020C9445020C944502E4
:100080000C9445020C9445020C9445020C944502D4
:100090000C9445020C9445020C9445020C944502C4
:1000A0000C9445020C9445020C94450207634236B9
:1000B000B79BD8A71A39685618AEBAAB558C1D3CF9
:1000C000B7CC5763BD6DEDFD753EF6177231BF00BD
:1000D0000000803F05A84CCDB2D44EB93836A902F5
:1000E0000C50B9918688083CA6AAAA2ABE00000036
:1000F000803F080B00020202000009040000010218
:10010000020000052400100105240101010424025D
:1001100006052406000107058103100040090401BB
:1001200000020A00000007050202400000070583E4
:10013000024000000403090412010002EF02014022
:100140004123368000010102030141726475696E2A
:100150006F204C4C430053747265616D204465738D
:100160006B2050726F0000000000250028002B005B
:100170002E00310000000000240027002A002D007E
:100180003000000000002300260029002C002F0072
:10019000040404040403040502020202040302022C
:1001A000020206060606060604040202020404040D
:1001B0000802011040804010204080408008020466
:1001C00001804020100201108010204040200000DB
:1001D000000200090F0000030401000C00000000F1
:1001E00000000000000000000000000000AB00550F
:1001F000007C0084004B00B5001B00E5000017E800
:10020000000047B8000077AB0000ABAB000055AB77
:10021000000022DD000E00F2003E00C20071008FDF
:1002200000A1005F00D0002F00F90700000064006B
:1002300000006400002F6B55000064000000800087
:1002400000228B2200238E6B0000800000578B2E33
:1002500000AACD660032CD320032CD9A0090EE90E9
:100260000000FC7C00AACD6600228B2200FF00006B
:10027000008B0000008B0000008B0000008B000052
:10028000008B0000008B0000008B000000FF0000CE
:10029000008B000000EBCE8700EBCE8700E6D8ADE8
:1002A00000FFFFFF00E6D8AD00EBCE8700000000A6
:1002B0000000008000000000000000800000008BB3
:1002C0000000008B000000800000008B0000008B0D
:1002D0000000008B000000FF0000A5FF00FFFFFFF3
:1002E0000000A5FF000000FF0000008B00000000E0
:1002F000000000330000006600000099000000CC00
:10030000000000FF000033FF000066FF000099FFBF
:100310000000CCFF0000FFFF0033FFFF0066FFFF7F
:100320000099FFFF00CCFFFF00FFFFFF00701919CD
:10033000008B00000070191900800000008B000085
:1003400000CD000000578B2E0080800000A09E5F33
:1003500000FF0000008B8B0000ED956400D4FF7F50
:1003600000578B2E00FFFF0000FACE870055505F2C
:1003700000444F574E5F00434F554E543A0041558D
:1003800054485F4F4B3A0000000000000000002A74
:100390002B2800000000000000000000000000000A
:1003A000000000000000002C9EB4A0A1A2A434A66E
:1003B000A7A5AE362D3738271E1F2021222324253E
:1003C00026B333B62EB7B89F8485868788898A8BF3
:1003D0008C8D8E8F909192939495969798999A9BE5
:1003E0009C9D2F3130A3AD350405060708090A0B83
:1003F0000C0D0E0F101112131415161718191A1BC5
:100400001C1DAFB1B0B50005010906A101850205AB
:100410000719E029E7150025017501950881029566
:1004200001750881039506750815002573050719E0
:100430000029738100C03413021E11241FBECFEFA8
:10044000DAE0DEBFCDBF12E0A0E0B1E0EAE6F9E419
:1004500002C005900D92A63CB107D9F724E0A6ECA6
:10046000B2E001C01D92A83AB207E1F712E0CCE178
:10047000D2E004C02197FE010E945422CB31D10763
:10048000C9F70E94EE130C94A8240C940000E8EC29
:10049000F3E09081989F090E90E0911D90839181E7
:1004A000989F090E90E0911D91839281989F090E6B
:1004B00090E0911D92831124339693E0E03EF9077A
:1004C00041F70895CF93DF93FC01818190916D04F2
:1004D000482F490F5527551F483051059CF5A281DB
:1004E000B381109709F529E634E033832283208114
:1004F00020936B0480936C0480916E04820F808340
:1005000020916F04A22FB09170048A2F821B89174B
:10051000E8F481813D91C82FD0E0CD5EDE4F388375
:100520008F5F8183F2CFD90118962D913C91199755
:1005300021153105C1F729E634E019963C932E9335
:100540001897D5CF80E0DF91CF91089581E0FBCF60
:10055000FC018091C703882311F13FB7F89482E032
:100560008093E9002091F200822F90E0181619067E
:1005700014F481E090E0882339F0289844E6409311
:10058000C6034091F1004083222339F02091F2000C
:10059000211103C02BE62093E8003FBF08958FEFA1
:1005A0009FEF08953FB7F8948091C2039091C303E1
:1005B000A091C403B091C50326B5A89B05C02F3FE9
:1005C00019F00196A11DB11D3FBFBA2FA92F982F79
:1005D0008827BC01CD01620F711D811D911D42E074
:1005E000660F771F881F991F4A95D1F708958F923C
:1005F0009F92AF92BF92CF92DF92EF92FF924B0108
:100600005C010E94D2026B017C010E94D2026C1933
:100610007D098E099F09683E734081059105A8F305
:1006200021E0821A9108A108B10888EEC80E83E083
:10063000D81EE11CF11C81149104A104B10429F716
:10064000FF90EF90DF90CF90BF90AF909F908F90F2
:1006500008952FB7F8946091BE037091BF03809105
:10066000C0039091C1032FBF0895CF92DF92EF9204
:10067000FF92CF93C82F0E9429036B017C0120E0D9
:100680003C2FA8E1B1E00E94CC1F9B01AC01C70147
:10069000B6010E943022AC0166277727CA0133E0F9
:1006A000969587953A95E1F797709A0122273074CD
:1006B000232B31F02FEF37E0F901E81BF90BCF01C5
:1006C000E92FEE0FEE0FF0E0EC59FE4F2081318163
:1006D00086959281899F200D311D112457FF03C0FB
:1006E000319521953109305847E050E0249FB00101
:1006F000359FC001E0E0349F700D811D9E1F259F36
:10070000700D811D9E1F1124620F731F8E1F9E1F6F
:10071000CF91FF90EF90DF90CF900895AF92BF926E
:10072000CF92DF92EF92FF920F931F93CF93DF93BD
:10073000D82E80915F0490916004A0916104B091E3
:100740006204892B8A2B8B2BD9F00E94D202009154
:1007500008041091090420910A0430910B04601BD5
:10076000710B820B930B00915F0410916004209138
:100770006104309162046017710782079307C8F221
:100780000E94D202609308047093090480930A04C3
:1007900090930B04E0916704F0916804309759F04E
:1007A0004091630450916404609165047091660403
:1007B0008D2D0995D82EC0910604D091070486EEA0
:1007C000E82E83E0F82E8701209749F184E0063077
:1007D000180729F18D858823F1F0E881F981A28439
:1007E000B3840680F781E02DCE010995BC01CE01CE
:1007F000F5010995F8019183808380915D049091C2
:100800005E048436910508F41C860C80DD81C02DC1
:100810000E5F1F4FD9CFF80111821082EECFC09129
:100820000604D091070400E110E02097A9F08D851F
:10083000882361F04E855F856A817B81E881F9813B
:100840000280F381E02D2D2DCE0109950C80DD81F4
:10085000C02D0150110949F7C0910604D091070439
:100860002097C9F0F6E0EF16F4E0FF06A1F08D85C1
:10087000882351F0F70160817181E881F981048456
:10088000F585E02DCE0109950C80DD81C02DF2E0CB
:10089000EF0EF11CE5CF8091E4039091E503EC01AC
:1008A0002196D093E503C093E4034997E4F10E94B5
:1008B00029030091E0031091E1032091E2033091BC
:1008C000E3036B017C01C01AD10AE20AF30AA70113
:1008D0009601211531054105510521F421E030E053
:1008E00040E050E088EE93E0C89FB001C99F700DD2
:1008F000D89F700D1124072E000C880B990B0E94B5
:10090000AA1F30935E0420935D041092E5031092B9
:10091000E4030E9429036093E0037093E103809352
:10092000E2039093E303DF91CF911F910F91FF902A
:10093000EF90DF90CF90BF90AF90089580E991E065
:10094000089508954091DA025091DB022091D80277
:100950003091D90242175307B4F49091E800957092
:10096000E1F39091E80092FD19C08093F10080912D
:10097000DA029091DB0201968F739927892B19F483
:100980008EEF8093E8008091DA029091DB0201966D
:100990009093DB028093DA0281E0089580E008956D
:1009A000EF92FF920F931F93CF93DF93F82E192F9F
:1009B000E62E042F81E0860F880F0E94A20483E0B8
:1009C0000E94A204CF2DD12FEC0EFD2EF11CCE15CE
:1009D000DF05B9F007FF13C0FE0184910E94A20455
:1009E000182F80E00E94A204812321968111EFCF6D
:1009F000DF91CF911F910F91FF90EF900895888123
:100A0000EDCF81E0F5CFDF92EF92FF920F931F932E
:100A1000CF93DF93D82E8A01EB017B01E40EF51E04
:100A2000CE15DF0559F0D7FE12C0FE0184910E9459
:100A3000A20421968111F4CF0FEF1FEFC801DF91BF
:100A4000CF911F910F91FF90EF90DF9008958881D3
:100A5000EECF2FB7F89487708093E9009091E8006B
:100A6000892F807295FF04C09091F20080E4891B69
:100A70002FBF08957F928F929F92AF92BF92CF9295
:100A8000DF92EF92FF920F931F93CF93DF93C82EC5
:100A90008B017A018091C703811110C08FEF9FEF06
:100AA000DF91CF911F910F91FF90EF90DF90CF904A
:100AB000BF90AF909F908F907F9008958091DE02BD
:100AC00080FF05C08091E00082608093E000CE2D21
:100AD000DF2DD12C8AEFB82E8C2D8770982E8C2D7F
:100AE0008072882E8C2D8074782E9AE3A92E209700
:100AF00019F4DD2009F452C08C2D0E9429058111C2
:100B00000AC0BA94BB2051F261E070E080E090E04E
:100B10000E94F702ECCF8C171D0611F00CF08C2F01
:100B20009FB7F8949092E9002091E80025FD02C05B
:100B30009FBFDDCF282F30E0C21BD30B882029F0C8
:100B40008150A0F01092F100FBCFF801C7FC0AC061
:100B5000815050F041914093F100FACF449140937D
:100B6000F10031968150D0F7020F131FDD2021F0E4
:100B7000A092E800D12CDCCF8091E80085FD07C071
:100B8000A092E800DD24D394209791F2F3CF209730
:100B900079F6772069F2A092E800CACF5D9884E6E2
:100BA0008093DD02C7017CCF615030F02091F100CD
:100BB000FC0120830196F8CF289884E68093C60331
:100BC00008958091D00281110DC082E08093CC0203
:100BD00084E08093CD021092CF021092CE0281E089
:100BE0008093D0028CEC92E00895EF92FF921F93D5
:100BF000CF93DF931F92CDB7DEB77C0180917A044B
:100C000081112AC011E010936D0410936E0483E7E4
:100C100094E09093700480936F0410927204109289
:100C2000710489E991E090936A04809369041092B9
:100C30007504109274041092770410927604109345
:100C400078041093790481EC809373040E94E10589
:100C50000E94620210937A0482E0898341E050E0AE
:100C6000BE016F5F7F4F80916C040E943A0597FD33
:100C700008C080916C0448E050E0B70180640E9495
:100C80003A050F90DF91CF911F91FF90EF9008955B
:100C90000F931F93CF93DF931F92CDB7DEB782E000
:100CA000898342E450E062EF70E080E80E9403052F
:100CB0000E94E105DC0112960D911C9101151105B0
:100CC00089F0D801ED91FC910280F381E02DBE0105
:100CD0006F5F7F4FC801099597FD04C0F80100853B
:100CE0001185ECCF89810F90DF91CF911F910F91EA
:100CF0000895CF93DF93EC0180910B01882331F0AD
:100D000083E00E943A051816190634F081E090E05D
:100D10009B838A8380E090E0DF91CF910895CF9309
:100D2000DF931F92CDB7DEB76983DC01ED91FC91B3
:100D30000280F381E02D41E050E0BE016F5F7F4F04
:100D400009950F90DF91CF9108950F931F93CF9343
:100D5000DF938C01D0E0C0E0F801EC0FFD1F64913F
:100D6000662341F08CE094E00E948F06892B11F0FD
:100D70002196F2CFCE01DF91CF911F910F9108956F
:100D800083E08093E9008091F200882319F08AE3E0
:100D90008093E800089583E00E94290590E008957B
:100DA000CF93DF931F92CDB7DEB7FC018485958585
:100DB00097FD08C02FEF3FEF358724870F90DF9115
:100DC000CF910895CE0101960E94A802019719F4CF
:100DD000898190E0F3CF8FEF9FEFF0CF0F931F93B8
:100DE0000E942903609314047093150480931604E1
:100DF000909317048CE094E00E94D00697FF1DC0EA
:100E00000E942903009114041091150420911604E6
:100E100030911704601B710B820B930B009110042F
:100E2000109111042091120430911304601771077E
:100E300082079307F8F28FEF9FEF1F910F910895AC
:100E40000F931F93CF93DF931F92CDB7DEB78C0123
:100E5000FC018485958597FF0BC0CE0101960E9409
:100E6000A802019771F4898190E0F8019587848741
:100E7000F801848595850F90DF91CF911F910F9197
:100E800008958FEF9FEFF1CFFC018485958597FD45
:100E90000BC09FB7F89482E08093E9008091F20044
:100EA0009FBF90E0019608959FB7F89482E08093E9
:100EB000E9008091F2009FBF90E00895DC01FB0102
:100EC0006C9111964C91119712967C91262F220FBE
:100ED000220F220F95E5822F899F080E80E0811D49
:100EE0001124562F5074362F307267FD60C0511197
:100EF00049C0311106C0982F9095282F892F90E076
:100F000004C025E5280F90E08BEA4F3FF1F0442321
:100F100009F46CC0409530E0442329F0449F312D02
:100F2000112441113F5F432F4095849F080E80E0BC
:100F3000811D249F020E20E0211D949F090E90E048
:100F4000911D1124830F230F930F7F3FB9F030E0E1
:100F5000772321F0779F312D09F03F5F332309F488
:100F600049C0839F080E80E0811D239F020E20E070
:100F7000211D939F090E90E0911D112480832183F0
:100F80009283089531110DC0922F2AEA929F090E83
:100F900090E0911D11242BEA291B922F2AEA280F99
:100FA000ADCF90E0282F2095982F80E0AECF511143
:100FB00011C031110BC0922F8AEA989F090E90E060
:100FC000911D11242BEA291B9B5AEFCF982F909546
:100FD00020E09BCF311106C025E5280F9BEA981B26
:100FE000822FF6CF2AEA280F30E0F9CF9FEF2FEFBC
:100FF0008FEFABCF90E020E080E0C0CFCF92DF92C8
:10100000EF9230E020E0FA01C080D180E280FC0164
:10101000C192D192E192CF012F5F3F4F62177307C8
:1010200091F7EF90DF90CF900895AF92BF92CF925B
:10103000DF92EF92FF920F931F93CF93DF9300D035
:101040001F92CDB7DEB75A0119821A821B828823FC
:1010500061F18B01E1E0F0E0E82EF12CD8012D9157
:101060008D012223F1F06F01B1E0CB1AD108D50137
:10107000AC0DBD1D4C914423A1F030E02F5F3F4FDC
:10108000D7010E94CC1FA42FB0E011969B01AC01A8
:101090000E94681FA1E0B0E0AC0FBD1FAC0DBD1DEC
:1010A0008C933196E430F105C9F669817A818B81A0
:1010B0000F900F900F90DF91CF911F910F91FF90A4
:1010C000EF90DF90CF90BF90AF90089581E090E0D7
:1010D0000895DC01FB0112962C9112978481958171
:1010E0002817190641F491818081813A31F49D7F5E
:1010F00081E0913009F080E008958132E1F79B3082
:1011000029F482811F968C9381E008959A3099F793
:10111000828150968C93F8CFDC01FB0188E48083B8
:1011200089E4818384E482831D969C911D979F703E
:101130009F5B93831D968D919C9124E09695879556
:101140002A95E1F78F708F5B848385E00895EF9295
:10115000FF920F931F93CF93DF93FB0120812138E0
:1011600071F52381223259F5DC0112964C912481CC
:1011700035814217130619F5EC010B851C85F12CFE
:10118000E12C0115110589F0F80144815581628136
:10119000738180E80E9403058F3F980749F0E80EAD
:1011A000F91ED8010D911C91ECCF81E08F87C7010A
:1011B000DF91CF911F910F91FF90EF90089590E0F4
:1011C00080E0F6CFCF93DF93CDB7DEB769970FB648
:1011D000F894DEBF0FBECDBFFC01DB018C918F5FA9
:1011E0008C939E012D5F3F4F8DE0D9011D928A9512
:1011F000E9F729E0298384E08A8391E09D8383E0F5
:101200008E832A8721E22B879C879D879F8722E2F6
:10121000288B27E02B8B25E02C8B8E8B20E430E075
:10122000388F2F8B998F82818B8395858685998BBB
:101230008A8B838180688D8B49E150E0BE016F5FAE
:101240007F4F80E00E94030569960FB6F894DEBFD9
:101250000FBECDBFDF91CF910895CF92DF92EF9275
:10126000FF920F931F93CF93DF936C01EB017B01F0
:10127000E40EF51E10E000E0CE15DF0581F0699167
:101280006D30D1F3D601ED91FC910190F081E02D0C
:10129000C6010995892B19F00F5F1F4FEDCFC801CB
:1012A000DF91CF911F910F91FF90EF90DF90CF9042
:1012B0000895DC01683888F1685816968C91169765
:1012C000861721F117968C9117978617F9F01896C3
:1012D0008C9118978617D1F019968C9119978617CB
:1012E000A9F01A968C911A97861781F01B968C910B
:1012F0001B97861759F0FD01369690E080E021910A
:1013000021114FC08A0F9B1FFC016683CD010496FB
:101310000E94F50581E090E00895862F90E067FF38
:1013200012C0FC01E058F10921E030E001C0220FB9
:10133000EA95EAF714968C911497822B14968C9365
:10134000149760E0BACF1C96ED91FC911D97E80FC1
:10135000F91F6491611109C081E090E013969C939C
:101360008E93129790E080E00895862F807C803CD9
:1013700069F414968C911497806414968C93149746
:101380006F73623309F099CF64E697CF67FFF9CFA7
:1013900014968C911497826014968C9314976F779F
:1013A000F0CF01968630910509F0A9CFD5CFEF9205
:1013B000FF921F93CF93DF93EC01162F0E945909E0
:1013C0007C01E8E7E10F183890F4812F90E017FFD7
:1013D0002AC0FC01E058F10981E090E001C0880FCB
:1013E000EA95EAF780959C8189238C83E0E0DE0111
:1013F00086E0EE2341F016969C911697E91303C000
:1014000016961C921697815011968111F2CFCE013B
:1014100004960E94F505C7019927DF91CF911F918E
:10142000FF90EF900895EC85FD85E80FF91FE4919A
:10143000EE2389F38E2F807C803C41F48C818F7B5E
:101440008C83EF73E23399F6E4E6D1CFE7FFFACF6E
:101450008C818D7F8C83EF77F5CF90E080E00895CD
:10146000CF93DF93EC010E942903688379838A83F9
:101470009B83DF91CF9108950F931F93CF93DF93B9
:101480002091CB022F5F322F37703093CB0220FF99
:101490002BC020E831FD2064347009F02062205F09
:1014A000FC01EC01239600E011E06785662329F03A
:1014B00070E0C8010E9440226F5F6187822F869F83
:1014C000080E80E0811D1124811110C01682662350
:1014D00011F0615061873196EC17FD0731F7DF910C
:1014E000CF911F910F91089520E0D4CF8150868332
:1014F000EECF4F925F927F928F929F92AF92BF9268
:10150000CF92DF92EF92FF920F931F93CF93DF93CF
:101510002C01EB010E94D202F20126893789621B5D
:10152000730B6A307105B0F3F8948A819B811816A9
:1015300019060CF0CDC1E881F98165B1862E689459
:1015400085F835B13F7D35B9DA848F812D2D281B83
:10155000822F2F834C85042E000C550BAA81BB8152
:101560007889FF84E9887F5FF394E3949E8198846F
:10157000B984AB841181C12C6C2D0C2D2C2D2181B3
:10158000112788942111280F08F42FEF8195889452
:1015900070FD120F1795889471FD120F179588949E
:1015A00072FD120F1795889473FD120F179588948A
:1015B00074FD120F1795889475FD120F1795889476
:1015C00076FD120F1795889477FD120F1795889462
:1015D000622F7111612F8D0D162F002C85B800C060
:1015E00017FF35B920816627889400C000C0002C01
:1015F00035B92111290F00C0002C85B800C016FF95
:1016000035B908F42FEF9195889400C000C0002CE4
:1016100035B9F0FC620F00C0002C85B800C015FF82
:1016200035B967958894F1FC620F00C000C0002CAA
:1016300035B96795889400C0002C85B800C014FFA8
:1016400035B9F2FC620F6795889400C000C0002C89
:1016500035B9F3FC620F00C0002C85B800C013FF41
:1016600035B967958894F4FC620F00C000C0002C67
:1016700035B96795889400C0002C85B800C012FF6A
:1016800035B9F5FC620F6795889400C000C0002C46
:1016900035B9F6FC620F00C0002C85B800C011FF00
:1016A00035B967958894F7FC620F00C000C0002C24
:1016B00035B96795889400C0002C85B800C010FF2C
:1016C00035B9122FF110162F9B0D00C000C0002C51
:1016D00035B900C000C0002C85B800C017FF35B96F
:1016E00022816627889400C000C0002C35B92111E2
:1016F000290D00C0002C85B800C016FF35B908F4CC
:101700002FEFE40FF51F00C000C0002C35B9E0FC3E
:10171000620F00C0002C85B800C015FF35B9679571
:101720008894E1FC620F00C000C0002C35B96795B9
:10173000889400C0002C85B800C014FF35B9E2FCC5
:10174000620F6795889400C000C0002C35B9E3FC97
:10175000620F00C0002C85B800C013FF35B9679533
:101760008894E4FC620F00C000C0002C35B9679576
:10177000889400C0002C85B800C012FF35B9E5FC84
:10178000620F6795889400C000C0002C35B9E6FC54
:10179000620F00C0002C85B800C011FF35B96795F5
:1017A0008894E7FC620F00C000C0002C35B9679533
:1017B000889400C0002C85B800C010FF35B9122FE6
:1017C000E110162F919400C000C0002C35B99A0C7E
:1017D00000C000C085B800C017FF35B92181662759
:1017E000889400C000C0002C35B92111280F00C01A
:1017F000002C85B800C016FF35B908F42FEF81958D
:10180000889400C000C0002C35B970FD620F00C084
:10181000002C85B800C015FF35B96795889471FD17
:10182000620F00C000C0002C35B96795889400C0D5
:10183000002C85B800C014FF35B972FD620F6795A2
:10184000889400C000C0002C35B973FD620F00C041
:10185000002C85B800C013FF35B96795889474FDD6
:10186000620F00C000C0002C35B96795889400C095
:10187000002C85B800C012FF35B975FD620F679561
:10188000889400C000C0002C35B976FD620F00C0FE
:10189000002C85B800C011FF35B96795889477FD95
:1018A000620F00C000C0002C35B96795889400C055
:1018B000002C85B800C010FF35B9122F7111162FFA
:1018C0008D0D00C000C0002C35B9119709F086CEEF
:1018D000EA81FB812EE130E0DF010E94622230E0EC
:1018E00020E0A901AAE9EA9F0E0E411DFA9F400DD2
:1018F000511D11244F0F511DDC01CB01840F951F89
:10190000A11DB11D893E43E09407A105B10508F46E
:1019100034C0885E9340A109B10942E0B695A7950D
:10192000979587954A95D1F747E0849F080E211D2A
:10193000949F200D311D1124290F311D6091CA0281
:1019400070E0860F971F820F931F4091BE03509146
:10195000BF036091C0037091C103292F3327420F49
:10196000531F611D711D4093BE035093BF036093CD
:10197000C0037093C1038093CA0278940E94D2027C
:10198000F201778B668BDF91CF911F910F91FF90C2
:10199000EF90DF90CF90BF90AF909F908F907F900F
:1019A0005F904F900895259A08956F927F928F923D
:1019B000CF92DF92EF92FF920F931F93CF93DF931B
:1019C000CDB7DEB762970FB6F894DEBF0FBECDBFBE
:1019D0008C016B017A01822FA801475F5F4FB8012C
:1019E0006A5F7F4F0E9415083B01882ED8011C9624
:1019F0002C91C701F7FE04C0882799278E199F09EB
:101A0000DA82C9829C838B839E838D83688A798ADC
:101A10008A8A213049F5CE0101960E943C0A83E072
:101A20008D871F861E86F7FE02C08DEF8D87D80139
:101A3000ED91FC910088F189E02DBE016F5F7F4F31
:101A4000C801099562960FB6F894DEBF0FBECDBFF0
:101A5000DF91CF911F910F91FF90EF90DF90CF908A
:101A60008F907F906F9008951C861B861A8619862A
:101A700018861F82D4CFCF92DF92EF92FF920F93FE
:101A80001F93CF93DF93CDB7DEB762970FB6F8946D
:101A9000DEBF0FBECDBF8C016B017A01822FA80182
:101AA000475F5F4FB8016A5F7F4F0E9415089B0137
:101AB000482FD8011C968C91DA82C982FC82EB8275
:101AC000FE82ED82288B398B4A8B813009F5CE015D
:101AD00001960E943C0A1D861F861E86D801ED9144
:101AE000FC910088F189E02DBE016F5F7F4FC80136
:101AF000099562960FB6F894DEBF0FBECDBFDF9199
:101B0000CF911F910F91FF90EF90DF90CF900895AC
:101B10001C861B861A86198618861F82DCCF0895BC
:101B200090E080E00895FC0164870895FC018485BD
:101B300090E00895FC01868597850895CF92DF9205
:101B4000EF92FF921F93CF93DF93EC010E94290342
:101B5000C880D980EA80FB80DC01CB018C199D090B
:101B6000AE09BF09CC80DD80EE80FF8011E08C15CE
:101B70009D05AE05BF0508F410E08C159D05AE056A
:101B8000BF0518F0CE010E94300A812FDF91CF915E
:101B90001F91FF90EF90DF90CF9008954F925F924A
:101BA0006F927F928F929F92AF92BF92CF92DF926D
:101BB000EF92FF920F931F93CF93DF93A8ECB3E0C4
:101BC000EA012496182F12951F70982F9F7074E0C9
:101BD000179F90011124FA01E20FF31FC590D590D1
:101BE000E590F490270166247724E42D8D2C9E2C1B
:101BF000AF2CBB24782D0C2D992309F42FC0FA01AA
:101C00001F3019F0FE01E20FF31F05911591259188
:101C10003491E22F712F9295907F292F2095342DAA
:101C2000329F030E30E0311DE99F0E0EE0E0E11D12
:101C3000E30F382D329F030E30E0311D799F070EE0
:101C400070E0711D730F3C2D329F030E30E0311D8B
:101C5000099F000E00E0011D030F1124EC93119663
:101C60007C93119712960C931297860F139693E01C
:101C7000A03EB90709F0A6CFDF91CF911F910F9138
:101C8000FF90EF90DF90CF90BF90AF909F908F909C
:101C90007F906F905F904F9008958F929F92AF9238
:101CA000BF920F931F93CF93DF93CDB7DEB7A1976A
:101CB0000FB6F894DEBF0FBECDBF19A2423008F4B4
:101CC0004AE08E010F5D1F4F842E912CB12CA12C68
:101CD000A50194010E94AA1FE62FB901CA01EA30AA
:101CE00044F5E05DD801EE938D01232B242B252BA9
:101CF00079F790E080E0109769F0FD0101900020F5
:101D0000E9F73197AF014A1B5B0BBD018CE094E012
:101D10000E947906A1960FB6F894DEBF0FBECDBF24
:101D2000DF91CF911F910F91BF90AF909F908F90B7
:101D30000895E95CD7CFCF92DF92EF92FF92CF93D5
:101D4000DF9397FF1BC06B017C016DE28CE094E098
:101D50000E948F06EC0166277727CB016C197D095D
:101D60008E099F094AE00E944D0E8C0F9D1FDF9146
:101D7000CF91FF90EF90DF90CF9008954AE0DF91F0
:101D8000CF91FF90EF90DF90CF900C944D0E42E0FA
:101D900050E06DEA71E08CE094E00C947906CF930A
:101DA000DF93BC01990F880B990B0E949B0EEC01ED
:101DB0000E94C70E8C0F9D1FDF91CF910895CF9386
:101DC000DF93EC0188819981009711F00E9419231B
:101DD000198218821D821C821B821A82DF91CF9188
:101DE0000895FC0180819181009711F00C941923D2
:101DF00008950E945F24FC0180819181009711F079
:101E00000C94061E60E070E0CB010895FB01448154
:101E10005581FC01248135812417350778F08081B4
:101E20009181009759F0FB01608171816115710505
:101E300029F00E948F2421E0892B09F020E0822FD5
:101E40000895FC0124813581232B39F421E0FB0125
:101E50008081882349F020E007C0808191810E9421
:101E60007F2421E0892BB9F7822F08950F931F93C8
:101E7000CF93DF93EC0188819981009759F02A81F3
:101E80003B812617370730F081E0DF91CF911F911A
:101E90000F9108958B016F5F7F4F0E94A2230097DF
:101EA00059F0998388831B830A832C813D81232BDE
:101EB00059F7FC011082E8CF80E0E7CFEF92FF9264
:101EC0000F931F93CF93DF93EC017B01198218824C
:101ED0001B821A821D821C82FB0101900020E9F7FF
:101EE00031978F01061B170BB8010E94360F811125
:101EF00009C0CE01DF91CF911F910F91FF90EF901C
:101F00000C94DF0E1D830C83B70188819981DF91CA
:101F1000CF911F910F91FF90EF900C9488249F9286
:101F2000AF92BF92CF92DF92EF92FF920F931F93E7
:101F3000CF93DF937C016B015A0189012417350788
:101F400020F48B2D5901042F182F6FEA71E0C7017F
:101F50000E945E0FD6011496CD91DC91AC16BD06A1
:101F600050F50C171D0708F4E801D601ED91FC911E
:101F70001197EC0FFD1F908010820D911C910A0D9E
:101F80001B1D0115110571F0F80101900020E9F702
:101F900031975F01A01AB10AB501C7010E94360F3F
:101FA000811116C0C7010E94DF0ED6018D919C9150
:101FB000C80FD91F9882C701DF91CF911F910F9150
:101FC000FF90EF90DF90CF90BF90AF909F900895DB
:101FD000F701B582A482B801808191810E94882492
:101FE000E4CF1F920F920FB60F9211242F933F93BD
:101FF0008F939F93AF93BF938091BE039091BF0344
:10200000A091C003B091C1033091BD0323E0230F21
:102010002D3758F50196A11DB11D2093BD03809366
:10202000BE039093BF03A093C003B093C1038091FC
:10203000C2039091C303A091C403B091C50301965C
:10204000A11DB11D8093C2039093C303A093C40349
:10205000B093C503BF91AF919F918F913F912F9105
:102060000F900FBE0F901F90189526E8230F029631
:10207000A11DB11DD2CF1F920F920FB60F92112446
:102080008F939F938091E1009091E100937F9093D3
:10209000E10083FF0FC01092E90091E09093EB0004
:1020A0001092EC0092E39093ED001092C70398E039
:1020B0009093F00082FF22C093E09093E90090910A
:1020C000F200992319F09AE39093E8009091DD02D1
:1020D000992341F09091DD0291509093DD0291118E
:1020E00001C05D9A9091C603992341F09091C60377
:1020F00091509093C603911101C0289A84FF18C093
:102100008091E2008E7E81608093E2008091E10008
:102110008F7E8093E1008091DE028E7E80618093CD
:10212000DE029F918F910F900FBE0F901F90189518
:1021300080FFF7CF8091E2008E7E80618093E20085
:102140008091E1008E7E8093E1008091DE028E7EA0
:102150008160E5CF1F920F920FB60F921124CF929C
:10216000DF92EF92FF920F931F932F933F934F9322
:102170005F936F937F938F939F93AF93BF93EF93EF
:10218000FF93CF93DF93CDB7DEB76C97DEBFCDBFA4
:102190001092E9008091E80083FF25C068E0CE013D
:1021A00045960E94D40582EF8093E8008D8987FFD1
:1021B00039C09091E80090FFFCCF982F907609F0FD
:1021C00034C19E894F89588D2F89F88C911131C067
:1021D000803861F58091DF028093F1001092F10068
:1021E0008EEF8093E8006C960FB6F894DEBF0FBEBA
:1021F000CDBFDF91CF91FF91EF91BF91AF919F91B3
:102200008F917F916F915F914F913F912F911F918E
:102210000F91FF90EF90DF90CF900F900FBE0F9037
:102220001F9018959EEF9093E800C7CF1092F10091
:10223000D5CF913059F48111D3CF4130510581F67A
:102240008091DF028D7F8093DF02CACF933049F403
:102250008111C6CF4130510519F68091DF028260AD
:10226000F2CF953041F48091E80080FFFCCF2068E8
:102270002093E300B5CF963009F0A9C00B8D1C8DDB
:1022800022E01092E9001092DB021092DA02F212C0
:102290002EC01092D9021092D8020E9448061F82C6
:1022A00099E09983FA8291E09E8390EA98879AEF69
:1022B00099872091DA023091DB02275F3F4F3C8300
:1022C0002B838D831092E9001092DB021092DA02C8
:1022D0001093D9020093D80249E050E0BE016F5F2D
:1022E0007F4F80E00E9403050E94480679CF10933B
:1022F000D9020093D8020E94E105DC0112960D91EB
:102300001C910115110509F451C1D801ED91FC9101
:102310000480F581E02DBE016B5E7F4FC8010995F9
:10232000009709F03EC1F80100851185EACFF3E07E
:10233000FF120EC08F89882309F440C0823061F4F7
:1023400040E86FE086E591E00E94D004811148CF1B
:1023500081E28093EB0047CF813029F440E86BE0C5
:102360008AE491E0F1CF833099F70E94E105DC0126
:102370001296ED90FC908E010F5F1F4F6801E114E3
:10238000F10479F0D701ED91FC910680F781E02D01
:10239000B801C7010995080F111DF701E084F18408
:1023A000EECFD8011C92F60101900020E9F7319799
:1023B000BF016C197D0940E0C601C6CF64E371E03E
:1023C000FB01449150E080E80E94030509CF97305B
:1023D00009F4BECF983021F481E08093F10000CF62
:1023E000993009F0FDCE837009F0B2CFE4E1F1E05D
:1023F00081E031E096E32191222371F08093E9009E
:102400003093EB00DF0111972C912093EC00909317
:10241000ED008F5F873079F78EE78093EA001092A6
:10242000EA008F898093C703DBCE8B8D9C8D109241
:10243000E9001092DB021092DA029093D9028093A5
:10244000D802898D811192C08E899D89913A49F473
:10245000813209F07DCF47E050E064E071E080E038
:10246000B3CF913209F074CF833269F48F89988D9C
:10247000B0E0A0E08093000190930101A0930201DD
:10248000B0930301ADCE803269F48091E80082FF01
:10249000FCCF67E084E091E00E94D4058BEF80934D
:1024A000E8009ECE823209F09BCE8F8980930B018B
:1024B000EEEFFFE7859194918B3F9C4D51F1E0E069
:1024C000F8E08091040190910501A0910601B0917E
:1024D0000701803B9440A105B105F1F480910B0107
:1024E00080FD1AC0EE3F8AE0F80789F587E797E795
:1024F00091838083809160008093DC0288E19BE07F
:102500000FB6F894A895809360000FBE909360007A
:1025100067CEEEEFFAE0D5CF80819181873797477C
:1025200009F05ECEA895809160008861809360007C
:102530008091DC0280936000EE3F2AE0F20789F090
:102540008091FE0A9091FF0A9183808349CE808119
:1025500091818737980751F29093FF0A8093FE0A82
:10256000C5CF1092FF0A1092FE0A3ACE0E94E105F2
:10257000DC0112960D911C910115110509F4E8CEAC
:10258000D801ED91FC910190F081E02DBE016B5ED0
:102590007F4FC8010995811123CEF801008511856F
:1025A000EBCF181619060CF41BCED2CEF1E0FF12B9
:1025B000BECE68E371E004CF40911A0150911B0137
:1025C00025E038E0429FC001439F900D529F900D3F
:1025D0001124875E994C90931B0180931A01B0E0FF
:1025E000A0E02DE0B695A795979587952A95D1F708
:1025F0000895E0E9F4E016821782108611861286AB
:102600001386148284E994E00C94F505FC01DB0147
:102610009C918081890F08F48FEF808311969C91A3
:1026200011978181890F08F48FEF818312969C9115
:102630008281890F08F48FEF8283CF010895409142
:102640001A0150911B0125E038E0429FC001439FD1
:10265000900D529F900D1124875E994C90931B0111
:1026600080931A01890F0895CF9310920F0410924E
:102670000E0488EE93E0A0E0B0E080931004909305
:102680001104A0931204B093130487E891E090938F
:102690000D0480930C048FEF9FEF909319048093A7
:1026A000180480935C0410925E0410925D041092F2
:1026B0006804109267048FEF9FEFDC01809363043E
:1026C00090936404A0936504B093660410925F0431
:1026D00010926004109261041092620410929304AC
:1026E0001092920485EA91E0909391048093900473
:1026F00080918804811113C0109283041092820487
:1027000087E094E090938504809384048FE290E0C6
:10271000909387048093860481E08093880480915D
:102720007A0481112AC0C1E0C0936D04C0936E0485
:1027300083E794E09093700480936F041092720486
:102740001092710489E991E090936A04809369047E
:10275000109275041092740410927704109276040B
:10276000C0937804C093790481EC809373040E9431
:10277000E1050E946202C0937A04E0917404F09132
:102780007504309711F582E894E090937504809376
:10279000740480917604909177042091860430919E
:1027A0008704820F931F909377048093760487E8C1
:1027B00093E090939D0480939C0460EB71E08EE91C
:1027C00094E0CF910C945E0FFC0180819181009781
:1027D000D9F782E894E091838083DBCFCF93DF93B6
:1027E000CDB7DEB7E6970FB6F894DEBF0FBECDBF0C
:1027F000789484B5826084BD84B5816084BD85B5DC
:10280000826085BD85B5816085BD80916E008160E7
:1028100080936E001092810080918100826080938D
:10282000810080918100816080938100809180008F
:1028300081608093800080919100826080939100FC
:1028400080919100816080939100809190008160DF
:10285000809390008091C10084608093C10080913A
:10286000C10082608093C1008091C100816080932B
:10287000C1008091C30081608093C3008091C0003B
:1028800082608093C0008091C20081608093C2000A
:1028900080917A00846080937A0080917A008260CF
:1028A00080937A0080917A00816080937A00809191
:1028B0007A00806880937A001092C7031092DF023A
:1028C0001092DE028091D70081608093D70080EA69
:1028D0008093D80089B5806189BD89B5826089BD42
:1028E00009B400FEFDCF61E070E080E090E00E945E
:1028F000F7028091D8008F7C80618093D80080910E
:10290000E000807F8093E0008091E1008E7E8093E4
:10291000E1008DE08093E200559A209A8FEF9FEFBF
:10292000909319048093180487E893E090939D0492
:1029300080939C040E9429036B017C0110910B0180
:102940006AE070E080E090E00E94F70211110BC095
:102950000E9429036C197D098E099F09683B7B4001
:102960008105910558F325EA33E0A4E5B1E08D91A6
:102970009D919927FC01E155FE4F449180579E4F50
:10298000FC0184918823D1F090E0880F991FFC010D
:10299000EC58FE4F65917491FC01EA59FE4F059188
:1029A00014919FB7F894FB015081842F8095852363
:1029B0008083F8018081482B40839FBFF9011192E9
:1029C0009F01F1E0A436BF0791F68091FA028111D0
:1029D00057C01092E5021092E4028FEF8093E80254
:1029E0008093E9028093EA028093EB028093EC02E9
:1029F0008093ED0281E08093EE028093EF021092CB
:102A0000F1021092F00280E797E19093F302809335
:102A1000F20283E090E09093F5028093F40210922A
:102A2000F7021092F6021092E7021092E6028091ED
:102A3000060490910704892B31F482EE92E0909382
:102A4000070480930604E091E002F091E1023097E0
:102A500021F082EE92E09583848382EE92E090935F
:102A6000E1028093E0021092F9021092F8028AE3E8
:102A700091E09093E3028093E20281E08093FA0276
:102A8000259A88EC93E09093E5028093E40288E035
:102A900090E09093F1028093F00280915F04909116
:102AA0006004A0916104B0916204843C29E0920723
:102AB000A105B10520F484EC99E0A0E0B0E080939A
:102AC0005F0490936004A0936104B09362048FEF5D
:102AD0008093E80280EB8093E90280EF8093EA0222
:102AE0008091100180935C04F9E14F2E512C612CF0
:102AF000712C8E010F5C1F4F8CE094E00E94440704
:102B0000181619060CF06FC06FEA71E0C8010E9438
:102B10005E0F0E94EE0697FD1EC08A309105D9F027
:102B200089831A82EDA8FEA84FEFE41AF40AB701D0
:102B3000C8010E94360F882361F329A93AA98DA9FB
:102B40009EA9BE016F5F7F4F820F931F0E94882452
:102B5000FEAAEDAADECFA9A8BAA8A114B10439F043
:102B6000EDA8FEA86501E114F10409F077C06BEB54
:102B700071E0CE0101960E945E0FBE016F5F7F4F34
:102B8000C8010E94060FF82ECE0101960E94F10E98
:102B9000FF2009F49BC02DA93EA941E050E0B801F7
:102BA000CE0101960E948F0FCE0101960E94FB0E6E
:102BB0006B01CE0101960E94F10E8EE793E00E9418
:102BC000A506B601660F771F6C0D7D1D615D7B4FFD
:102BD000072E000C880B990B0E949B0E0E94C70EBB
:102BE000C8010E94F10E85EAC82E83E0D82E94E534
:102BF000A92E91E0B92EF12CE12CD5012D913D911A
:102C00005D013327F901E253FE4F9491F901E1553B
:102C1000FE4F849120573E4FF9012491222309F45D
:102C200093C3992309F402C391509F3008F0FEC268
:102C3000E92FF0E0E25EF94E0C9454227F198319DB
:102C4000111977197B1916191619161986198C1965
:102C5000901994199A1916199E19640146018FEF5B
:102C6000881A980AD6018C91082E000C990B0E94A4
:102C7000421E892B91F7B1E0EB1AF108EA0CFB1C1C
:102C8000F7018081082E000C990B0E94421E892BAF
:102C900039F0EC14FD0420F0F1E0EF1AF108F0CF68
:102CA000A7014F5F5F4F4C195D095EAB4DABAC1494
:102CB000BD0420F4B601C5010E946424E9A9FAA963
:102CC0008DA99EA9E80FF91F108251CF6DEB71E01D
:102CD000C8010E94210F882349F087E793E00E94F2
:102CE000A50688E090E00E94CF0E7ACF6FEB71E0EE
:102CF000CE0101960E945E0FBE016F5F7F4FC8013B
:102D00000E94060FF82ECE0101960E94F10EFF20C0
:102D100009F43FC02DA93EA948E050E0B801CE011A
:102D200001960E948F0F68EC71E0CE0101960E941F
:102D3000210FF82E81E0F11001C080E08093120194
:102D4000CE0101960E94F10EF1104ACFE0900604E8
:102D5000F0900704E114F104B9F0D70112968D91B7
:102D60009C911397009761F01E962D913C91A901BB
:102D7000440F551F420F531F70E060E00E946D2406
:102D8000F701E480F580E6CF80915C040E948E0319
:102D900027CF6AEC71E0CE0101960E945E0FBE0162
:102DA0006F5F7F4FC8010E94060FF82ECE0101967B
:102DB0000E94F10EFF20C9F02DA93EA948E050E085
:102DC000B801CE0101960E948F0FCE0101960E949C
:102DD000FB0EF62EF092100170931101CE010196B8
:102DE0000E94F10EF0925C04FBCE63ED71E0CE0127
:102DF00001960E945E0FBE016F5F7F4FC8010E9467
:102E0000060FF82ECE0101960E94F10EFF2009F464
:102E100072C0ADA8BEA8A114B10439F1C9A8DAA83E
:102E20006CE270E0C6010E9474247C01EC18FD087D
:102E3000892B19F4EE24EA94FE2CF601EA0DFB1D11
:102E400090801082C9A8DAA86CE270E0C6010E94E6
:102E50009D24CA0CDB1CF6019082009749F029A939
:102E60003AA96C01C21AD30A06C0EE24EA94FE2CD9
:102E7000CC24CA94DC2C970148E050E0B801CE0184
:102E800001960E948F0FCE0101960E94FB0E709357
:102E9000BC036093BB03CE0101960E94F10EA70113
:102EA0004F5F5F4F9601B801CE0101960E948F0FD0
:102EB000CE0101960E94FB0E70930F0160930E01EC
:102EC000CE0101960E94F10E2DA93EA9A6014F5FE9
:102ED0005F4FB801CE0101960E948F0FCE0101967F
:102EE0000E94FB0E70930D0160930C01CE010196C0
:102EF0000E94F10E75CE6CED71E0CE0101960E943C
:102F00005E0FBE016F5F7F4FC8010E94060FF82E53
:102F1000CE0101960E94F10EFF2009F441C02DA9B7
:102F20003EA948E050E0B801CE0101960E948F0F03
:102F300080919E0490919F040097D9F069817A81D5
:102F400061157105A1F04091A0045091A1042D815B
:102F50003E814217530758F00E9488248D819E813C
:102F60009093A3048093A2041E821D82BFCF0E946F
:102F7000192389819A8190939F0480939E048B8169
:102F80009C819093A1048093A0048D819E81909355
:102F9000A3048093A2041A8219821C821B82E4CFAC
:102FA00065EE71E0CE0101960E945E0FBE016F5F7B
:102FB0007F4FC8010E94060FF82ECE0101960E9495
:102FC000F10EFF2091F02DA93EA948E050E0B80194
:102FD000CE0101960E948F0FCE0101960E94FB0E3A
:102FE0007093BA036093B90381CF8DA99EA901970D
:102FF00009F0F6CDE9A9FAA9309721F4109202035D
:10300000E2E0F3E080819FEB980F973108F0E8CD84
:10301000813489F462E880E994E00E94590968E209
:1030200070E080E090E00E94F7026AE780E994E0B7
:103030000E94590935C0823469F462E880E994E05D
:103040000E94590968E270E080E090E00E94F70277
:1030500069ECECCF62E8833409F4B5C062E88434EB
:1030600009F49DC062E8853409F485C0863409F509
:1030700062E880E994E00E94590962E370E080E030
:1030800090E00E94F70264EC80E994E00E94590904
:1030900064E670E080E090E00E94F7020E94F9127E
:1030A00066E970E080E090E00E94F7020E94F91269
:1030B00097CD873469F462E880E994E00E94590969
:1030C00068E270E080E090E00E94F70262E7AECF35
:1030D000883491F461E880E994E00E94590962E83B
:1030E00080E994E00E94590968E270E080E090E095
:1030F0000E94F7026BEC9ACF893469F460E880E9AA
:1031000094E00E94590968E270E080E090E00E943B
:10311000F7026AEC8BCF8A3491F460E880E994E09E
:103120000E94590961E880E994E00E94590968E227
:1031300070E080E090E00E94F7026DE677CF8B347C
:1031400071F28C3469F462E880E994E00E945909D4
:1031500068E270E080E090E00E94F70262EC66CFE7
:103160008D3409F4A8CF8E3491F460E880E994E0BE
:103170000E94590961E880E994E00E94590968E2D7
:1031800070E080E090E00E94F70266EC4FCF8F3451
:1031900091F460E880E994E00E94590961E880E9CF
:1031A00094E00E94590968E270E080E090E00E949B
:1031B000F70267EC3BCF803591F460E880E994E05A
:1031C0000E94590961E880E994E00E94590968E287
:1031D00070E080E090E00E94F70268EC27CF9FEA61
:1031E000980F923008F444CF833531F460E880E9D9
:1031F00094E00E94590921CF66E7843509F416CF7F
:1032000060E8853519F0863531F461E880E994E0AD
:103210000E94590950CF60E880E994E00E94590962
:10322000F4CF909180009F7790938000E22FF0E0A0
:10323000EE0FFF1FEE57FE4FA591B491EC918E2338
:1032400031E020E009F430E0832F922F9C01F1E07F
:103250002F27422F4170942ED6012D916D014217D8
:1032600099F0892B09F073C081E793E00E94A506CD
:10327000C7010E94CF0EF601319790826EE170E097
:1032800080E090E00E94F702BFEFEB1AFB0AE8E053
:10329000EE16F10409F0B1CC809112018823F9F007
:1032A00060EB71E08EE994E00E94210F882309F41D
:1032B00051C080910C0190910E012091BB03298394
:1032C0009A838B83AE014F5F5F4F68E070E088ECBC
:1032D00093E00E94FE0780915C040E948E0380E0D0
:1032E00090E0892B09F408CC0E94000002CC909158
:1032F00080009F7D99CF90918000977F95CF94B566
:103300009F7794BD93CF94B59F7DFBCF9091900014
:103310009F77909390008ACF909190009F7DF9CFF6
:1033200090919000977FF5CF9091C0009F779093F8
:10333000C0007CCF9091C0009F7DF9CF9091C200DA
:10334000977F9093C20072CF90E080E07FCF8DE6B0
:1033500093E08CCF6EEE71E08EE994E00E94210F35
:10336000882309F457C00E9429030E944B1E20E0C5
:1033700030E04AEF54E40E9448202BED3FE049E45E
:1033800050E40E94881E0E94C7210E94C2206B0147
:103390007C0180910C0190910E012091BB03298347
:1033A0009A838B83AE014F5F5F4F68E070E088ECDB
:1033B00093E00E94FE0722EB3AE54CEB5EE3C70187
:1033C000B6010E94DB1F20E030E048ED52E40E948D
:1033D000881E0E94F4209B01AC0180911001909105
:1033E0001101092E000CAA0BBB0BBC01CD016A50C8
:1033F0007109810991090E9430222FEF30E040E0ED
:1034000050E00E94491F265F3F4F4F4F5F4F209370
:103410005C0461CF6BEF71E08EE994E00E94210FB4
:103420008823E1F08BEE0E9447028EE190E00E943B
:10343000350320910C0130910E01FC01EE0FFF1FAE
:10344000E80FF91FE853FC4F8091BB038083318361
:1034500022838091100180935C043DCF66E072E08E
:103460008EE994E00E94210F882309F43FC0B090B8
:10347000A403B9828FEF8B8380EF8A8368ECC62E1A
:1034800063E0D62E70EEE72E73E0F72EB601CE0184
:1034900001960E945E078981895F8983F3E0CF0EE0
:1034A000D11CEC14FD0491F780919C03811113C091
:1034B00084E993E00E94300A84E190E0A0E0B0E06B
:1034C0008093980390939903A0939A03B0939B03DE
:1034D00081E080939C0384E993E00E949E0D882301
:1034E00009F4B7CFB394B092A403B3CF63E172E011
:1034F0008EE994E00E94210F882341F1F090A4030B
:103500004DE253E06AE08F2D0E94CE0D80918C0336
:10351000811113C084E893E00E94300A8EE190E0AC
:10352000A0E0B0E08093880390938903A0938A037E
:10353000B0938B0381E080938C0384E893E00E9436
:103540009E0D882309F485CFF3942CC06EE172E0C0
:103550008EE994E00E94210F882339F1F090A403B2
:103560004DEE52E06FE08F2D0E94CE0D80917C03D6
:1035700081110FC084E793E00E94300A40927803E3
:103580005092790360927A0370927B0381E080937A
:103590007C0384E793E00E949E0DF394F3948823C8
:1035A00009F457CFF092A40354CF68E272E08EE999
:1035B00094E00E94210F8823F1F0F090A4034DEADB
:1035C00052E06FE08F2D0E94CE0D80916C0381112F
:1035D0000FC084E693E00E94300A40926803509244
:1035E000690360926A0370926B0381E080936C03BD
:1035F00084E693E0D0CF62E372E08EE994E00E942B
:10360000210F882311F1F090A4034DE652E06AE007
:103610008F2D0E94CE0D80915C03811113C084E533
:1036200093E00E94300A8EE190E0A0E0B0E0809349
:10363000580390935903A0935A03B0935B0381E01E
:1036400080935C0384E593E07ACF6DE372E08EE9CA
:1036500094E00E94210F882311F1F090A4034DE221
:1036600052E06AE08F2D0E94CE0D80914C038111B3
:1036700013C084E493E00E94300A8EE190E0A0E061
:10368000B0E08093480390934903A0934A03B0931A
:103690004B0381E080934C0384E493E050CF69E4D2
:1036A00072E08EE994E00E94210F882359F1F09096
:1036B000A4034DEE51E06AE08F2D0E94CE0D809163
:1036C0003C03811113C084E393E00E94300A8FE031
:1036D00090E0A0E0B0E08093380390933903A0938A
:1036E0003A03B0933B0381E080933C0384E393E08F
:1036F0000E949E0D882309F4ACCE83E08F0D809349
:10370000A403A7CE64E572E08EE994E00E94210F45
:10371000882309F449C085EF0E9447020E94DC1209
:103720007C010E941F13A0E48A9FC0011124D09045
:10373000A4038D2D890F89AB88EC8AAB8FEF8BABFF
:10374000BE016F5F7F4FC8010E945E07C701880FEF
:10375000991F8E0D9F1DBE016F5F7F4F88539C4F39
:103760000E94061380912C03811113C084E293E020
:103770000E94300A8FE090E0A0E0B0E08093280340
:1037800090932903A0932A03B0932B0381E08093A5
:103790002C0384E293E00E949E0D882309F459CE05
:1037A000D394D092A40355CE64E672E08EE994E0FF
:1037B0000E94210F8823D9F085EF0E9447020E94C2
:1037C000DC1220910C0130910E014091BB03498322
:1037D0003A832B839C01220F331F820F931FBE015C
:1037E0006F5F7F4F88539C4F0E94061332CE64E771
:1037F00072E08EE994E00E94210F882341F08BEE65
:103800000E9447028DE090E00E943503DACF61E824
:1038100072E08EE994E00E94210F882309F444C0ED
:103820008BEE0E944702B7E0EB2EF12CD12C88ECF6
:10383000C82EBB24BA94D9AACAAABBAABE016F5F7C
:103840007F4FC8010E945E07C7010E94350329818E
:10385000FC01EE0FFF1FDF01A80FB91FA853BC4FDB
:103860003C91321708F42C932A81DF01A80FB91F6D
:10387000A853BC4F11963C911197321710F4119632
:103880002C932B81E80FF91FE853FC4F828182179C
:1038900008F4228390E2D90EAFEFEA1AFA0ABFE0E9
:1038A000EB16F10441F6D5CD6DE872E08EE994E0B7
:1038B0000E94210F882309F4C9C08DEE91E0DE013A
:1038C00011966D01FC0145915591659174916C9330
:1038D00011965C93119712964C9312970496139637
:1038E0000A171B0779F70E9429039B01AC0160E0CE
:1038F00070ED83E490E00E943022292F96FD209500
:10390000E22FEF732F7096FD2F5FE695E695E69513
:10391000E670F0E0E45BFE4F8181829F802D212DD7
:10392000112482958F702295207F822B2081820F17
:1039300097FD819580589FEB899F080E80E0811D3F
:103940001124F090A4038F19805CA8ECB3E060E52B
:10395000680F5F2D752F72957F70452F4F70E72F81
:10396000EE0FE70FEC0DFD2DF11D308121819281CD
:10397000442309F427C033967F3009F4F6014295B9
:10398000407FE42EE0943E9D030E30E0311D7081B7
:10399000749F070E70E0711D370F2E9D020E20E000
:1039A000211D7181749F070E70E0711D270F9E9D70
:1039B000090E90E0911D7281749F070E70E0711DD9
:1039C000970F11248F3FC1F0882309F43BC041E0D9
:1039D000480F332321F0349F030E30E0311D2223A2
:1039E00021F0249F020E20E0211D992321F0949FB5
:1039F000090E90E0911D11243C9311962C93119780
:103A000012969C9312975E5F1396865F6813A2CFFF
:103A100080911C03811113C084E193E00E94300A5D
:103A200084E190E0A0E0B0E0809318039093190344
:103A3000A0931A03B0931B0381E080931C0384E1DD
:103A400093E07DCD90E020E030E0D6CF66E972E0F3
:103A50008EE994E00E94210F8823B1F081EE0E944C
:103A600047020E941F13853B08F4F3CC0E94DC122E
:103A7000FC01EE0FFF1FE80FF91FE853FC4F108207
:103A80008FEF81831282E5CC62EA72E08EE994E0E6
:103A90000E94210F8823D9F085EF0E9447020E94DF
:103AA0001F13883208F0D5CCF0900C01E0900E0185
:103AB000D090BB030E94DC12FC01EE0FFF1FE80F49
:103AC000F91FE853FC4FD082E182F282C2CC6FEA48
:103AD00072E08EE994E00E94210F882309F445C02A
:103AE00080910C03811113C084E093E00E94300A9E
:103AF00084E690E0A0E0B0E080930803909309038F
:103B0000A0930A03B0930B0381E080930C0384E03D
:103B100093E00E949E0D882309F49BCCF090030350
:103B20008FEFF11001C080E089831A821B82AE0101
:103B30004F5F5F4F64E070E088EC93E00E94FE0707
:103B400080E0F11001C08FEF19821A828B83AE01E1
:103B50004F5F5F4F64E070E084ED93E00E94FE07EA
:103B600081E0F826F092030374CC6BEB72E08EE9EF
:103B700094E00E94210F882309F4ADCB8FEA0E94C4
:103B80004702E090B903F090BA03B7010F2C000C84
:103B9000880B990B23E0660F771F881F991F2A95C2
:103BA000D1F734E6832E912CA12CB12CA5019401E0
:103BB0000E94491F19019701A0E6BFEF0E945A22F7
:103BC000A50194010E94491F40EA942E920E58ECE0
:103BD000E52E53E0F52ED12CC12C88248A94C214F2
:103BE000D3040CF036CC99828A828B82B701CE0145
:103BF00001960E945E079FEFC91AD90AA3E0EA0E58
:103C0000F11CEDCF8EE994E00C94F10E1F93FC01B2
:103C100099278827BC01E89411911032E9F31930F3
:103C200010F01E30C8F31B3251F01D3249F4689475
:103C300006C00E942D1E610F711D811D911D1191E5
:103C400010531A30B0F33EF49095809570956195BD
:103C50007F4F8F4F9F4F1F910895592F482F372F18
:103C6000262F660F771F881F991F660F771F881FE3
:103C7000991F620F731F841F951F660F771F881F80
:103C8000991F089591110C94F51E803219F08950F6
:103C90008550C8F70895E89409C097FB3EF49095C5
:103CA0008095709561957F4F8F4F9F4F9923A9F015
:103CB000F92F96E9BB279395F695879577956795A4
:103CC000B795F111F8CFFAF4BB0F11F460FF1BC0E8
:103CD0006F5F7F4F8F4F9F4F16C0882311F096E97B
:103CE00011C0772321F09EE8872F762F05C0662329
:103CF00071F096E8862F70E060E02AF09A95660FE2
:103D0000771F881FDAF7880F9695879597F908959A
:103D10000E949B1E0C940F1F0E94011F38F00E94EE
:103D2000081F20F0952311F00C94F81E0C94FE1E31
:103D300011240C94431F0E94201F70F3959FC1F320
:103D4000950F50E0551F629FF001729FBB27F00D49
:103D5000B11D639FAA27F00DB11DAA1F649F66279E
:103D6000B00DA11D661F829F2227B00DA11D621FED
:103D7000739FB00DA11D621F839FA00D611D221FA7
:103D8000749F3327A00D611D231F849F600D211D8B
:103D9000822F762F6A2F11249F5750409AF0F1F00E
:103DA00088234AF0EE0FFF1FBB1F661F771F881F77
:103DB00091505040A9F79E3F510580F00C94F81E99
:103DC0000C94431F5F3FE4F3983ED4F386957795B8
:103DD0006795B795F795E7959F5FC1F7FE2B880F1D
:103DE000911D9695879597F90895992788270895A5
:103DF00097F99F6780E870E060E008959FEF80EC9E
:103E0000089500240A941616170618060906089540
:103E100000240A9412161306140605060895092EA6
:103E20000394000C11F4882352F0BB0F40F4BF2B15
:103E300011F460FF04C06F5F7F4F8F4F9F4F089555
:103E400057FD9058440F551F59F05F3F71F047954B
:103E5000880F97FB991F61F09F3F79F08795089530
:103E6000121613061406551FF2CF4695F1DF08C04F
:103E7000161617061806991FF1CF8695710561056C
:103E800008940895E894BB2766277727CB0197F914
:103E90000895052E97FB1EF400940E94601F57FDA5
:103EA00007D00E94AA1F07FC03D04EF40C94601F99
:103EB00050954095309521953F4F4F4F5F4F089556
:103EC00090958095709561957F4F8F4F9F4F089586
:103ED0000E94CC1FA59F900DB49F900DA49F800DB4
:103EE000911D112408952F923F924F925F926F92ED
:103EF0007F928F929F92AF92BF92CF92DF92EF927A
:103F0000FF920F931F93CF93DF93CDB7DEB7CA1BFA
:103F1000DB0B0FB6F894DEBF0FBECDBF09942A8825
:103F2000398848885F846E847D848C849B84AA84CD
:103F3000B984C884DF80EE80FD800C811B81AA815A
:103F4000B981CE0FD11D0FB6F894DEBF0FBECDBF25
:103F5000ED010895A1E21A2EAA1BBB1BFD010DC0A5
:103F6000AA1FBB1FEE1FFF1FA217B307E407F50729
:103F700020F0A21BB30BE40BF50B661F771F881F05
:103F8000991F1A9469F760957095809590959B019B
:103F9000AC01BD01CF010895A29FB001B39FC00144
:103FA000A39F700D811D1124911DB29F700D811D65
:103FB0001124911D08955058BB27AA270E94F31F72
:103FC0000C940F1F0E94011F38F00E94081F20F060
:103FD00039F49F3F19F426F40C94FE1E0EF4E0957C
:103FE000E7FB0C94F81EE92F0E94201F58F3BA1724
:103FF000620773078407950720F079F4A6F50C94FF
:10400000421F0EF4E0950B2EBA2FA02D0B01B90123
:1040100090010C01CA01A0011124FF27591B99F03E
:10402000593F50F4503E68F11A16F040A22F232F4A
:10403000342F4427585FF3CF469537952795A7959A
:10404000F0405395C9F77EF41F16BA0B620B730B41
:10405000840BBAF09150A1F0FF0FBB1F661F771FB2
:10406000881FC2F70EC0BA0F621F731F841F48F467
:10407000879577956795B795F7959E3F08F0B0CFF0
:104080009395880F08F09927EE0F979587950895D7
:104090000E945C200C940F1F0E94081F58F00E9481
:1040A000011F40F029F45F3F29F00C94F81E5111D4
:1040B0000C94431F0C94FE1E0E94201F68F399234A
:1040C000B1F3552391F3951B550BBB27AA27621714
:1040D0007307840738F09F5F5F4F220F331F441F21
:1040E000AA1FA9F335D00E2E3AF0E0E832D0915055
:1040F0005040E695001CCAF72BD0FE2F29D0660F42
:10410000771F881FBB1F261737074807AB07B0E884
:1041100009F0BB0B802DBF01FF2793585F4F3AF08A
:104120009E3F510578F00C94F81E0C94431F5F3F9E
:10413000E4F3983ED4F3869577956795B795F79510
:104140009F5FC9F7880F911D9695879597F90895F8
:10415000E1E0660F771F881FBB1F62177307840794
:10416000BA0720F0621B730B840BBA0BEE1F88F7A3
:10417000E095089529F416F00C94F81E0C94421F53
:104180000C94FE1E0E94281FA8F39638A0F707F88B
:104190000F92E8942BE33AEA48EB5FE70E949E1EF9
:1041A0000F920F920F924DB75EB70F920E9493211C
:1041B000ECEAF0E00E942A214F915F91EF91FF918C
:1041C000E595EE1FFF1F49F0FE57E0684427EE0F0C
:1041D000441FFA95E1F74195550B0E945D210F9020
:1041E00007FE0C94512108950E94FB206894B111A0
:1041F0000C94431F08950E94281F88F09F5798F041
:10420000B92F9927B751B0F0E1F0660F771F881FDB
:10421000991F1AF0BA95C9F714C0B13091F00E94F5
:10422000421FB1E008950C94421F672F782F882712
:10423000B85F39F0B93FCCF3869577956795B3951C
:10424000D9F73EF490958095709561957F4F8F4F8B
:104250009F4F0895DF93CF931F930F93FF92EF9299
:10426000DF927B018C01689406C0DA2EEF010E9478
:104270009B1EFE01E894A59125913591459155919C
:10428000A6F3EF010E94F31FFE019701A801DA9443
:1042900069F7DF90EF90FF900F911F91CF91DF9121
:1042A00008959B01AC0160E070E080E89FE30C940E
:1042B00048200C94F81E0C94CF210E94281FD8F39C
:1042C0009923C9F3940F511DA3F39150504094F0DA
:1042D00059F0882332F0660F771F881F91505040A5
:1042E000C1F79E3F51052CF7880F911D9695879534
:1042F00097F908955F3FACF0983E9CF0BB278695F8
:1043000077956795B79508F4B1609395C1F7BB0FA2
:1043100058F711F460FFE8CF6F5F7F4F8F4F9F4FCB
:10432000E3CF0C94431FFA01DC01AA0FBB1F9B01D2
:10433000AC01BF5728F4222733274427507820C0E8
:10434000B75190F4AB2F0024469537952795011C63
:10435000A395D2F3002071F0220F331F441FB395B1
:10436000DAF30ED00C94DB1F61307105A0E88A07E8
:10437000B94630F49B01AC016627772788279078EF
:10438000309621F0208331834283538308959F9395
:104390000E94DF210F9007FCEE5F0C9408229F3FE4
:1043A00031F0915020F4879577956795B795880FF0
:1043B000911D9695879597F908950C94FE1E0E947D
:1043C000281FD8F3E894E0E0BB279F57F0F02AEDD0
:1043D0003FE049EC06C0EE0FBB0F661F771F881F3A
:1043E00028F0B23A62077307840728F0B25A620BCA
:1043F000730B840BE3959A9572F7803830F49A9595
:10440000BB0F661F771F881FD2F790480C94D121ED
:10441000EF93E0FF07C0A2EA2AED3FE049EC5FEB33
:104420000E94F31F0E940F1F0F90039401FC9058ED
:10443000E4EDF0E00C941C229F938F937F936F9395
:10444000FF93EF939B01AC010E94881EEF91FF91B7
:104450000E942A212F913F914F915F910C94881EC9
:10446000DB018F939F930E94681FBF91AF91A29F22
:10447000800D911DA39F900DB29F900D1124089562
:1044800097FB072E16F4009407D077FD09D00E9401
:10449000692207FC05D03EF4909581959F4F0895C1
:1044A000709561957F4F0895EE0FFF1F0590F49171
:1044B000E02D09940E94CC1F332312F48A1B9B0B1E
:1044C0000C9464220E94CC1FB7FF0895821B930BAB
:1044D0000895AA1BBB1B51E107C0AA1FBB1FA6174B
:1044E000B70710F0A61BB70B881F991F5A95A9F79D
:1044F00080959095BC01CD0108950F931F93CF93A4
:10450000DF938230910510F482E090E0E091A60400
:10451000F091A70430E020E0B0E0A0E0309799F4FB
:104520002115310509F44AC0281B390B2430310507
:10453000D8F58A819B816115710589F1FB0193830F
:104540008283FE0111C0408151810281138148178D
:104550005907E0F04817590799F4109761F012963F
:104560000C93129713961C933296CF01DF91CF9143
:104570001F910F9108950093A6041093A704F4CF00
:104580002115310551F04217530738F0A901DB011D
:104590009A01BD01DF01F801C1CFEF01F9CF90937E
:1045A000A7048093A604CDCFFE01E20FF31F8193F1
:1045B00091932250310939832883D7CF2091A404C5
:1045C0003091A504232B41F420911E0130911F014D
:1045D0003093A5042093A40420911C0130911D0167
:1045E0002115310541F42DB73EB74091200150917E
:1045F0002101241B350BE091A404F091A504E217DE
:10460000F307A0F42E1B3F0B2817390778F0AC01F5
:104610004E5F5F4F2417350748F04E0F5F1F5093D2
:10462000A5044093A404819391939FCFF0E0E0E030
:104630009CCFCF93DF930097E9F0FC013297138270
:104640001282A091A604B091A704ED0130E020E011
:104650001097A1F420813181820F931F2091A4042F
:104660003091A5042817390709F061C0F093A5041B
:10467000E093A404DF91CF910895EA01CE17DF07FC
:10468000E8F54A815B819E0141155105B1F7E901C9
:10469000FB83EA8349915991C40FD51FEC17FD079D
:1046A00061F4808191810296840F951FE9019983BD
:1046B0008883828193819B838A83F0E0E0E0129675
:1046C0008D919C9113970097B9F52D913C9111977D
:1046D000CD010296820F931F2091A4043091A5046E
:1046E0002817390739F6309751F51092A704109220
:1046F000A604B093A504A093A404BCCFD383C28323
:1047000040815181840F951FC817D90761F44E5F0E
:104710005F4F88819981480F591F518340838A8157
:104720009B81938382832115310509F0B0CFF093EB
:10473000A704E093A6049ECFFD01DC01C0CF138245
:104740001282D7CFB0E0A0E0E8EAF3E20C94751F44
:104750008C01009751F4CB010E947D228C01C8018D
:10476000CDB7DEB7E0E10C94911FFC01E60FF71F17
:104770009C0122503109E217F30708F49DC0D901CA
:10478000CD91DC911197C617D70798F0C530D105A8
:1047900030F3CE0104978617970708F3C61BD70B93
:1047A0002297C193D1936D937C93CF010E941923DB
:1047B000D6CF5B01AC1ABD0A4C018C0E9D1EA09198
:1047C000A604B091A704512C412CF12CE12C109798
:1047D00031F58091A4049091A5048815990509F0FC
:1047E0005CC04616570608F058C080911C01909195
:1047F0001D01009741F48DB79EB740912001509163
:104800002101841B950BE817F90708F055C0F093B8
:10481000A504E093A404F90171836083A0CF8D9176
:104820009C91119712966C90129713967C90139707
:10483000A815B90559F56C0142E0C40ED11CCA1483
:10484000DB0420F1AC014A195B09DA0112961597D5
:1048500080F06282738251834083D9016D937C938F
:10486000E114F10471F0D7011396FC93EE931297C3
:1048700076CF22968C0F9D1FF90191838083F301DF
:10488000EFCFF093A704E093A60469CF481659062A
:1048900008F42C017D01D3019ACFCB010E947D2227
:1048A0007C01009749F0AE01B8010E946424C80160
:1048B0000E941923870153CF10E000E050CF81E020
:1048C00090E0F8940C94A824FB01DC0102C0019054
:1048D0000D9241505040D8F70895DC0101C06D930E
:1048E00041505040E0F70895FC018191861721F076
:1048F0008823D9F7992708953197CF010895FB01AF
:10490000DC018D91019080190110D9F3990B089564
:10491000FB01DC0101900D920020E1F70895FB01FD
:10492000DC014150504030F08D910190801919F414
:104930000020B9F7881B990B0895FC0181E090E0F5
:104940000190061609F4CF010020D1F701970895D0
:1049500012E0CCE1D2E004C0FE010E945422219674
:0A496000CD31D107C9F7F894FFCF5D
:10496A00FFFFFFFF00E1000000000000FF00FF0062
:10497A0096000100C1808100000039050000A804EA
:10498A00800000000000F90EF90EF90E9A0D660873
:10499A00960D930D900D000000003B0DD50CD30C25
:1049AA009A0D6608960D930D9E04790A00313129F5
:1049BA005A1B750A020003000400050006000700DE
:1049CA0008000A0000003100F9183000FB302C0002
:1049DA001C472600825A1F006D6A170041760E0096
:1049EA00897D04000000008F067906CB06C00644C4
:1049FA0007D0062007000000006908E208A7088C13
:104A0A000800000000D7092D092D0AA1040D0A008B
:104A1A004D4F44455F534F4C49440040003F004CC2
:104A2A0045445F5057523A0031004C45445F425268
:104A3A00543A004C45445F434F4C3A004C45445F5E
:104A4A004D4F443A004C45445F4155443A004D4F5E
:104A5A0044455F42524541544845004D4F44455FE5
:104A6A004348415345004D4F44455F5241494E42E8
:104A7A004F57004D4F44455F4F4345414E004D4F00
:104A8A0044455F46495245004D4F44455F4C4156A7
:104A9A0041004D4F44455F434C4F5544004D4F44F0
:104AAA00455F464F52455354004D4F44455F504170
:104ABA00525459004D4F44455F434F4E4645545456
:104ACA00495F52004D4F44455F434F4E464554544B
:104ADA00495F43004D4F44455F53494E454C4F4E45
:104AEA00004D4F44455F4A5547474C45004D4F449A
:104AFA00455F42504D004D4F44455F4D4154524928
:104B0A0058004D4F44455F5457494E4B4C45004D54
:104B1A004F44455F504F4C494345004D4F44455F14
:064B2A00415544494F0013
:00000001FF
