:100000000C9428020C9450020C9450020C94500250
:100010000C9450020C9450020C9450020C94500218
:100020000C9450020C9450020C9446100C94B51091
:100030000C9450020C9450020C9450020C945002F8
:100040000C9450020C9450020C9450020C945002E8
:100050000C9450020C9450020C9450020C94FC0F1F
:100060000C9450020C9450020C9450020C945002C8
:100070000C9450020C9450020C9450020C945002B8
:100080000C9450020C9450020C9450020C945002A8
:100090000C9450020C9450020C9450020C94500298
:1000A0000C9450020C9450020C9450020763423698
:1000B000B79BD8A71A39685618AEBAAB558C1D3CF9
:1000C000B7CC5763BD6DEDFD753EF6177231BF00BD
:1000D0000000803F05A84CCDB2D44EB93836A902F5
:1000E0000C50B9918688083CA6AAAA2ABE00000036
:1000F000803F080B00020202000009040000010218
:10010000020000052400100105240101010424025D
:1001100006052406000107058103100040090401BB
:1001200000020A00000007050202400000070583E4
:10013000024000000403090412010002EF02014022
:100140004123378000010102030141726475696E29
:100150006F204C4C430041726475696E6F204D698D
:1001600063726F0000000000250028002B002E00A5
:10017000310000000000240027002A002D0030007C
:10018000000000002300260029002C002F0004049A
:100190000404040304050202020204030202020230
:1001A0000606060606060404020202040404080207
:1001B00001104080401020408040800802040180EF
:1001C000402010020110801020404020000000025A
:1001D00000090F0000030401000C000000000000F3
:1001E00000000000000000000000000706050401F8
:1001F00000080A0B0C0D09AB0055007C0084004B75
:1002000000B5001B00E5000017E8000047B800003B
:1002100077AB0000ABAB000055AB000022DD000E59
:1002200000F2003E00C20071008F00A1005F00D00C
:10023000002F00F907000000640000006400002F98
:100240006B55000064000000800000228B22002318
:100250008E6B0000800000578B2E00AACD66003206
:10026000CD320032CD9A0090EE900000FC7C00AAC6
:10027000CD6600228B2200FF0000008B0000008B67
:100280000000008B0000008B0000008B0000008B42
:100290000000008B000000FF0000008B000000EB5E
:1002A000CE8700EBCE8700E6D8AD00FFFFFF00E66B
:1002B000D8AD00EBCE8700000000000000800000F9
:1002C0000000000000800000008B0000008B000098
:1002D00000800000008B0000008B0000008B0000FD
:1002E00000FF0000A5FF00FFFFFF0000A5FF0000CA
:1002F00000FF0000008B0000000000000033000041
:10030000006600000099000000CC000000FF000023
:1003100033FF000066FF000099FF0000CCFF0000E3
:10032000FFFF0033FFFF0066FFFF0099FFFF00CCD7
:10033000FFFF00FFFFFF00701919008B0000007025
:10034000191900800000008B000000CD000000574C
:100350008B2E0080800000A09E5F00FF0000008BBD
:100360008B0000ED956400D4FF7F00578B2E00FFBB
:10037000FF0000FACE8700504F545F56414C3A00C0
:1003800055505F00444F574E5F005F3100434F555B
:100390004E543A00415554485F4F4B3A000000001C
:1003A00000000000002A2B280000000000000000D0
:1003B000000000000000000000000000002C9EB4BF
:1003C000A0A1A2A434A6A7A5AE362D3738271E1F9C
:1003D00020212223242526B333B62EB7B89F848547
:1003E000868788898A8B8C8D8E8F90919293949535
:1003F000969798999A9B9C9D2F3130A3AD35040513
:10040000060708090A0B0C0D0E0F10111213141514
:10041000161718191A1B1C1DAFB1B0B5000501093C
:1004200006A1018502050719E029E71500250175D8
:1004300001950881029501750881039506750815D7
:100440000025730507190029738100C03A13741E33
:1004500011241FBECFEFDAE0DEBFCDBF12E0A0E077
:10046000B1E0EEE4FAE402C005900D92AA3CB107B7
:10047000D9F727E0AAECB2E001C01D92AB32B20777
:10048000E1F712E0C7E2D2E004C02197FE010E942A
:10049000C622C632D107C9F70E94F4130C941A255C
:1004A0000C940000ECECF3E09081989F090E90E032
:1004B000911D90839181989F090E90E0911D9183E9
:1004C0009281989F090E90E0911D9283112433969A
:1004D00096E0E336F90741F70895CF93DF93FC01E7
:1004E00081819091F006482F490F5527551F4830BC
:1004F00051059CF5A281B381109709F52CEE36E0E9
:100500003383228320812093EE068093EF0680912F
:10051000F106820F80832091F206A22FB091F3069C
:100520008A2F821B8917E8F481813D91C82FD0E082
:10053000CB5EDE4F38838F5F8183F2CFD90118966F
:100540002D913C91199721153105C1F72CEE36E01C
:1005500019963C932E931897D5CF80E0DF91CF91D9
:10056000089581E0FBCFFC018091CB03882311F13A
:100570003FB7F89482E08093E9002091F200822F47
:1005800090E01816190614F481E090E0882339F001
:10059000289A44E64093CA034091F1004083222305
:1005A00039F02091F200211103C02BE62093E800DE
:1005B0003FBF08958FEF9FEF08953FB7F894809164
:1005C000C6039091C703A091C803B091C90326B593
:1005D000A89B05C02F3F19F00196A11DB11D3FBF7B
:1005E000BA2FA92F982F8827BC01CD01620F711D4A
:1005F000811D911D42E0660F771F881F991F4A9544
:10060000D1F708958F929F92AF92BF92CF92DF92CF
:10061000EF92FF924B015C010E94DD026B017C01B5
:100620000E94DD026C197D098E099F09683E7340A6
:1006300081059105A8F321E0821A9108A108B1086B
:1006400088EEC80E83E0D81EE11CF11C81149104D1
:10065000A104B10429F7FF90EF90DF90CF90BF90F5
:10066000AF909F908F9008952FB7F8946091C20338
:100670007091C3038091C4039091C5032FBF089567
:10068000CF92DF92EF92FF92CF93C82F0E94340354
:100690006B017C0120E03C2FA8E1B1E00E943E20EC
:1006A0009B01AC01C701B6010E94A222AC016627E2
:1006B0007727CA0133E0969587953A95E1F79770C9
:1006C0009A0122273074232B31F02FEF37E0F90104
:1006D000E81BF90BCF01E92FEE0FEE0FF0E0E85920
:1006E000FE4F2081318186959281899F200D311D99
:1006F000112457FF03C031952195310930584CED35
:1007000050E0249FB001359FC001E0E0349F700DA0
:10071000811D9E1F259F700D811D9E1F1124620F3C
:10072000731F8E1F9E1FCF91FF90EF90DF90CF9091
:100730000895AF92BF92CF92DF92EF92FF920F9304
:100740001F93CF93DF93D82E8091E2069091E3061A
:10075000A091E406B091E506892B8A2B8B2BD9F06A
:100760000E94DD0200918B0610918C0620918D066F
:1007700030918E06601B710B820B930B0091E20689
:100780001091E3062091E4063091E50660177107A9
:1007900082079307C8F20E94DD0260938B06709374
:1007A0008C0680938D0690938E06E091EA06F09178
:1007B000EB06309759F04091E6065091E7066091BC
:1007C000E8067091E9068D2D0995D82EC09189060D
:1007D000D0918A0689E6E82E86E0F82E87012097D8
:1007E00049F186E00938180729F18D858823F1F051
:1007F000E881F981A284B3840680F781E02DCE01DF
:100800000995BC01CE01F5010995F801918380831A
:100810008091E0069091E1068436910508F41C86EB
:100820000C80DD81C02D0E5F1F4FD9CFF8011182E2
:100830001082EECFC0918906D0918A0600E110E0C7
:100840002097A9F08D85882361F04E855F856A81A8
:100850007B81E881F9810280F381E02D2D2DCE018D
:1008600009950C80DD81C02D0150110949F7C09117
:100870008906D0918A062097C9F0F9E8EF16F6E0CC
:10088000FF06A1F08D85882351F0F7016081718109
:10089000E881F9810484F585E02DCE0109950C806D
:1008A000DD81C02DF2E0EF0EF11CE5CF80916706EF
:1008B00090916806EC012196D0936806C093670674
:1008C0004997E4F10E943403009163061091640695
:1008D00020916506309166066B017C01C01AD10A31
:1008E000E20AF30AA70196012115310541055105D8
:1008F00021F421E030E040E050E088EE93E0C89F32
:10090000B001C99F700DD89F700D1124072E000CE7
:10091000880B990B0E941C203093E1062093E0067F
:1009200010926806109267060E9434036093630673
:10093000709364068093650690936606DF91CF916D
:100940001F910F91FF90EF90DF90CF90BF90AF90ED
:10095000089580E991E0089508954091DE02509154
:10096000DF022091DC023091DD0242175307B4F41C
:100970009091E8009570E1F39091E80092FD19C024
:100980008093F1008091DE029091DF0201968F73D7
:100990009927892B19F48EEF8093E8008091DE026D
:1009A0009091DF0201969093DF028093DE0281E056
:1009B000089580E00895EF92FF920F931F93CF93D5
:1009C000DF93F82E192FE62E042F81E0860F880F73
:1009D0000E94AD0483E00E94AD04CF2DD12FEC0E18
:1009E000FD2EF11CCE15DF05B9F007FF13C0FE0187
:1009F00084910E94AD04182F80E00E94AD048123F1
:100A000021968111EFCFDF91CF911F910F91FF9030
:100A1000EF9008958881EDCF81E0F5CFDF92EF92DE
:100A2000FF920F931F93CF93DF93D82E8A01EB0190
:100A30007B01E40EF51ECE15DF0559F0D7FE12C07E
:100A4000FE0184910E94AD0421968111F4CF0FEF35
:100A50001FEFC801DF91CF911F910F91FF90EF9091
:100A6000DF9008958881EECF2FB7F8948770809338
:100A7000E9009091E800892F807295FF04C0909161
:100A8000F20080E4891B2FBF08957F928F929F927E
:100A9000AF92BF92CF92DF92EF92FF920F931F938C
:100AA000CF93DF93C82E8B017A018091CB03811104
:100AB00010C08FEF9FEFDF91CF911F910F91FF90AB
:100AC000EF90DF90CF90BF90AF909F908F907F90EE
:100AD00008958091E20280FF05C08091E00082606D
:100AE0008093E000CE2DDF2DD12C8AEFB82E8C2DF7
:100AF0008770982E8C2D8072882E8C2D8074782E85
:100B00009AE3A92E209719F4DD2009F452C08C2D08
:100B10000E94340581110AC0BA94BB2051F261E0F1
:100B200070E080E090E00E940203ECCF8C171D067D
:100B300011F00CF08C2F9FB7F8949092E90020915F
:100B4000E80025FD02C09FBFDDCF282F30E0C21B8B
:100B5000D30B882029F08150A0F01092F100FBCF38
:100B6000F801C7FC0AC0815050F041914093F10058
:100B7000FACF44914093F10031968150D0F7020FA3
:100B8000131FDD2021F0A092E800D12CDCCF809152
:100B9000E80085FD07C0A092E800DD24D3942097EB
:100BA00091F2F3CF209779F6772069F2A092E800CE
:100BB000CACF5D9A84E68093E102C7017CCF615081
:100BC00030F02091F100FC0120830196F8CF289AA3
:100BD00084E68093CA0308958091D40281110DC0E8
:100BE00082E08093D00284E08093D1021092D302FD
:100BF0001092D20281E08093D40280ED92E00895B9
:100C0000EF92FF921F93CF93DF931F92CDB7DEB782
:100C10007C018091FD0681112AC011E01093F0063D
:100C20001093F10686EF96E09093F3068093F20618
:100C30001092F5061092F4068DE991E09093ED067E
:100C40008093EC061092F8061092F7061092FA06BE
:100C50001092F9061093FB061093FC0681EC80932A
:100C6000F6060E94EC050E946D021093FD0682E0DC
:100C7000898341E050E0BE016F5F7F4F8091EF06B6
:100C80000E94450597FD08C08091EF0648E050E0BE
:100C9000B70180640E9445050F90DF91CF911F91AD
:100CA000FF90EF9008950F931F93CF93DF931F92C0
:100CB000CDB7DEB782E0898342E450E062EF70E0B6
:100CC00080E80E940E050E94EC05DC0112960D9151
:100CD0001C910115110589F0D801ED91FC9102805C
:100CE000F381E02DBE016F5F7F4FC801099597FD2D
:100CF00004C0F80100851185ECCF89810F90DF9148
:100D0000CF911F910F910895CF93DF93EC018091C4
:100D10000B01882331F083E00E944505181619065F
:100D200034F081E090E09B838A8380E090E0DF9163
:100D3000CF910895CF93DF931F92CDB7DEB769832C
:100D4000DC01ED91FC910280F381E02D41E050E067
:100D5000BE016F5F7F4F09950F90DF91CF9108958E
:100D60000F931F93CF93DF938C01D0E0C0E0F80185
:100D7000EC0FFD1F6491662341F08FE896E00E941E
:100D80009A06892B11F02196F2CFCE01DF91CF91F7
:100D90001F910F91089583E08093E9008091F20004
:100DA000882319F08AE38093E800089583E00E9485
:100DB000340590E00895CF93DF931F92CDB7DEB74F
:100DC000FC018485958597FD08C02FEF3FEF35879F
:100DD00024870F90DF91CF910895CE0101960E9454
:100DE000B302019719F4898190E0F3CF8FEF9FEF61
:100DF000F0CF0F931F930E94340360939706709374
:100E000098068093990690939A068FE896E00E9440
:100E1000DB0697FF1DC00E943403009197061091D6
:100E200098062091990630919A06601B710B820BEF
:100E3000930B0091930610919406209195063091A2
:100E400096066017710782079307F8F28FEF9FEFFE
:100E50001F910F9108950F931F93CF93DF931F92CC
:100E6000CDB7DEB78C01FC018485958597FF0BC05B
:100E7000CE0101960E94B302019771F4898190E03E
:100E8000F80195878487F801848595850F90DF9117
:100E9000CF911F910F9108958FEF9FEFF1CFFC013C
:100EA0008485958597FD0BC09FB7F89482E0809369
:100EB000E9008091F2009FBF90E0019608959FB7EE
:100EC000F89482E08093E9008091F2009FBF90E067
:100ED0000895DC01FB016C9111964C9111971296CB
:100EE0007C91262F220F220F220F95E5822F899FBA
:100EF000080E80E0811D1124562F5074362F307259
:100F000067FD60C0511149C0311106C0982F9095FE
:100F1000282F892F90E004C025E5280F90E08BEA68
:100F20004F3FF1F0442309F46CC0409530E0442376
:100F300029F0449F312D112441113F5F432F4095EB
:100F4000849F080E80E0811D249F020E20E0211D59
:100F5000949F090E90E0911D1124830F230F930F8E
:100F60007F3FB9F030E0772321F0779F312D09F0F2
:100F70003F5F332309F449C0839F080E80E0811D41
:100F8000239F020E20E0211D939F090E90E0911DEA
:100F90001124808321839283089531110DC0922FF3
:100FA0002AEA929F090E90E0911D11242BEA291B39
:100FB000922F2AEA280FADCF90E0282F2095982F66
:100FC00080E0AECF511111C031110BC0922F8AEACF
:100FD000989F090E90E0911D11242BEA291B9B5A22
:100FE000EFCF982F909520E09BCF311106C025E5DB
:100FF000280F9BEA981B822FF6CF2AEA280F30E0B1
:10100000F9CF9FEF2FEF8FEFABCF90E020E080E0A4
:10101000C0CFCF92DF92EF9230E020E0FA01C080A3
:10102000D180E280FC01C192D192E192CF012F5F89
:101030003F4F6217730791F7EF90DF90CF900895BD
:10104000AF92BF92CF92DF92EF92FF920F931F93D6
:10105000CF93DF9300D01F92CDB7DEB75A0119822C
:101060001A821B82882361F18B01E1E0F0E0E82E17
:10107000F12CD8012D918D012223F1F06F01B1E007
:10108000CB1AD108D501AC0DBD1D4C914423A1F064
:1010900030E02F5F3F4FD7010E943E20A42FB0E0E9
:1010A00011969B01AC010E94DA1FA1E0B0E0AC0FE9
:1010B000BD1FAC0DBD1D8C933196E430F105C9F612
:1010C00069817A818B810F900F900F90DF91CF9182
:1010D0001F910F91FF90EF90DF90CF90BF90AF9056
:1010E000089581E090E00895DC01FB0112962C91B7
:1010F0001297848195812817190641F49181808186
:10110000813A31F49D7F81E0913009F080E00895CB
:101110008132E1F79B3029F482811F968C9381E024
:1011200008959A3099F7828150968C93F8CFDC011C
:10113000FB0188E4808389E4818384E482831D96B3
:101140009C911D979F709F5B93831D968D919C91A1
:1011500024E0969587952A95E1F78F708F5B8483BD
:1011600085E00895EF92FF920F931F93CF93DF9343
:10117000FB012081213871F52381223259F5DC01F0
:1011800012964C91248135814217130619F5EC0112
:101190000B851C85F12CE12C0115110589F0F80156
:1011A000448155816281738180E80E940E058F3FE2
:1011B000980749F0E80EF91ED8010D911C91ECCF6B
:1011C00081E08F87C701DF91CF911F910F91FF9031
:1011D000EF90089590E080E0F6CFCF93DF93CDB706
:1011E000DEB769970FB6F894DEBF0FBECDBFFC0126
:1011F000DB018C918F5F8C939E012D5F3F4F8DE0C3
:10120000D9011D928A95E9F729E0298384E08A8330
:1012100091E09D8383E08E832A8721E22B879C8740
:101220009D879F8722E2288B27E02B8B25E02C8B44
:101230008E8B20E430E0388F2F8B998F82818B83C7
:1012400095858685998B8A8B838180688D8B49E112
:1012500050E0BE016F5F7F4F80E00E940E056996EF
:101260000FB6F894DEBF0FBECDBFDF91CF910895CA
:10127000CF92DF92EF92FF920F931F93CF93DF9362
:101280006C01EB017B01E40EF51E10E000E0CE15D1
:10129000DF0581F069916D30D1F3D601ED91FC91BC
:1012A0000190F081E02DC6010995892B19F00F5F9F
:1012B0001F4FEDCFC801DF91CF911F910F91FF908C
:1012C000EF90DF90CF900895DC01683888F168587E
:1012D00016968C911697861721F117968C91179771
:1012E0008617F9F018968C9118978617D1F01996F1
:1012F0008C9119978617A9F01A968C911A978617D0
:1013000081F01B968C911B97861759F0FD0136963C
:1013100090E080E0219121114FC08A0F9B1FFC01BA
:101320006683CD0104960E94000681E090E0089556
:10133000862F90E067FF12C0FC01E058F10921E020
:1013400030E001C0220FEA95EAF714968C911497C9
:10135000822B14968C93149760E0BACF1C96ED9173
:10136000FC911D97E80FF91F6491611109C081E09C
:1013700090E013969C938E93129790E080E00895EE
:10138000862F807C803C69F414968C91149780643D
:1013900014968C9314976F73623309F099CF64E6B7
:1013A00097CF67FFF9CF14968C91149782601496AB
:1013B0008C9314976F77F0CF01968630910509F0E2
:1013C000A9CFD5CFEF92FF921F93CF93DF93EC017C
:1013D000162F0E9464097C01E8E7E10F183890F4A9
:1013E000812F90E017FF2AC0FC01E058F10981E04D
:1013F00090E001C0880FEA95EAF780959C818923E7
:101400008C83E0E0DE0186E0EE2341F016969C91AD
:101410001697E91303C016961C92169781501196E1
:101420008111F2CFCE0104960E940006C7019927D0
:10143000DF91CF911F91FF90EF900895EC85FD858E
:10144000E80FF91FE491EE2389F38E2F807C803C16
:1014500041F48C818F7B8C83EF73E23399F6E4E661
:10146000D1CFE7FFFACF8C818D7F8C83EF77F5CFDB
:1014700090E080E00895CF93DF93EC010E94340365
:10148000688379838A839B83DF91CF9108950F933B
:101490001F93CF93DF932091CF022F5F322F3770AE
:1014A0003093CF0220FF2BC020E831FD2064347040
:1014B00009F02062205FFC01EC01239600E011E0BE
:1014C0006785662329F070E0C8010E94B2226F5F31
:1014D0006187822F869F080E80E0811D1124811173
:1014E00010C01682662311F0615061873196EC17A7
:1014F000FD0731F7DF91CF911F910F91089520E003
:10150000D4CF81508683EECF4F925F927F928F929D
:101510009F92AF92BF92CF92DF92EF92FF920F9382
:101520001F93CF93DF932C01EB010E94DD02F201A8
:1015300026893789621B730B6A307105B0F3F89402
:101540008A819B81181619060CF0CDC1E881F981BA
:1015500065B1862E689485F835B13F7D35B9DA845A
:101560008F812D2D281B822F2F834C85042E000C5C
:10157000550BAA81BB817889FF84E9887F5FF3944A
:10158000E3949E819884B984AB841181C12C6C2D25
:101590000C2D2C2D2181112788942111280F08F45E
:1015A0002FEF8195889470FD120F1795889471FD27
:1015B000120F1795889472FD120F1795889473FD7A
:1015C000120F1795889474FD120F1795889475FD66
:1015D000120F1795889476FD120F1795889477FD52
:1015E000120F17958894622F7111612F8D0D162F90
:1015F000002C85B800C017FF35B920816627889474
:1016000000C000C0002C35B92111290F00C0002CEA
:1016100085B800C016FF35B908F42FEF919588946E
:1016200000C000C0002C35B9F0FC620F00C0002CD7
:1016300085B800C015FF35B967958894F1FC620F35
:1016400000C000C0002C35B96795889400C0002CFC
:1016500085B800C014FF35B9F2FC620F6795889415
:1016600000C000C0002C35B9F3FC620F00C0002C94
:1016700085B800C013FF35B967958894F4FC620FF4
:1016800000C000C0002C35B96795889400C0002CBC
:1016900085B800C012FF35B9F5FC620F67958894D4
:1016A00000C000C0002C35B9F6FC620F00C0002C51
:1016B00085B800C011FF35B967958894F7FC620FB3
:1016C00000C000C0002C35B96795889400C0002C7C
:1016D00085B800C010FF35B9122FF110162F9B0DE1
:1016E00000C000C0002C35B900C000C0002C85B877
:1016F00000C017FF35B922816627889400C000C05A
:10170000002C35B92111290D00C0002C85B800C06E
:1017100016FF35B908F42FEFE40FF51F00C000C025
:10172000002C35B9E0FC620F00C0002C85B800C069
:1017300015FF35B967958894E1FC620F00C000C0C1
:10174000002C35B96795889400C0002C85B800C07E
:1017500014FF35B9E2FC620F6795889400C000C0A1
:10176000002C35B9E3FC620F00C0002C85B800C026
:1017700013FF35B967958894E4FC620F00C000C080
:10178000002C35B96795889400C0002C85B800C03E
:1017900012FF35B9E5FC620F6795889400C000C060
:1017A000002C35B9E6FC620F00C0002C85B800C0E3
:1017B00011FF35B967958894E7FC620F00C000C03F
:1017C000002C35B96795889400C0002C85B800C0FE
:1017D00010FF35B9122FE110162F919400C000C0F0
:1017E000002C35B99A0C00C000C085B800C017FFA6
:1017F00035B921816627889400C000C0002C35B916
:101800002111280F00C0002C85B800C016FF35B983
:1018100008F42FEF8195889400C000C0002C35B9E2
:1018200070FD620F00C0002C85B800C015FF35B9EF
:101830006795889471FD620F00C000C0002C35B917
:101840006795889400C0002C85B800C014FF35B996
:1018500072FD620F6795889400C000C0002C35B9F6
:1018600073FD620F00C0002C85B800C013FF35B9AE
:101870006795889474FD620F00C000C0002C35B9D4
:101880006795889400C0002C85B800C012FF35B958
:1018900075FD620F6795889400C000C0002C35B9B3
:1018A00076FD620F00C0002C85B800C011FF35B96D
:1018B0006795889477FD620F00C000C0002C35B991
:1018C0006795889400C0002C85B800C010FF35B91A
:1018D000122F7111162F8D0D00C000C0002C35B9CC
:1018E000119709F086CEEA81FB812EE130E0DF011D
:1018F0000E94D42230E020E0A901AAE9EA9F0E0E5E
:10190000411DFA9F400D511D11244F0F511DDC0147
:10191000CB01840F951FA11DB11D893E43E09407A3
:10192000A105B10508F434C0885E9340A109B1094E
:1019300042E0B695A795979587954A95D1F747E0E8
:10194000849F080E211D949F200D311D1124290F05
:10195000311D6091CE0270E0860F971F820F931F9A
:101960004091C2035091C3036091C4037091C503B9
:10197000292F3327420F531F611D711D4093C2034E
:101980005093C3036093C4037093C5038093CE0246
:1019900078940E94DD02F201778B668BDF91CF9104
:1019A0001F910F91FF90EF90DF90CF90BF90AF907D
:1019B0009F908F907F905F904F900895259A089503
:1019C0006F927F928F92CF92DF92EF92FF920F935E
:1019D0001F93CF93DF93CDB7DEB762970FB6F8941E
:1019E000DEBF0FBECDBF8C016B017A01822FA80133
:1019F000475F5F4FB8016A5F7F4F0E9420083B013D
:101A0000882ED8011C962C91C701F7FE04C08827A8
:101A100099278E199F09DA82C9829C838B839E83C2
:101A20008D83688A798A8A8A213049F5CE010196A8
:101A30000E94470A83E08D871F861E86F7FE02C03C
:101A40008DEF8D87D801ED91FC910088F189E02D13
:101A5000BE016F5F7F4FC801099562960FB6F8947B
:101A6000DEBF0FBECDBFDF91CF911F910F91FF90D1
:101A7000EF90DF90CF908F907F906F9008951C86AD
:101A80001B861A86198618861F82D4CFCF92DF92C2
:101A9000EF92FF920F931F93CF93DF93CDB7DEB7F3
:101AA00062970FB6F894DEBF0FBECDBF8C016B01FD
:101AB0007A01822FA801475F5F4FB8016A5F7F4FAD
:101AC0000E9420089B01482FD8011C968C91DA8235
:101AD000C982FC82EB82FE82ED82288B398B4A8B95
:101AE000813009F5CE0101960E94470A1D861F86A6
:101AF0001E86D801ED91FC910088F189E02DBE0190
:101B00006F5F7F4FC801099562960FB6F894DEBFEC
:101B10000FBECDBFDF91CF911F910F91FF90EF903E
:101B2000DF90CF9008951C861B861A86198618862A
:101B30001F82DCCF089590E080E00895FC01648767
:101B40000895FC01848590E00895FC0186859785C1
:101B50000895CF92DF92EF92FF921F93CF93DF937E
:101B6000EC010E943403C880D980EA80FB80DC014C
:101B7000CB018C199D09AE09BF09CC80DD80EE80B8
:101B8000FF8011E08C159D05AE05BF0508F410E03F
:101B90008C159D05AE05BF0518F0CE010E943B0ACD
:101BA000812FDF91CF911F91FF90EF90DF90CF9029
:101BB00008954F925F926F927F928F929F92AF9211
:101BC000BF92CF92DF92EF92FF920F931F93CF932A
:101BD000DF93ACECB3E0EA012496182F12951F7046
:101BE000982F9F7074E0179F90011124FA01E20F63
:101BF000F31FC590D590E590F490270166247724D3
:101C0000E42D8D2C9E2CAF2CBB24782D0C2D9923EC
:101C100009F42FC0FA011F3019F0FE01E20FF31F83
:101C20000591159125913491E22F712F9295907F16
:101C3000292F2095342D329F030E30E0311DE99F6E
:101C40000E0EE0E0E11DE30F382D329F030E30E071
:101C5000311D799F070E70E0711D730F3C2D329F6F
:101C6000030E30E0311D099F000E00E0011D030F3F
:101C70001124EC9311967C93119712960C93129762
:101C8000860F139696E0A336B90709F0A6CFDF9129
:101C9000CF911F910F91FF90EF90DF90CF90BF9069
:101CA000AF909F908F907F906F905F904F9008952E
:101CB0008F929F92AF92BF920F931F93CF93DF9318
:101CC000CDB7DEB7A1970FB6F894DEBF0FBECDBF7C
:101CD00019A2423008F44AE08E010F5D1F4F842E96
:101CE000912CB12CA12CA50194010E941C20E62F5F
:101CF000B901CA01EA3044F5E05DD801EE938D01E7
:101D0000232B242B252B79F790E080E0109769F0A6
:101D1000FD0101900020E9F73197AF014A1B5B0BF1
:101D2000BD018FE896E00E948406A1960FB6F89454
:101D3000DEBF0FBECDBFDF91CF911F910F91BF903E
:101D4000AF909F908F900895E95CD7CFCF92DF92AC
:101D5000EF92FF92CF93DF9397FF1BC06B017C0143
:101D60006DE28FE896E00E949A06EC0166277727DD
:101D7000CB016C197D098E099F094AE00E94580E1B
:101D80008C0F9D1FDF91CF91FF90EF90DF90CF9050
:101D900008954AE0DF91CF91FF90EF90DF90CF90D0
:101DA0000C94580E42E050E061EB71E08FE896E051
:101DB0000C948406CF93DF93BC01990F880B990B89
:101DC0000E94A60EEC010E94D20E8C0F9D1FDF9187
:101DD000CF910895CF93DF93EC018881998100978B
:101DE00011F00E948B23198218821D821C821B8293
:101DF0001A82DF91CF910895FC0180819181009733
:101E000011F00C948B2308950E94D124FC01808151
:101E10009181009711F00C94781E60E070E0CB0186
:101E20000895FB0144815581FC01248135812417EB
:101E3000350778F080819181009759F0FB0160812E
:101E400071816115710529F00E94012521E0892B1E
:101E500009F020E0822F0895FC0124813581232B95
:101E600039F421E0FB018081882349F020E007C09C
:101E7000808191810E94F12421E0892BB9F7822F82
:101E800008950F931F93CF93DF93EC01888199817D
:101E9000009759F02A813B812617370730F081E0FF
:101EA000DF91CF911F910F9108958B016F5F7F4F4D
:101EB0000E941424009759F0998388831B830A8316
:101EC0002C813D81232B59F7FC011082E8CF80E063
:101ED000E7CFEF92FF920F931F93CF93DF93EC0125
:101EE0007B01198218821B821A821D821C82FB01CF
:101EF00001900020E9F731978F01061B170BB801FD
:101F00000E94410F811109C0CE01DF91CF911F9135
:101F10000F91FF90EF900C94EA0E1D830C83B70194
:101F200088819981DF91CF911F910F91FF90EF9060
:101F30000C94FA249F92AF92BF92CF92DF92EF92CD
:101F4000FF920F931F93CF93DF937C016B015A0194
:101F500089012417350720F48B2D5901042F182FE0
:101F600063EB71E0C7010E94690FD6011496CD9111
:101F7000DC91AC16BD0650F50C171D0708F4E801FE
:101F8000D601ED91FC911197EC0FFD1F908010820E
:101F90000D911C910A0D1B1D0115110571F0F80121
:101FA00001900020E9F731975F01A01AB10AB5014D
:101FB000C7010E94410F811116C0C7010E94EA0E9D
:101FC000D6018D919C91C80FD91F9882C701DF91CE
:101FD000CF911F910F91FF90EF90DF90CF90BF9026
:101FE000AF909F900895F701B582A482B8018081D7
:101FF00091810E94FA24E4CF1F920F920FB60F92A4
:1020000011242F933F938F939F93AF93BF9380910E
:10201000C2039091C303A091C403B091C503309152
:10202000C10323E0230F2D3758F50196A11DB11DE3
:102030002093C1038093C2039093C303A093C4036E
:10204000B093C5038091C6039091C703A091C803C4
:10205000B091C9030196A11DB11D8093C603909351
:10206000C703A093C803B093C903BF91AF919F91D9
:102070008F913F912F910F900FBE0F901F90189549
:1020800026E8230F0296A11DB11DD2CF1F920F92F9
:102090000FB60F9211248F939F938091E10090913E
:1020A000E100937F9093E10083FF0FC01092E9005D
:1020B00091E09093EB001092EC0092E39093ED008E
:1020C0001092CB0398E09093F00082FF22C093E03F
:1020D0009093E9009091F200992319F09AE390937C
:1020E000E8009091E102992341F09091E102915032
:1020F0009093E102911101C05D989091CA039923D8
:1021000041F09091CA0391509093CA03911101C07C
:10211000289884FF18C08091E2008E7E81608093B1
:10212000E2008091E1008F7E8093E1008091E202E5
:102130008E7E80618093E2029F918F910F900FBEFF
:102140000F901F90189580FFF7CF8091E2008E7E50
:1021500080618093E2008091E1008E7E8093E100B7
:102160008091E2028E7E8160E5CF1F920F920FB6C2
:102170000F921124CF92DF92EF92FF920F931F9351
:102180002F933F934F935F936F937F938F939F937F
:10219000AF93BF93EF93FF93CF93DF93CDB7DEB7AA
:1021A0006C97DEBFCDBF1092E9008091E80083FFFD
:1021B00025C068E0CE0145960E94DF0582EF80933E
:1021C000E8008D8987FF39C09091E80090FFFCCF2F
:1021D000982F907609F034C19E894F89588D2F89A8
:1021E000F88C911131C0803861F58091E3028093C1
:1021F000F1001092F1008EEF8093E8006C960FB61C
:10220000F894DEBF0FBECDBFDF91CF91FF91EF916C
:10221000BF91AF919F918F917F916F915F914F91FE
:102220003F912F911F910F91FF90EF90DF90CF90F2
:102230000F900FBE0F901F9018959EEF9093E8009F
:10224000C7CF1092F100D5CF913059F48111D3CF7F
:102250004130510581F68091E3028D7F8093E30246
:10226000CACF933049F48111C6CF4130510519F6D8
:102270008091E3028260F2CF953041F48091E800D2
:1022800080FFFCCF20682093E300B5CF963009F0A3
:10229000A9C00B8D1C8D22E01092E9001092DF0284
:1022A0001092DE02F2122EC01092DD021092DC02B9
:1022B0000E9453061F8299E09983FA8291E09E83DF
:1022C00090EA98879AEF99872091DE023091DF0299
:1022D000275F3F4F3C832B838D831092E900109240
:1022E000DF021092DE021093DD020093DC0249E06F
:1022F00050E0BE016F5F7F4F80E00E940E050E949C
:10230000530679CF1093DD020093DC020E94EC05A6
:10231000DC0112960D911C910115110509F451C1B2
:10232000D801ED91FC910480F581E02DBE016B5E3A
:102330007F4FC8010995009709F03EC1F80100855B
:102340001185EACFF3E0FF120EC08F89882309F4CC
:1023500040C0823061F440E86DE086E591E00E9483
:10236000DB04811148CF81E28093EB0047CF8130BD
:1023700029F440E86BE08AE491E0F1CF833099F7EB
:102380000E94EC05DC011296ED90FC908E010F5F2F
:102390001F4F6801E114F10479F0D701ED91FC9130
:1023A0000680F781E02DB801C7010995080F111DBE
:1023B000F701E084F184EECFD8011C92F601019080
:1023C0000020E9F73197BF016C197D0940E0C60193
:1023D000C6CF64E371E0FB01449150E080E80E94C5
:1023E0000E0509CF973009F4BECF983021F481E073
:1023F0008093F10000CF993009F0FDCE837009F091
:10240000B2CFE6E1F1E081E031E096E321912223D1
:1024100071F08093E9003093EB00DF0111972C916C
:102420002093EC009093ED008F5F873079F78EE773
:102430008093EA001092EA008F898093CB03DBCE71
:102440008B8D9C8D1092E9001092DF021092DE02BB
:102450009093DD028093DC02898D811192C08E8978
:102460009D89913A49F4813209F07DCF47E050E0EF
:1024700064E071E080E0B3CF913209F074CF833231
:1024800069F48F89988DB0E0A0E08093000190936B
:102490000101A0930201B0930301ADCE803269F433
:1024A0008091E80082FFFCCF67E084E091E00E9429
:1024B000DF058BEF8093E8009ECE823209F09BCE41
:1024C0008F8980930B01EEEFFFE7859194918B3F0D
:1024D0009C4D51F1E0E0F8E08091040190910501FC
:1024E000A0910601B0910701803B9440A105B10580
:1024F000F1F480910B0180FD1AC0EE3F8AE0F807ED
:1025000089F587E797E791838083809160008093C6
:10251000E00288E19BE00FB6F894A89580936000F4
:102520000FBE9093600067CEEEEFFAE0D5CF8081CA
:1025300091818737974709F05ECEA895809160001A
:102540008861809360008091E00280936000EE3F9C
:102550002AE0F20789F08091FE0A9091FF0A9183A8
:10256000808349CE808191818737980751F290937B
:10257000FF0A8093FE0AC5CF1092FF0A1092FE0A4E
:102580003ACE0E94EC05DC0112960D911C910115CA
:10259000110509F4E8CED801ED91FC910190F0818C
:1025A000E02DBE016B5E7F4FC8010995811123CEDE
:1025B000F80100851185EBCF181619060CF41BCE17
:1025C000D2CEF1E0FF12BECE68E371E004CF4091BD
:1025D0001C0150911D0185E098E0489F9001499FA2
:1025E000300D589F300D1124275E394C30931D015A
:1025F00020931C01ADEDB0E00E943E200895E3E180
:10260000F7E01682178210861186128613861482CE
:1026100087E197E00C940006FC01DB019C9180812E
:10262000890F08F48FEF808311969C911197818117
:10263000890F08F48FEF818312969C918281890F14
:1026400008F48FEF8283CF01089540911C015091CF
:102650001D0125E038E0429FC001439F900D529F2D
:10266000900D1124875E994C90931D0180931C015D
:10267000890F0895CF93109292061092910688EEDA
:1026800093E0A0E0B0E08093930690939406A0932B
:102690009506B09396068BE891E090939006809310
:1026A0008F068FEF9FEF90939C0680939B068093FD
:1026B000DF061092E1061092E0061092EB061092EF
:1026C000EA068FEF9FEFDC018093E6069093E70622
:1026D000A093E806B093E9061092E2061092E30692
:1026E0001092E4061092E506109216071092150754
:1026F00089EA91E0909314078093130780910B0768
:10270000811113C010920607109205078DE194E025
:1027100090930807809307078FE290E090930A0751
:102720008093090781E080930B078091FD0681115A
:102730002AC0C1E0C093F006C093F10686EF96E090
:102740009093F3068093F2061092F5061092F40629
:102750008DE991E09093ED068093EC061092F806D7
:102760001092F7061092FA061092F906C093FB0633
:10277000C093FC0681EC8093F6060E94EC050E9453
:102780006D02C093FD06E091F706F091F8063097D0
:1027900011F585E097E09093F8068093F706809115
:1027A000F9069091FA062091090730910A07820FE5
:1027B000931F9093FA068093F9068DE993E0909326
:1027C000200780931F0764EB71E081E297E0CF91CF
:1027D0000C94690FFC01808191810097D9F785E005
:1027E00097E091838083DBCFCF93DF93CDB7DEB7C4
:1027F000E6970FB6F894DEBF0FBECDBF789484B5D0
:10280000826084BD84B5816084BD85B5826085BDEC
:1028100085B5816085BD80916E00816080936E007A
:10282000109281008091810082608093810080916C
:10283000810081608093810080918000816080931D
:10284000800080919100826080939100809191003E
:1028500081608093910080919000816080939000CE
:102860008091C10084608093C1008091C10082602A
:102870008093C1008091C10081608093C1008091EC
:10288000C30081608093C3008091C0008260809308
:10289000C0008091C20081608093C20080917A0064
:1028A000846080937A0080917A00826080937A00BD
:1028B00080917A00816080937A0080917A008068AC
:1028C00080937A001092CB031092E3021092E202FE
:1028D0008091D70081608093D70080EA8093D800F0
:1028E00089B5806189BD89B5826089BD09B400FE62
:1028F000FDCF61E070E080E090E00E9402038091F3
:10290000D8008F7C80618093D8008091E000807F28
:102910008093E0008091E1008E7E8093E1008DE065
:102920008093E200559A209A5D9828988FEF9FEF48
:1029300090939C0680939B068DE993E090932007EB
:1029400080931F070E9434036B017C0110910B01DF
:102950006AE070E080E090E00E94020311110BC079
:102960000E9434036C197D098E099F09683B7B40E6
:102970008105910558F348E651E029EA33E0A6E5E0
:10298000B1E08D919D919927FC01E355FE4F649133
:1029900082579E4FFC0184918823D1F090E0880FEC
:1029A000991FFC01EE58FE4F05911491FC01EC5962
:1029B000FE4FE590F4909FB7F894F8017081862F50
:1029C000809587238083F7018081682B60839FBF78
:1029D000F90111929F014A175B0799F68091FE0257
:1029E000811157C01092E9021092E8028FEF809394
:1029F000EC028093ED028093EE028093EF028093CD
:102A0000F0028093F10281E08093F2028093F3025E
:102A10001092F5021092F40280E797E19093F7028A
:102A20008093F60283E090E09093F9028093F8029D
:102A30001092FB021092FA021092EB021092EA023C
:102A40008091890690918A06892B31F486EE92E076
:102A500090938A0680938906E091E402F091E50262
:102A6000309721F086EE92E09583848386EE92E0A3
:102A70009093E5028093E4021092FD021092FC0212
:102A80008CE391E09093E7028093E60281E08093EB
:102A9000FE02259A8CEC93E09093E9028093E80281
:102AA0008DED90E09093F5028093F4028091E20620
:102AB0009091E306A091E406B091E506843CF9E02C
:102AC0009F07A105B10520F484EC99E0A0E0B0E0F7
:102AD0008093E2069093E306A093E406B093E506A4
:102AE0008FEF8093EC0280EB8093ED0280EF809378
:102AF000EE02809112018093DF0619E1412E512CE4
:102B0000612C712C8E010F5C1F4F8FE896E00E94A4
:102B10004F07181619060CF06FC063EB71E0C8017F
:102B20000E94690F0E94F90697FD1EC08A30910528
:102B3000D9F089831A82EDA8FEA82FEFE21AF20AD3
:102B4000B701C8010E94410F882361F329A93AA95E
:102B50008DA99EA9BE016F5F7F4F820F931F0E94B8
:102B6000FA24FEAAEDAADECFA9A8BAA8A114B1043E
:102B700039F0EDA8FEA86501E114F10409F077C071
:102B80006FEB71E0CE0101960E94690FBE016F5F8D
:102B90007F4FC8010E94110FF82ECE0101960E94AE
:102BA000FC0EFF2009F49BC02DA93EA941E050E096
:102BB000B801CE0101960E949A0FCE0101960E94A3
:102BC000060F6B01CE0101960E94FC0E84E993E092
:102BD0000E94B006B601660F771F6C0D7D1D615D0A
:102BE0007B4F072E000C880B990B0E94A60E0E94AB
:102BF000D20EC8010E94FC0E69EAC62E63E0D62EF2
:102C000076E5A72E71E0B72EF12CE12CD5012D91A0
:102C10003D915D013327F901E453FE4F9491F90191
:102C2000E355FE4F849122573E4FF9012491222310
:102C300009F4FAC3992309F408C391509F3008F0AE
:102C400004C3E92FF0E0E95DF94E0C94C622EF19B8
:102C5000F3192019E719EB19251925192519F61962
:102C6000FC19001A041A0A1A25190E1A64014601E1
:102C70004FEF841A940AD6018C91082E000C990B00
:102C80000E94B41E892B91F7B1E0EB1AF108EA0C0F
:102C9000FB1CF7018081082E000C990B0E94B41ECA
:102CA000892B39F0EC14FD0420F0F1E0EF1AF10863
:102CB000F0CFA7014F5F5F4F4C195D095EAB4DAB85
:102CC000AC14BD0420F4B601C5010E94D624E9A9C4
:102CD000FAA98DA99EA9E80FF91F108251CF61ECC6
:102CE00071E0C8010E942C0F882379F08DE893E0F1
:102CF0000E94B00669E070E080E090E00E94A60EBD
:102D00008AE893E00E94B00672CF63EC71E0CE01D6
:102D100001960E94690FBE016F5F7F4FC8010E943C
:102D2000110FF82ECE0101960E94FC0EFF2009F42F
:102D30003FC02DA93EA948E050E0B801CE01019660
:102D40000E949A0F6CEC71E0CE0101960E942C0F4C
:102D5000F82E81E0F11001C080E080931401CE01D3
:102D600001960E94FC0EF11044CFE0908906F0908D
:102D70008A06E114F104B9F0D70112968D919C9165
:102D80001397009761F01E962D913C91A901440F75
:102D9000551F420F531F70E060E00E94DF24F701CF
:102DA000E480F580E6CF8091DF060E94990321CF71
:102DB0006EEC71E0CE0101960E94690FBE016F5F5B
:102DC0007F4FC8010E94110FF82ECE0101960E947C
:102DD000FC0EFF20C9F02DA93EA948E050E0B80143
:102DE000CE0101960E949A0FCE0101960E94060F15
:102DF000F62EF092120170931301CE0101960E94FB
:102E0000FC0EF092DF06F5CE67ED71E0CE01019683
:102E10000E94690FBE016F5F7F4FC8010E94110FB2
:102E2000F82ECE0101960E94FC0EFF2009F472C01C
:102E3000ADA8BEA8A114B10439F1C9A8DAA86CE202
:102E400070E0C6010E94E6247C01EC18FD08892B85
:102E500019F4EE24EA94FE2CF601EA0DFB1D908095
:102E60001082C9A8DAA86CE270E0C6010E940F25A2
:102E7000CA0CDB1CD6019C92009749F029A93AA9FB
:102E80006C01C21AD30A06C0EE24EA94FE2CCC24AC
:102E9000CA94DC2C970148E050E0B801CE010196BD
:102EA0000E949A0FCE0101960E94060F7093C003F4
:102EB0006093BF03CE0101960E94FC0EA7014F5FF5
:102EC0005F4F9601B801CE0101960E949A0FCE0184
:102ED00001960E94060F7093110160931001CE01BC
:102EE00001960E94FC0E2DA93EA9A6014F5F5F4FDF
:102EF000B801CE0101960E949A0FCE0101960E9460
:102F0000060F70930F0160930E01CE0101960E948F
:102F1000FC0E6FCE60EE71E0CE0101960E94690F4B
:102F2000BE016F5F7F4FC8010E94110FF82ECE01C6
:102F300001960E94FC0EFF2009F441C02DA93EA974
:102F400048E050E0B801CE0101960E949A0F8091AE
:102F50002107909122070097D9F069817A81611544
:102F60007105A1F040912307509124072D813E81E6
:102F70004217530758F00E94FA248D819E81909346
:102F80002607809325071E821D82BFCF0E948B23B8
:102F900089819A8190932207809321078B819C815C
:102FA00090932407809323078D819E819093260719
:102FB000809325071A8219821C821B82E4CF69EE56
:102FC00071E0CE0101960E94690FBE016F5F7F4FD5
:102FD000C8010E94110FF82ECE0101960E94FC0E2E
:102FE000FF2091F02DA93EA948E050E0B801CE01A4
:102FF00001960E949A0FCE0101960E94060F7093CF
:10300000BE036093BD0381CF8DA99EA9019709F0EE
:10301000F0CDE9A9FAA9309721F410920603E6E071
:10302000F3E080819FEB980F973108F0E2CD813477
:1030300089F462E883E197E00E94640968E270E045
:1030400080E090E00E9402036AE783E197E00E943B
:10305000640935C0823469F462E883E197E00E9434
:10306000640968E270E080E090E00E94020369EC8D
:10307000ECCF62E8833409F4B5C062E8843409F423
:103080009DC062E8853409F485C0863409F562E89C
:1030900083E197E00E94640962E370E080E090E0E1
:1030A0000E94020364EC83E197E00E94640964E6F5
:1030B00070E080E090E00E9402030E94FF1266E947
:1030C00070E080E090E00E9402030E94FF1291CD28
:1030D000873469F462E883E197E00E94640968E25A
:1030E00070E080E090E00E94020362E7AECF883497
:1030F00091F461E883E197E00E94640962E883E16A
:1031000097E00E94640968E270E080E090E00E942D
:1031100002036BEC9ACF893469F460E883E197E0AD
:103120000E94640968E270E080E090E00E9402037F
:103130006AEC8BCF8A3491F460E883E197E00E94D7
:10314000640961E883E197E00E94640968E270E045
:1031500080E090E00E9402036DE677CF8B3471F23D
:103160008C3469F462E883E197E00E94640968E2C4
:1031700070E080E090E00E94020362EC66CF8D3444
:1031800009F4A8CF8E3491F460E883E197E00E94BF
:10319000640961E883E197E00E94640968E270E0F5
:1031A00080E090E00E94020366EC4FCF8F3491F4F0
:1031B00060E883E197E00E94640961E883E197E0B9
:1031C0000E94640968E270E080E090E00E940203DF
:1031D00067EC3BCF803591F460E883E197E00E9493
:1031E000640961E883E197E00E94640968E270E0A5
:1031F00080E090E00E94020368EC27CF9FEA980FDE
:10320000923008F444CF833531F460E883E197E0ED
:103210000E94640921CF66E7843509F416CF60E87F
:10322000853519F0863531F461E883E197E00E9435
:10323000640950CF60E883E197E00E946409F4CF0D
:10324000909180009F7790938000E22FF0E0EE0F46
:10325000FF1FE058FE4FA591B491EC918E2331E011
:1032600020E009F430E0832F922F9C01F1E02F271A
:10327000422F4170942ED6012D916D01421799F085
:10328000892B09F0D4C084E893E00E94B006C701FE
:103290000E94DA0EF601319790826EE170E080E0D4
:1032A00090E00E940203BFEFEB1AFB0AE9E0EE1682
:1032B000F10409F0ABCC48E050E060E070E0CB01F5
:1032C000EBEEF1E02491A0917B00322F330F330F0E
:1032D0003072AF7D3A2B30937B00277020642093AF
:1032E0007C0020917A00206420937A0020917A005B
:1032F00026FDFCCFC0907800D09079000D2C000CFA
:10330000EE08FF086C0D7D1D8E1D9F1D415051095B
:10331000C9F628E030E040E050E00E94BB1FD90130
:10332000233FF3E03F070CF085C02C3031050CF44F
:1033300084C024E630E00E94D4222FEF33E040E046
:1033400050E00E94BB1F690180910C0190910D011A
:103350008217930789F087E793E00E94B006C601C1
:103360000E94DA0ED0920D01C0920C0164E170E06F
:1033700080E090E00E940203809114018823F9F01C
:1033800064EB71E081E297E00E942C0F882309F43E
:1033900057C080910E01909110012091BF032983A5
:1033A0009A838B83AE014F5F5F4F6DED70E08CECC5
:1033B00093E00E9409088091DF060E94990380E053
:1033C00090E0892B09F4A1CB0E9400009BCB909147
:1033D00080009F7D38CF90918000977F34CF94B547
:1033E0009F7794BD32CF94B59F7DFBCF9091900095
:1033F0009F779093900029CF909190009F7DF9CF77
:1034000090919000977FF5CF9091C0009F77909317
:10341000C0001BCF9091C0009F7DF9CF9091C2005A
:10342000977F9093C20011CF90E080E01ECF80E89C
:1034300093E02BCFAFEFB3E07CCFB0E0A0E079CF4B
:1034400062EF71E081E297E00E942C0F882309F47B
:1034500057C00E9434030E94BD1E20E030E04AEFB6
:1034600054E40E94BA202BED3FE049E450E40E946E
:10347000FA1E0E9439220E9434216B017C01809146
:103480000E01909110012091BF0329839A838B83B1
:10349000AE014F5F5F4F6DED70E08CEC93E00E94EA
:1034A000090822EB3AE54CEB5EE3C701B6010E9446
:1034B0004D2020E030E048ED52E40E94FA1E0E94C8
:1034C00066219B01AC018091120190911301092E9C
:1034D000000CAA0BBB0BBC01CD016A50710981091C
:1034E00091090E94A2222FEF30E040E050E00E94BC
:1034F000BB1F265F3F4F4F4F5F4F2093DF065BCFD1
:103500006FEF71E081E297E00E942C0F8823E1F0D9
:103510008BEE0E9452028EE190E00E9440032091C7
:103520000E0130911001FC01EE0FFF1FE80FF91F93
:10353000E453FC4F8091BF038083318322838091C9
:1035400012018093DF0637CF6AE072E081E297E0F4
:103550000E942C0F882309F43FC0B090A803B982C1
:103560008FEF8B8380EF8A838CECC82E83E0D82E7C
:1035700093E6E92E96E0F92EB601CE0101960E945F
:1035800069078981895F898323E0C20ED11CEC140D
:10359000FD0491F78091A003811113C088E993E0A5
:1035A0000E943B0A84E190E0A0E0B0E080939C039D
:1035B00090939D03A0939E03B0939F0381E080931B
:1035C000A00388E993E00E94A90D882309F4B7CFEE
:1035D000B394B092A803B3CF67E172E081E297E0C1
:1035E0000E942C0F882341F1F090A80347E353E099
:1035F0006AE08F2D0E94D90D80919003811113C034
:1036000088E893E00E943B0A8EE190E0A0E0B0E001
:1036100080938C0390938D03A0938E03B0938F03BC
:1036200081E08093900388E893E00E94A90D8823AD
:1036300009F485CFF3942CC062E272E081E297E056
:103640000E942C0F882339F1F090A80347EF52E035
:103650006FE08F2D0E94D90D8091800381110FC0E2
:1036600088E793E00E943B0A40927C0350927D03DE
:1036700060927E0370927F0381E08093800388E7ED
:1036800093E00E94A90DF394F394882309F457CF93
:10369000F092A80354CF6CE272E081E297E00E94BE
:1036A0002C0F8823F1F0F090A80347EB52E06FE075
:1036B0008F2D0E94D90D8091700381110FC088E673
:1036C00093E00E943B0A40926C0350926D0360921B
:1036D0006E0370926F0381E08093700388E693E03D
:1036E000D0CF66E372E081E297E00E942C0F88233E
:1036F00011F1F090A80347E752E06AE08F2D0E9495
:10370000D90D80916003811113C088E593E00E9478
:103710003B0A8EE190E0A0E0B0E080935C039093E0
:103720005D03A0935E03B0935F0381E08093600329
:1037300088E593E07ACF61E472E081E297E00E944D
:103740002C0F882311F1F090A80347E352E06AE0C0
:103750008F2D0E94D90D80915003811113C088E4F0
:1037600093E00E943B0A8EE190E0A0E0B0E08093FD
:103770004C0390934D03A0934E03B0934F0381E00D
:103780008093500388E493E050CF6DE472E081E2CF
:1037900097E00E942C0F882359F1F090A80347EF7F
:1037A00051E06AE08F2D0E94D90D80914003811174
:1037B00013C088E393E00E943B0A8FE090E0A0E012
:1037C000B0E080933C0390933D03A0933E03B093FD
:1037D0003F0381E08093400388E393E00E94A90DBA
:1037E000882309F4ACCE83E08F0D8093A803A7CE85
:1037F00068E572E081E297E00E942C0F882309F4CB
:1038000049C085EF0E9452020E94E7127C010E948B
:103810002513A0E48A9FC0011124D090A8038D2D08
:10382000890F89AB88EC8AAB8FEF8BABBE016F5FE2
:103830007F4FC8010E946907C701880F991F8E0D2D
:103840009F1DBE016F5F7F4F84539C4F0E940C13DE
:1038500080913003811113C088E293E00E943B0AFB
:103860008FE090E0A0E0B0E080932C0390932D03D4
:10387000A0932E03B0932F0381E08093300388E25E
:1038800093E00E94A90D882309F459CED394D092D5
:10389000A80355CE68E672E081E297E00E942C0F03
:1038A0008823D9F085EF0E9452020E94E7122091EE
:1038B0000E01309110014091BF0349833A832B835D
:1038C0009C01220F331F820F931FBE016F5F7F4F3A
:1038D00084539C4F0E940C1332CE68E772E081E261
:1038E00097E00E942C0F882341F08BEE0E94520239
:1038F0008DE090E00E944003DACF65E872E081E25B
:1039000097E00E942C0F882309F444C08BEE0E949C
:103910005202E7E0EE2EF12CD12CF8ECCF2EBB2496
:10392000BA94D9AACAAABBAABE016F5F7F4FC801C9
:103930000E946907C7010E9440032981FC01EE0F24
:10394000FF1FDF01A80FB91FA453BC4F3C913217D2
:1039500008F42C932A81DF01A80FB91FA453BC4F90
:1039600011963C911197321710F411962C932B81DC
:10397000E80FF91FE453FC4F8281821708F4228379
:1039800090E2D90EAFEFEA1AFA0ABFE0EB16F104A3
:1039900041F6D5CD61E972E081E297E00E942C0FFB
:1039A000882309F4CCC087EF91E0DE0111967D01F8
:1039B000FC0145915591659174916C9311965C93BE
:1039C000119712964C931297049613960A171B0799
:1039D00079F70E9434039B01AC0160E070ED83E451
:1039E00090E00E94A222292F96FD2095E22FEF73EE
:1039F0002F7096FD2F5FE695E695E695E670F0E070
:103A0000E25BFE4F8181829F802D212D11248295C2
:103A10008F702295207F822B2081820F97FD8195C8
:103A200080589FEB899F080E80E0811D1124D09063
:103A3000A8038D19805CACECB3E023E636E0CD2C16
:103A40007C2D72957F706C2D6F70E72FEE0FE70F56
:103A5000EE0DFF2DF11D508141819281662309F405
:103A600027C033967F3009F4F7016295607FB62E48
:103A7000B0945B9D050E50E0511D7081769F070E3E
:103A800070E0711D570F4B9D040E40E0411D718188
:103A9000769F070E70E0711D470F9B9D090E90E009
:103AA000911D7281769F070E70E0711D970F112492
:103AB0008F3FC1F0882309F43EC061E0680F5523B1
:103AC00021F0569F050E50E0511D442321F0469FE2
:103AD000040E40E0411D992321F0969F090E90E0CD
:103AE000911D11245C9311964C93119712969C93FF
:103AF0001297C394C3941396865F2A173B0709F065
:103B00009FCF80912003811113C088E193E00E9430
:103B10003B0A84E190E0A0E0B0E080931C03909326
:103B20001D03A0931E03B0931F0381E08093200325
:103B300088E193E0A6CE90E040E050E0D3CF6AE980
:103B400072E081E297E00E942C0F8823B1F081EEB1
:103B50000E9452020E942513853B08F4F0CC0E947B
:103B6000E712FC01EE0FFF1FE80FF91FE453FC4FB3
:103B700010828FEF81831282E2CC66EA72E081E2EA
:103B800097E00E942C0F8823D9F085EF0E94520203
:103B90000E942513883208F0D2CCF0900E01E090FC
:103BA0001001D090BF030E94E712FC01EE0FFF1F2F
:103BB000E80FF91FE453FC4FD082E182F282BFCCC0
:103BC00063EB72E081E297E00E942C0F882309F4F6
:103BD00045C080911003811113C088E093E00E94DA
:103BE0003B0A84E690E0A0E0B0E080930C03909361
:103BF0000D03A0930E03B0930F0381E08093100395
:103C000088E093E00E94A90D882309F498CCF090F5
:103C100007038FEFF11001C080E089831A821B82B5
:103C2000AE014F5F5F4F6EE670E08CEC93E00E9458
:103C3000090880E0F11001C08FEF19821A828B838E
:103C4000AE014F5F5F4F6EE670E086E195E00E9447
:103C5000090881E0F826F092070371CC6FEB72E05F
:103C600081E297E00E942C0F882309F4A4CB8FEA0D
:103C70000E945202E090BD03F090BE032DED30E0B3
:103C8000D7010E94D42224E6822E912CA12CB12CA3
:103C9000A50194010E94BB1F19019701A0E6BFEF87
:103CA0000E94CC22A50194010E94BB1F30EA932EF2
:103CB000920E4CECE42E43E0F42ED12CC12C88243F
:103CC0008A94C214D3040CF03ACC99828A828B82F3
:103CD000B701CE0101960E946907EFEFCE1ADE0A06
:103CE000F3E0EF0EF11CEDCF81E297E00C94FC0EB7
:103CF0001F93FC0199278827BC01E8941191103289
:103D0000E9F3193010F01E30C8F31B3251F01D32A8
:103D100049F4689406C00E949F1E610F711D811DA9
:103D2000911D119110531A30B0F33EF49095809587
:103D3000709561957F4F8F4F9F4F1F910895592F19
:103D4000482F372F262F660F771F881F991F660F62
:103D5000771F881F991F620F731F841F951F660F9F
:103D6000771F881F991F089591110C94671F803247
:103D700019F089508550C8F70895E89409C097FB59
:103D80003EF490958095709561957F4F8F4F9F4F32
:103D90009923A9F0F92F96E9BB279395F695879576
:103DA00077956795B795F111F8CFFAF4BB0F11F439
:103DB00060FF1BC06F5F7F4F8F4F9F4F16C08823E0
:103DC00011F096E911C0772321F09EE8872F762F16
:103DD00005C0662371F096E8862F70E060E02AF057
:103DE0009A95660F771F881FDAF7880F9695879543
:103DF00097F908950E940D1F0C94811F0E94731F54
:103E000038F00E947A1F20F0952311F00C946A1F5D
:103E10000C94701F11240C94B51F0E94921F70F314
:103E2000959FC1F3950F50E0551F629FF001729F5F
:103E3000BB27F00DB11D639FAA27F00DB11DAA1F6E
:103E4000649F6627B00DA11D661F829F2227B00DBB
:103E5000A11D621F739FB00DA11D621F839FA00D46
:103E6000611D221F749F3327A00D611D231F849F96
:103E7000600D211D822F762F6A2F11249F575040ED
:103E80009AF0F1F088234AF0EE0FFF1FBB1F661F68
:103E9000771F881F91505040A9F79E3F510580F031
:103EA0000C946A1F0C94B51F5F3FE4F3983ED4F363
:103EB000869577956795B795F795E7959F5FC1F7D5
:103EC000FE2B880F911D9695879597F90895992750
:103ED0008827089597F99F6780E870E060E008956B
:103EE0009FEF80EC089500240A9416161706180612
:103EF0000906089500240A941216130614060506EE
:103F00000895092E0394000C11F4882352F0BB0F7E
:103F100040F4BF2B11F460FF04C06F5F7F4F8F4FE1
:103F20009F4F089557FD9058440F551F59F05F3F1C
:103F300071F04795880F97FB991F61F09F3F79F0CB
:103F400087950895121613061406551FF2CF46954D
:103F5000F1DF08C0161617061806991FF1CF8695CF
:103F60007105610508940895E894BB2766277727B3
:103F7000CB0197F90895052E97FB1EF400940E943B
:103F8000D21F57FD07D00E941C2007FC03D04EF41F
:103F90000C94D21F50954095309521953F4F4F4F2F
:103FA0005F4F089590958095709561957F4F8F4FE5
:103FB0009F4F08950E943E20A59F900DB49F900DA5
:103FC000A49F800D911D112408952F923F924F922E
:103FD0005F926F927F928F929F92AF92BF92CF9299
:103FE000DF92EF92FF920F931F93CF93DF93CDB7A2
:103FF000DEB7CA1BDB0B0FB6F894DEBF0FBECDBF1A
:1040000009942A88398848885F846E847D848C84EA
:104010009B84AA84B984C884DF80EE80FD800C81F3
:104020001B81AA81B981CE0FD11D0FB6F894DEBFD6
:104030000FBECDBFED010895A1E21A2EAA1BBB1B36
:10404000FD010DC0AA1FBB1FEE1FFF1FA217B30764
:10405000E407F50720F0A21BB30BE40BF50B661F7A
:10406000771F881F991F1A9469F76095709580953E
:1040700090959B01AC01BD01CF010895A29FB001B5
:10408000B39FC001A39F700D811D1124911DB29F8C
:10409000700D811D1124911D08955058BB27AA272A
:1040A0000E9465200C94811F0E94731F38F00E94AB
:1040B0007A1F20F039F49F3F19F426F40C94701FF6
:1040C0000EF4E095E7FB0C946A1FE92F0E94921F03
:1040D00058F3BA17620773078407950720F079F43D
:1040E000A6F50C94B41F0EF4E0950B2EBA2FA02D5C
:1040F0000B01B90190010C01CA01A0011124FF2795
:10410000591B99F0593F50F4503E68F11A16F0408F
:10411000A22F232F342F4427585FF3CF469537958E
:104120002795A795F0405395C9F77EF41F16BA0B53
:10413000620B730B840BBAF09150A1F0FF0FBB1F01
:10414000661F771F881FC2F70EC0BA0F621F731F4A
:10415000841F48F4879577956795B795F7959E3FA7
:1041600008F0B0CF9395880F08F09927EE0F979538
:10417000879508950E94CE200C94811F0E947A1F7B
:1041800058F00E94731F40F029F45F3F29F00C940F
:104190006A1F51110C94B51F0C94701F0E94921F3E
:1041A00068F39923B1F3552391F3951B550BBB2766
:1041B000AA2762177307840738F09F5F5F4F220FAB
:1041C000331F441FAA1FA9F335D00E2E3AF0E0E8A2
:1041D00032D091505040E695001CCAF72BD0FE2FEC
:1041E00029D0660F771F881FBB1F26173707480780
:1041F000AB07B0E809F0BB0B802DBF01FF27935838
:104200005F4F3AF09E3F510578F00C946A1F0C9472
:10421000B51F5F3FE4F3983ED4F386957795679595
:10422000B795F7959F5FC9F7880F911D969587956C
:1042300097F90895E1E0660F771F881FBB1F62178B
:1042400073078407BA0720F0621B730B840BBA0B49
:10425000EE1F88F7E095089529F416F00C946A1F74
:104260000C94B41F0C94701F0E949A1FA8F39638E8
:10427000A0F707F80F92E8942BE33AEA48EB5FE7E0
:104280000E94101F0F920F920F924DB75EB70F92C0
:104290000E940522ECEAF0E00E949C214F915F9180
:1042A000EF91FF91E595EE1FFF1F49F0FE57E06883
:1042B0004427EE0F441FFA95E1F74195550B0E94F4
:1042C000CF210F9007FE0C94C32108950E946D2109
:1042D0006894B1110C94B51F08950E949A1F88F03C
:1042E0009F5798F0B92F9927B751B0F0E1F0660FBA
:1042F000771F881F991F1AF0BA95C9F714C0B130FB
:1043000091F00E94B41FB1E008950C94B41F672F80
:10431000782F8827B85F39F0B93FCCF38695779529
:104320006795B395D9F73EF4909580957095619512
:104330007F4F8F4F9F4F0895DF93CF931F930F931E
:10434000FF92EF92DF927B018C01689406C0DA2E17
:10435000EF010E940D1FFE01E894A5912591359172
:1043600045915591A6F3EF010E946520FE0197014A
:10437000A801DA9469F7DF90EF90FF900F911F91F9
:10438000CF91DF9108959B01AC0160E070E080E87F
:104390009FE30C94BA200C946A1F0C9441220E9453
:1043A0009A1FD8F39923C9F3940F511DA3F3915089
:1043B000504094F059F0882332F0660F771F881F21
:1043C00091505040C1F79E3F51052CF7880F911D29
:1043D0009695879597F908955F3FACF0983E9CF0CD
:1043E000BB27869577956795B79508F4B160939547
:1043F000C1F7BB0F58F711F460FFE8CF6F5F7F4F35
:104400008F4F9F4FE3CF0C94B51FFA01DC01AA0F29
:10441000BB1F9B01AC01BF5728F422273327442739
:10442000507820C0B75190F4AB2F002446953795B3
:104430002795011CA395D2F3002071F0220F331FA2
:10444000441FB395DAF30ED00C944D206130710502
:10445000A0E88A07B94630F49B01AC0166277727AC
:1044600088279078309621F02083318342835383CC
:1044700008959F930E9451220F9007FCEE5F0C94C9
:104480007A229F3F31F0915020F487957795679578
:10449000B795880F911D9695879597F908950C9477
:1044A000701F0E949A1FD8F3E894E0E0BB279F5743
:1044B000F0F02AED3FE049EC06C0EE0FBB0F661F9F
:1044C000771F881F28F0B23A62077307840728F025
:1044D000B25A620B730B840BE3959A9572F780388E
:1044E00030F49A95BB0F661F771F881FD2F790484C
:1044F0000C944322EF93E0FF07C0A2EA2AED3FE0CD
:1045000049EC5FEB0E9465200E94811F0F9003948D
:1045100001FC9058E4EDF0E00C948E229F938F9371
:104520007F936F93FF93EF939B01AC010E94FA1E60
:10453000EF91FF910E949C212F913F914F915F91AC
:104540000C94FA1EDB018F939F930E94DA1FBF9198
:10455000AF91A29F800D911DA39F900DB29F900DD2
:104560001124089597FB072E16F4009407D077FDC9
:1045700009D00E94DB2207FC05D03EF4909581957E
:104580009F4F0895709561957F4F0895EE0FFF1F1F
:104590000590F491E02D09940E943E20332312F4FB
:1045A0008A1B9B0B0C94D6220E943E20B7FF0895D5
:1045B000821B930B0895AA1BBB1B51E107C0AA1FC6
:1045C000BB1FA617B70710F0A61BB70B881F991FB4
:1045D0005A95A9F780959095BC01CD0108950F9348
:1045E0001F93CF93DF938230910510F482E090E027
:1045F000E0912907F0912A0730E020E0B0E0A0E048
:10460000309799F42115310509F44AC0281B390B5C
:1046100024303105D8F58A819B816115710589F1B6
:10462000FB0193838283FE0111C04081518102818D
:10463000138148175907E0F04817590799F4109764
:1046400061F012960C93129713961C933296CF0139
:10465000DF91CF911F910F91089500932907109337
:104660002A07F4CF2115310551F04217530738F0CE
:10467000A901DB019A01BD01DF01F801C1CFEF0102
:10468000F9CF90932A0780932907CDCFFE01E20F3F
:10469000F31F819391932250310939832883D7CF17
:1046A0002091270730912807232B41F420912001E6
:1046B00030912101309328072093270720911E0174
:1046C00030911F012115310541F42DB73EB74091BE
:1046D000220150912301241B350BE0912707F09113
:1046E0002807E217F307A0F42E1B3F0B2817390702
:1046F00078F0AC014E5F5F4F2417350748F04E0F3E
:104700005F1F5093280740932707819391939FCF72
:10471000F0E0E0E09CCFCF93DF930097E9F0FC015D
:10472000329713821282A0912907B0912A07ED01D6
:1047300030E020E01097A1F420813181820F931F97
:1047400020912707309128072817390709F061C001
:10475000F0932807E0932707DF91CF910895EA01AE
:10476000CE17DF07E8F54A815B819E0141155105AF
:10477000B1F7E901FB83EA8349915991C40FD51F31
:10478000EC17FD0761F4808191810296840F951FDB
:10479000E90199838883828193819B838A83F0E0F6
:1047A000E0E012968D919C9113970097B9F52D91A9
:1047B0003C911197CD010296820F931F20912707FC
:1047C000309128072817390739F6309751F510929C
:1047D0002A0710922907B0932807A0932707BCCF78
:1047E000D383C28340815181840F951FC817D90795
:1047F00061F44E5F5F4F88819981480F591F518343
:1048000040838A819B81938382832115310509F03E
:10481000B0CFF0932A07E09329079ECFFD01DC017A
:10482000C0CF13821282D7CFB0E0A0E0EAE1F4E279
:104830000C94E71F8C01009751F4CB010E94EF22EA
:104840008C01C801CDB7DEB7E0E10C940320FC0178
:10485000E60FF71F9C0122503109E217F30708F415
:104860009DC0D901CD91DC911197C617D70798F05B
:10487000C530D10530F3CE0104978617970708F3AA
:10488000C61BD70B2297C193D1936D937C93CF0115
:104890000E948B23D6CF5B01AC1ABD0A4C018C0E53
:1048A0009D1EA0912907B0912A07512C412CF12C73
:1048B000E12C109731F580912707909128078815F2
:1048C000990509F05CC04616570608F058C080915B
:1048D0001E0190911F01009741F48DB79EB7409142
:1048E000220150912301841B950BE817F90708F06A
:1048F00055C0F0932807E0932707F901718360837F
:10490000A0CF8D919C91119712966C90129713964F
:104910007C901397A815B90559F56C0142E0C40EB7
:10492000D11CCA14DB0420F1AC014A195B09DA017D
:104930001296159780F06282738251834083D90169
:104940006D937C93E114F10471F0D7011396FC93FD
:10495000EE93129776CF22968C0F9D1FF9019183CB
:104960008083F301EFCFF0932A07E093290769CF03
:104970004816590608F42C017D01D3019ACFCB01CA
:104980000E94EF227C01009749F0AE01B8010E941D
:10499000D624C8010E948B23870153CF10E000E08A
:1049A00050CF81E090E0F8940C941A25FB01DC01D3
:1049B00002C001900D9241505040D8F70895DC019B
:1049C00001C06D9341505040E0F70895FC01819182
:1049D000861721F08823D9F7992708953197CF01B9
:1049E0000895FB01DC018D91019080190110D9F32C
:1049F000990B0895FB01DC0101900D920020E1F775
:104A00000895FB01DC014150504030F08D91019040
:104A1000801919F40020B9F7881B990B0895FC013F
:104A200081E090E00190061609F4CF010020D1F753
:104A30000197089512E0C7E2D2E004C0FE010E948F
:0E4A4000C6222196C832D107C9F7F894FFCFDD
:104A4E00FFFFFFFF00E1000000000000FFFFFF007E
:104A5E00FF0096000100C1808100000039050000B2
:104A6E002B07800000000000040F040F040FA50D9B
:104A7E007108A10D9E0D9B0D00000000460DE00C6F
:104A8E00DE0CA50D7108A10D9E0DA904840A00313E
:104A9E0031295A1B750A02000300040005000600A6
:104AAE00070008000E000A0000003100F91830005F
:104ABE00FB302C001C472600825A1F006D6A17001F
:104ACE0041760E00897D04000000009A068406D609
:104ADE0006CB064F07DB062B07000000007408ED1F
:104AEE0008B208970800000000E2093809380AAC3D
:104AFE00040D0A004D4F44455F534F4C494400404E
:104B0E00003F004C45445F5057523A0031004C452F
:104B1E00445F4252543A004C45445F434F4C3A0076
:104B2E004C45445F4D4F443A004C45445F4155441B
:104B3E003A004D4F44455F42524541544845004D61
:104B4E004F44455F4348415345004D4F44455F52E6
:104B5E0041494E424F57004D4F44455F4F434541EB
:104B6E004E004D4F44455F46495245004D4F44451A
:104B7E005F4C415641004D4F44455F434C4F5544A9
:104B8E00004D4F44455F464F52455354004D4F44E0
:104B9E00455F5041525459004D4F44455F434F4E6F
:104BAE0046455454495F52004D4F44455F434F4E66
:104BBE0046455454495F43004D4F44455F53494E5B
:104BCE00454C4F4E004D4F44455F4A5547474C4567
:104BDE00004D4F44455F42504D004D4F44455F4D93
:104BEE004154524958004D4F44455F5457494E4B1E
:104BFE004C45004D4F44455F504F4C494345004D89
:0A4C0E004F44455F415544494F00F3
:00000001FF
