:100000000C941D020C9445020C9445020C9445027C
:100010000C9445020C9445020C9445020C94450244
:100020000C9445020C9445020C943B100C94AA10BD
:100030000C9445020C9445020C9445020C94450224
:100040000C9445020C9445020C9445020C94450214
:100050000C9445020C9445020C9445020C94F10F4B
:100060000C9445020C9445020C9445020C944502F4
:100070000C9445020C9445020C9445020C944502E4
:100080000C9445020C9445020C9445020C944502D4
:100090000C9445020C9445020C9445020C944502C4
:1000A0000C9445020C9445020C94450207634236B9
:1000B000B79BD8A71A39685618AEBAAB558C1D3CF9
:1000C000B7CC5763BD6DEDFD753EF6177231BF00BD
:1000D0000000803F05A84CCDB2D44EB93836A902F5
:1000E0000C50B9918688083CA6AAAA2ABE00000036
:1000F000803F080B00020202000009040000010218
:10010000020000052400100105240101010424025D
:1001100006052406000107058103100040090401BB
:1001200000020A00000007050202400000070583E4
:10013000024000000403090412010002EF02014022
:100140004123368000010102030141726475696E2A
:100150006F204C4C430053747265616D204465738D
:100160006B2050726F0000000000250028002B005B
:100170002E00310000000000240027002A002D007E
:100180003000000000002300260029002C002F0072
:10019000040404040403040502020202040302022C
:1001A000020206060606060604040202020404040D
:1001B0000802011040804010204080408008020466
:1001C00001804020100201108010204040200000DB
:1001D000000200090F0000030401000C00000000F1
:1001E00000000000000000000000000000AB00550F
:1001F000007C0084004B00B5001B00E5000017E800
:10020000000047B8000077AB0000ABAB000055AB77
:10021000000022DD000E00F2003E00C20071008FDF
:1002200000A1005F00D0002F00F90700000064006B
:1002300000006400002F6B55000064000000800087
:1002400000228B2200238E6B0000800000578B2E33
:1002500000AACD660032CD320032CD9A0090EE90E9
:100260000000FC7C00AACD6600228B2200FF00006B
:10027000008B0000008B0000008B0000008B000052
:10028000008B0000008B0000008B000000FF0000CE
:10029000008B000000EBCE8700EBCE8700E6D8ADE8
:1002A00000FFFFFF00E6D8AD00EBCE8700000000A6
:1002B0000000008000000000000000800000008BB3
:1002C0000000008B000000800000008B0000008B0D
:1002D0000000008B000000FF0000A5FF00FFFFFFF3
:1002E0000000A5FF000000FF0000008B00000000E0
:1002F000000000330000006600000099000000CC00
:10030000000000FF000033FF000066FF000099FFBF
:100310000000CCFF0000FFFF0033FFFF0066FFFF7F
:100320000099FFFF00CCFFFF00FFFFFF00701919CD
:10033000008B00000070191900800000008B000085
:1003400000CD000000578B2E0080800000A09E5F33
:1003500000FF0000008B8B0000ED956400D4FF7F50
:1003600000578B2E00FFFF0000FACE870055505F2C
:1003700000444F574E5F00434F554E543A0041558D
:1003800054485F4F4B3A0000000000000000002A74
:100390002B2800000000000000000000000000000A
:1003A000000000000000002C9EB4A0A1A2A434A66E
:1003B000A7A5AE362D3738271E1F2021222324253E
:1003C00026B333B62EB7B89F8485868788898A8BF3
:1003D0008C8D8E8F909192939495969798999A9BE5
:1003E0009C9D2F3130A3AD350405060708090A0B83
:1003F0000C0D0E0F101112131415161718191A1BC5
:100400001C1DAFB1B0B50005010906A101850205AB
:100410000719E029E7150025017501950881029566
:1004200001750881039506750815002573050719E0
:100430000029738100C02F13F61D11241FBECFEFBA
:10044000DAE0DEBFCDBF12E0A0E0B1E0E2E5F9E422
:1004500002C005900D92AE3CB107D9F724E0AEEC96
:10046000B2E001C01D92AC3BB207E1F712E0CCE173
:10047000D2E004C02197FE010E944822CB31D1076F
:10048000C9F70E94E9130C949C240C940000E0ED41
:10049000F3E09081989F090E90E0911D90839181E7
:1004A000989F090E90E0911D91839281989F090E6B
:1004B00090E0911D92831124339693E0E43FF90775
:1004C00041F70895CF93DF93FC01818190918104DE
:1004D000482F490F5527551F483051059CF5A281DB
:1004E000B381109709F52DE734E03383228320810F
:1004F00020937F048093800480918204820F808304
:1005000020918304A22FB09184048A2F821B891723
:10051000E8F481813D91C82FD0E0CD5EDE4F388375
:100520008F5F8183F2CFD90118962D913C91199755
:1005300021153105C1F72DE734E019963C932E9330
:100540001897D5CF80E0DF91CF91089581E0FBCF60
:10055000FC018091CF03882311F13FB7F89482E02A
:100560008093E9002091F200822F90E0181619067E
:1005700014F481E090E0882339F0289844E6409311
:10058000CE034091F1004083222339F02091F20004
:10059000211103C02BE62093E8003FBF08958FEFA1
:1005A0009FEF08953FB7F8948091CA039091CB03D1
:1005B000A091CC03B091CD0326B5A89B05C02F3FD9
:1005C00019F00196A11DB11D3FBFBA2FA92F982F79
:1005D0008827BC01CD01620F711D811D911D42E074
:1005E000660F771F881F991F4A95D1F708958F923C
:1005F0009F92AF92BF92CF92DF92EF92FF924B0108
:100600005C010E94D2026B017C010E94D2026C1933
:100610007D098E099F09683E734081059105A8F305
:1006200021E0821A9108A108B10888EEC80E83E083
:10063000D81EE11CF11C81149104A104B10429F716
:10064000FF90EF90DF90CF90BF90AF909F908F90F2
:1006500008952FB7F8946091C6037091C7038091F5
:10066000C8039091C9032FBF0895CF92DF92EF92F4
:10067000FF92CF93C82F0E9429036B017C0120E0D9
:100680003C2FA8E1B1E00E94C01F9B01AC01C70153
:10069000B6010E942422AC0166277727CA0133E005
:1006A000969587953A95E1F797709A0122273074CD
:1006B000232B31F02FEF37E0F901E81BF90BCF01C5
:1006C000E92FEE0FEE0FF0E0E459FE4F208131816B
:1006D00086959281899F200D311D112457FF03C0FB
:1006E00031952195310930584BE050E0249FB001FD
:1006F000359FC001E0E0349F700D811D9E1F259F36
:10070000700D811D9E1F1124620F731F8E1F9E1F6F
:10071000CF91FF90EF90DF90CF900895AF92BF926E
:10072000CF92DF92EF92FF920F931F93CF93DF93BD
:10073000D82E8091730490917404A0917504B091A7
:100740007604892B8A2B8B2BD9F00E94D202009140
:100750001C0410911D0420911E0430911F04601B85
:10076000710B820B930B0091730410917404209110
:100770007504309176046017710782079307C8F2F9
:100780000E94D20260931C0470931D0480931E0487
:1007900090931F04E0917B04F0917C04309759F012
:1007A00040917704509178046091790470917A04B3
:1007B0008D2D0995D82EC0911A04D0911B048AEF73
:1007C000E82E83E0F82E8701209749F184E00A3172
:1007D000180729F18D858823F1F0E881F981A28439
:1007E000B3840680F781E02DCE010995BC01CE01CE
:1007F000F5010995F80191838083809171049091AE
:1008000072048436910508F41C860C80DD81C02DAD
:100810000E5F1F4FD9CFF80111821082EECFC09129
:100820001A04D0911B0400E110E02097A9F08D85F7
:10083000882361F04E855F856A817B81E881F9813B
:100840000280F381E02D2D2DCE0109950C80DD81F4
:10085000C02D0150110949F7C0911A04D0911B0411
:100860002097C9F0FAE1EF16F4E0FF06A1F08D85BC
:10087000882351F0F70160817181E881F981048456
:10088000F585E02DCE0109950C80DD81C02DF2E0CB
:10089000EF0EF11CE5CF8091F8039091F903EC0184
:1008A0002196D093F903C093F8034997E4F10E948D
:1008B00029030091F4031091F5032091F603309180
:1008C000F7036B017C01C01AD10AE20AF30AA701FF
:1008D0009601211531054105510521F421E030E053
:1008E00040E050E088EE93E0C89FB001C99F700DD2
:1008F000D89F700D1124072E000C880B990B0E94B5
:100900009E1F30937204209371041092F903109289
:10091000F8030E9429036093F4037093F503809316
:10092000F6039093F703DF91CF911F910F91FF9002
:10093000EF90DF90CF90BF90AF90089580E991E065
:10094000089508954091E2025091E3022091E0025F
:100950003091E10242175307B4F49091E80095708A
:10096000E1F39091E80092FD19C08093F10080912D
:10097000E2029091E30201968F739927892B19F473
:100980008EEF8093E8008091E2029091E30201965D
:100990009093E3028093E20281E0089580E008955D
:1009A000EF92FF920F931F93CF93DF93F82E192F9F
:1009B000E62E042F81E0860F880F0E94A20483E0B8
:1009C0000E94A204CF2DD12FEC0EFD2EF11CCE15CE
:1009D000DF05B9F007FF13C0FE0184910E94A20455
:1009E000182F80E00E94A204812321968111EFCF6D
:1009F000DF91CF911F910F91FF90EF900895888123
:100A0000EDCF81E0F5CFDF92EF92FF920F931F932E
:100A1000CF93DF93D82E8A01EB017B01E40EF51E04
:100A2000CE15DF0559F0D7FE12C0FE0184910E9459
:100A3000A20421968111F4CF0FEF1FEFC801DF91BF
:100A4000CF911F910F91FF90EF90DF9008958881D3
:100A5000EECF2FB7F89487708093E9009091E8006B
:100A6000892F807295FF04C09091F20080E4891B69
:100A70002FBF08957F928F929F92AF92BF92CF9295
:100A8000DF92EF92FF920F931F93CF93DF93C82EC5
:100A90008B017A018091CF03811110C08FEF9FEFFE
:100AA000DF91CF911F910F91FF90EF90DF90CF904A
:100AB000BF90AF909F908F907F9008958091E602B5
:100AC00080FF05C08091E00082608093E000CE2D21
:100AD000DF2DD12C8AEFB82E8C2D8770982E8C2D7F
:100AE0008072882E8C2D8074782E9AE3A92E209700
:100AF00019F4DD2009F452C08C2D0E9429058111C2
:100B00000AC0BA94BB2051F261E070E080E090E04E
:100B10000E94F702ECCF8C171D0611F00CF08C2F01
:100B20009FB7F8949092E9002091E80025FD02C05B
:100B30009FBFDDCF282F30E0C21BD30B882029F0C8
:100B40008150A0F01092F100FBCFF801C7FC0AC061
:100B5000815050F041914093F100FACF449140937D
:100B6000F10031968150D0F7020F131FDD2021F0E4
:100B7000A092E800D12CDCCF8091E80085FD07C071
:100B8000A092E800DD24D394209791F2F3CF209730
:100B900079F6772069F2A092E800CACF5D9884E6E2
:100BA0008093E502C7017CCF615030F02091F100C5
:100BB000FC0120830196F8CF289884E68093CE0329
:100BC00008958091D80281110DC082E08093D402F3
:100BD00084E08093D5021092D7021092D60281E071
:100BE0008093D80284ED92E00895EF92FF921F93D4
:100BF000CF93DF931F92CDB7DEB77C0180918E0437
:100C000081112AC011E0109381041093820487E8B7
:100C100094E090938404809383041092860410924D
:100C2000850481EA91E090937E0480937D04109284
:100C300089041092880410928B0410928A041093F5
:100C40008C0410938D0481EC809387040E94E1054D
:100C50000E94620210938E0482E0898341E050E09A
:100C6000BE016F5F7F4F809180040E943A0597FD1F
:100C700008C08091800448E050E0B70180640E9481
:100C80003A050F90DF91CF911F91FF90EF9008955B
:100C90000F931F93CF93DF931F92CDB7DEB782E000
:100CA000898342E450E062EF70E080E80E9403052F
:100CB0000E94E105DC0112960D911C9101151105B0
:100CC00089F0D801ED91FC910280F381E02DBE0105
:100CD0006F5F7F4FC801099597FD04C0F80100853B
:100CE0001185ECCF89810F90DF91CF911F910F91EA
:100CF0000895CF93DF93EC0180910B01882331F0AD
:100D000083E00E943A051816190634F081E090E05D
:100D10009B838A8380E090E0DF91CF910895CF9309
:100D2000DF931F92CDB7DEB76983DC01ED91FC91B3
:100D30000280F381E02D41E050E0BE016F5F7F4F04
:100D400009950F90DF91CF9108950F931F93CF9343
:100D5000DF938C01D0E0C0E0F801EC0FFD1F64913F
:100D6000662341F080E294E00E948F06892B11F007
:100D70002196F2CFCE01DF91CF911F910F9108956F
:100D800083E08093E9008091F200882319F08AE3E0
:100D90008093E800089583E00E94290590E008957B
:100DA000CF93DF931F92CDB7DEB7FC018485958585
:100DB00097FD08C02FEF3FEF358724870F90DF9115
:100DC000CF910895CE0101960E94A802019719F4CF
:100DD000898190E0F3CF8FEF9FEFF0CF0F931F93B8
:100DE0000E942903609328047093290480932A04A5
:100DF00090932B0480E294E00E94D00697FF1DC0E0
:100E00000E942903009128041091290420912A04AA
:100E100030912B04601B710B820B930B0091240407
:100E20001091250420912604309127046017710742
:100E300082079307F8F28FEF9FEF1F910F910895AC
:100E40000F931F93CF93DF931F92CDB7DEB78C0123
:100E5000FC018485958597FF0BC0CE0101960E9409
:100E6000A802019771F4898190E0F8019587848741
:100E7000F801848595850F90DF91CF911F910F9197
:100E800008958FEF9FEFF1CFFC018485958597FD45
:100E90000BC09FB7F89482E08093E9008091F20044
:100EA0009FBF90E0019608959FB7F89482E08093E9
:100EB000E9008091F2009FBF90E00895DC01FB0102
:100EC0006C9111964C91119712967C91262F220FBE
:100ED000220F220F95E5822F899F080E80E0811D49
:100EE0001124562F5074362F307267FD60C0511197
:100EF00049C0311106C0982F9095282F892F90E076
:100F000004C025E5280F90E08BEA4F3FF1F0442321
:100F100009F46CC0409530E0442329F0449F312D02
:100F2000112441113F5F432F4095849F080E80E0BC
:100F3000811D249F020E20E0211D949F090E90E048
:100F4000911D1124830F230F930F7F3FB9F030E0E1
:100F5000772321F0779F312D09F03F5F332309F488
:100F600049C0839F080E80E0811D239F020E20E070
:100F7000211D939F090E90E0911D112480832183F0
:100F80009283089531110DC0922F2AEA929F090E83
:100F900090E0911D11242BEA291B922F2AEA280F99
:100FA000ADCF90E0282F2095982F80E0AECF511143
:100FB00011C031110BC0922F8AEA989F090E90E060
:100FC000911D11242BEA291B9B5AEFCF982F909546
:100FD00020E09BCF311106C025E5280F9BEA981B26
:100FE000822FF6CF2AEA280F30E0F9CF9FEF2FEFBC
:100FF0008FEFABCF90E020E080E0C0CFCF92DF92C8
:10100000EF9230E020E0FA01C080D180E280FC0164
:10101000C192D192E192CF012F5F3F4F62177307C8
:1010200091F7EF90DF90CF900895AF92BF92CF925B
:10103000DF92EF92FF920F931F93CF93DF9300D035
:101040001F92CDB7DEB75A0119821A821B828823FC
:1010500061F18B01E1E0F0E0E82EF12CD8012D9157
:101060008D012223F1F06F01B1E0CB1AD108D50137
:10107000AC0DBD1D4C914423A1F030E02F5F3F4FDC
:10108000D7010E94C01FA42FB0E011969B01AC01B4
:101090000E945C1FA1E0B0E0AC0FBD1FAC0DBD1DF8
:1010A0008C933196E430F105C9F669817A818B81A0
:1010B0000F900F900F90DF91CF911F910F91FF90A4
:1010C000EF90DF90CF90BF90AF90089581E090E0D7
:1010D0000895DC01FB0112962C9112978481958171
:1010E0002817190641F491818081813A31F49D7F5E
:1010F00081E0913009F080E008958132E1F79B3082
:1011000029F482811F968C9381E008959A3099F793
:10111000828150968C93F8CFDC01FB0188E48083B8
:1011200089E4818384E482831D969C911D979F703E
:101130009F5B93831D968D919C9124E09695879556
:101140002A95E1F78F708F5B848385E00895EF9295
:10115000FF920F931F93CF93DF93FB0120812138E0
:1011600071F52381223259F5DC0112964C912481CC
:1011700035814217130619F5EC010B851C85F12CFE
:10118000E12C0115110589F0F80144815581628136
:10119000738180E80E9403058F3F980749F0E80EAD
:1011A000F91ED8010D911C91ECCF81E08F87C7010A
:1011B000DF91CF911F910F91FF90EF90089590E0F4
:1011C00080E0F6CFCF93DF93CDB7DEB769970FB648
:1011D000F894DEBF0FBECDBFFC01DB018C918F5FA9
:1011E0008C939E012D5F3F4F8DE0D9011D928A9512
:1011F000E9F729E0298384E08A8391E09D8383E0F5
:101200008E832A8721E22B879C879D879F8722E2F6
:10121000288B27E02B8B25E02C8B8E8B20E430E075
:10122000388F2F8B998F82818B8395858685998BBB
:101230008A8B838180688D8B49E150E0BE016F5FAE
:101240007F4F80E00E94030569960FB6F894DEBFD9
:101250000FBECDBFDF91CF910895CF92DF92EF9275
:10126000FF920F931F93CF93DF936C01EB017B01F0
:10127000E40EF51E10E000E0CE15DF0581F0699167
:101280006D30D1F3D601ED91FC910190F081E02D0C
:10129000C6010995892B19F00F5F1F4FEDCFC801CB
:1012A000DF91CF911F910F91FF90EF90DF90CF9042
:1012B0000895DC01683888F1685816968C91169765
:1012C000861721F117968C9117978617F9F01896C3
:1012D0008C9118978617D1F019968C9119978617CB
:1012E000A9F01A968C911A97861781F01B968C910B
:1012F0001B97861759F0FD01369690E080E021910A
:1013000021114FC08A0F9B1FFC016683CD010496FB
:101310000E94F50581E090E00895862F90E067FF38
:1013200012C0FC01E058F10921E030E001C0220FB9
:10133000EA95EAF714968C911497822B14968C9365
:10134000149760E0BACF1C96ED91FC911D97E80FC1
:10135000F91F6491611109C081E090E013969C939C
:101360008E93129790E080E00895862F807C803CD9
:1013700069F414968C911497806414968C93149746
:101380006F73623309F099CF64E697CF67FFF9CFA7
:1013900014968C911497826014968C9314976F779F
:1013A000F0CF01968630910509F0A9CFD5CFEF9205
:1013B000FF921F93CF93DF93EC01162F0E945909E0
:1013C0007C01E8E7E10F183890F4812F90E017FFD7
:1013D0002AC0FC01E058F10981E090E001C0880FCB
:1013E000EA95EAF780959C8189238C83E0E0DE0111
:1013F00086E0EE2341F016969C911697E91303C000
:1014000016961C921697815011968111F2CFCE013B
:1014100004960E94F505C7019927DF91CF911F918E
:10142000FF90EF900895EC85FD85E80FF91FE4919A
:10143000EE2389F38E2F807C803C41F48C818F7B5E
:101440008C83EF73E23399F6E4E6D1CFE7FFFACF6E
:101450008C818D7F8C83EF77F5CF90E080E00895CD
:10146000CF93DF93EC010E942903688379838A83F9
:101470009B83DF91CF9108950F931F93CF93DF93B9
:101480002091D3022F5F322F37703093D30220FF89
:101490002BC020E831FD2064347009F02062205F09
:1014A000FC01EC01239600E011E06785662329F03A
:1014B00070E0C8010E9434226F5F6187822F869F8F
:1014C000080E80E0811D1124811110C01682662350
:1014D00011F0615061873196EC17FD0731F7DF910C
:1014E000CF911F910F91089520E0D4CF8150868332
:1014F000EECF4F925F927F928F929F92AF92BF9268
:10150000CF92DF92EF92FF920F931F93CF93DF93CF
:101510002C01EB010E94D202F20126893789621B5D
:10152000730B6A307105B0F3F8948A819B811816A9
:1015300019060CF0CDC1E881F98165B1862E689459
:1015400085F835B13F7D35B9DA848F812D2D281B83
:10155000822F2F834C85042E000C550BAA81BB8152
:101560007889FF84E9887F5FF394E3949E8198846F
:10157000B984AB841181C12C6C2D0C2D2C2D2181B3
:10158000112788942111280F08F42FEF8195889452
:1015900070FD120F1795889471FD120F179588949E
:1015A00072FD120F1795889473FD120F179588948A
:1015B00074FD120F1795889475FD120F1795889476
:1015C00076FD120F1795889477FD120F1795889462
:1015D000622F7111612F8D0D162F002C85B800C060
:1015E00017FF35B920816627889400C000C0002C01
:1015F00035B92111290F00C0002C85B800C016FF95
:1016000035B908F42FEF9195889400C000C0002CE4
:1016100035B9F0FC620F00C0002C85B800C015FF82
:1016200035B967958894F1FC620F00C000C0002CAA
:1016300035B96795889400C0002C85B800C014FFA8
:1016400035B9F2FC620F6795889400C000C0002C89
:1016500035B9F3FC620F00C0002C85B800C013FF41
:1016600035B967958894F4FC620F00C000C0002C67
:1016700035B96795889400C0002C85B800C012FF6A
:1016800035B9F5FC620F6795889400C000C0002C46
:1016900035B9F6FC620F00C0002C85B800C011FF00
:1016A00035B967958894F7FC620F00C000C0002C24
:1016B00035B96795889400C0002C85B800C010FF2C
:1016C00035B9122FF110162F9B0D00C000C0002C51
:1016D00035B900C000C0002C85B800C017FF35B96F
:1016E00022816627889400C000C0002C35B92111E2
:1016F000290D00C0002C85B800C016FF35B908F4CC
:101700002FEFE40FF51F00C000C0002C35B9E0FC3E
:10171000620F00C0002C85B800C015FF35B9679571
:101720008894E1FC620F00C000C0002C35B96795B9
:10173000889400C0002C85B800C014FF35B9E2FCC5
:10174000620F6795889400C000C0002C35B9E3FC97
:10175000620F00C0002C85B800C013FF35B9679533
:101760008894E4FC620F00C000C0002C35B9679576
:10177000889400C0002C85B800C012FF35B9E5FC84
:10178000620F6795889400C000C0002C35B9E6FC54
:10179000620F00C0002C85B800C011FF35B96795F5
:1017A0008894E7FC620F00C000C0002C35B9679533
:1017B000889400C0002C85B800C010FF35B9122FE6
:1017C000E110162F919400C000C0002C35B99A0C7E
:1017D00000C000C085B800C017FF35B92181662759
:1017E000889400C000C0002C35B92111280F00C01A
:1017F000002C85B800C016FF35B908F42FEF81958D
:10180000889400C000C0002C35B970FD620F00C084
:10181000002C85B800C015FF35B96795889471FD17
:10182000620F00C000C0002C35B96795889400C0D5
:10183000002C85B800C014FF35B972FD620F6795A2
:10184000889400C000C0002C35B973FD620F00C041
:10185000002C85B800C013FF35B96795889474FDD6
:10186000620F00C000C0002C35B96795889400C095
:10187000002C85B800C012FF35B975FD620F679561
:10188000889400C000C0002C35B976FD620F00C0FE
:10189000002C85B800C011FF35B96795889477FD95
:1018A000620F00C000C0002C35B96795889400C055
:1018B000002C85B800C010FF35B9122F7111162FFA
:1018C0008D0D00C000C0002C35B9119709F086CEEF
:1018D000EA81FB812EE130E0DF010E94562230E0F8
:1018E00020E0A901AAE9EA9F0E0E411DFA9F400DD2
:1018F000511D11244F0F511DDC01CB01840F951F89
:10190000A11DB11D893E43E09407A105B10508F46E
:1019100034C0885E9340A109B10942E0B695A7950D
:10192000979587954A95D1F747E0849F080E211D2A
:10193000949F200D311D1124290F311D6091D20279
:1019400070E0860F971F820F931F4091C60350913E
:10195000C7036091C8037091C903292F3327420F31
:10196000531F611D711D4093C6035093C7036093BD
:10197000C8037093C9038093D20278940E94D20264
:10198000F201778B668BDF91CF911F910F91FF90C2
:10199000EF90DF90CF90BF90AF909F908F907F900F
:1019A0005F904F900895259A08956F927F928F923D
:1019B000CF92DF92EF92FF920F931F93CF93DF931B
:1019C000CDB7DEB762970FB6F894DEBF0FBECDBFBE
:1019D0008C016B017A01822FA801475F5F4FB8012C
:1019E0006A5F7F4F0E9415083B01882ED8011C9624
:1019F0002C91C701F7FE04C0882799278E199F09EB
:101A0000DA82C9829C838B839E838D83688A798ADC
:101A10008A8A213049F5CE0101960E943C0A83E072
:101A20008D871F861E86F7FE02C08DEF8D87D80139
:101A3000ED91FC910088F189E02DBE016F5F7F4F31
:101A4000C801099562960FB6F894DEBF0FBECDBFF0
:101A5000DF91CF911F910F91FF90EF90DF90CF908A
:101A60008F907F906F9008951C861B861A8619862A
:101A700018861F82D4CFCF92DF92EF92FF920F93FE
:101A80001F93CF93DF93CDB7DEB762970FB6F8946D
:101A9000DEBF0FBECDBF8C016B017A01822FA80182
:101AA000475F5F4FB8016A5F7F4F0E9415089B0137
:101AB000482FD8011C968C91DA82C982FC82EB8275
:101AC000FE82ED82288B398B4A8B813009F5CE015D
:101AD00001960E943C0A1D861F861E86D801ED9144
:101AE000FC910088F189E02DBE016F5F7F4FC80136
:101AF000099562960FB6F894DEBF0FBECDBFDF9199
:101B0000CF911F910F91FF90EF90DF90CF900895AC
:101B10001C861B861A86198618861F82DCCF0895BC
:101B200090E080E00895FC0164870895FC018485BD
:101B300090E00895FC01868597850895CF92DF9205
:101B4000EF92FF921F93CF93DF93EC010E94290342
:101B5000C880D980EA80FB80DC01CB018C199D090B
:101B6000AE09BF09CC80DD80EE80FF8011E08C15CE
:101B70009D05AE05BF0508F410E08C159D05AE056A
:101B8000BF0518F0CE010E94300A812FDF91CF915E
:101B90001F91FF90EF90DF90CF9008954F925F924A
:101BA0006F927F928F929F92AF92BF92CF92DF926D
:101BB000EF92FF920F931F93CF93DF93A0EDB3E0CB
:101BC000EA012496182F12951F70982F9F7074E0C9
:101BD000179F90011124FA01E20FF31FC590D590D1
:101BE000E590F490270166247724E42D8D2C9E2C1B
:101BF000AF2CBB24782D0C2D992309F42FC0FA01AA
:101C00001F3019F0FE01E20FF31F05911591259188
:101C10003491E22F712F9295907F292F2095342DAA
:101C2000329F030E30E0311DE99F0E0EE0E0E11D12
:101C3000E30F382D329F030E30E0311D799F070EE0
:101C400070E0711D730F3C2D329F030E30E0311D8B
:101C5000099F000E00E0011D030F1124EC93119663
:101C60007C93119712960C931297860F139693E01C
:101C7000A43FB90709F0A6CFDF91CF911F910F9133
:101C8000FF90EF90DF90CF90BF90AF909F908F909C
:101C90007F906F905F904F9008958F929F92AF9238
:101CA000BF920F931F93CF93DF93CDB7DEB7A1976A
:101CB0000FB6F894DEBF0FBECDBF19A2423008F4B4
:101CC0004AE08E010F5D1F4F842E912CB12CA12C68
:101CD000A50194010E949E1FE62FB901CA01EA30B6
:101CE00044F5E05DD801EE938D01232B242B252BA9
:101CF00079F790E080E0109769F0FD0101900020F5
:101D0000E9F73197AF014A1B5B0BBD0180E294E01C
:101D10000E947906A1960FB6F894DEBF0FBECDBF24
:101D2000DF91CF911F910F91BF90AF909F908F90B7
:101D30000895E95CD7CFCF92DF92EF92FF92CF93D5
:101D4000DF9397FF1BC06B017C016DE280E294E0A2
:101D50000E948F06EC0166277727CB016C197D095D
:101D60008E099F094AE00E944D0E8C0F9D1FDF9146
:101D7000CF91FF90EF90DF90CF9008954AE0DF91F0
:101D8000CF91FF90EF90DF90CF900C944D0E42E0FA
:101D900050E065EB71E080E294E00C947906CF931B
:101DA000DF93BC01990F880B990B0E949B0EEC01ED
:101DB0000E94C70E8C0F9D1FDF91CF910895CF9386
:101DC000DF93EC0188819981009711F00E940D2327
:101DD000198218821D821C821B821A82DF91CF9188
:101DE0000895FC0180819181009711F00C940D23DE
:101DF00008950E945324FC0180819181009711F085
:101E00000C94FA1D60E070E0CB010895FB01448161
:101E10005581FC01248135812417350778F08081B4
:101E20009181009759F0FB01608171816115710505
:101E300029F00E94832421E0892B09F020E0822FE1
:101E40000895FC0124813581232B39F421E0FB0125
:101E50008081882349F020E007C0808191810E9421
:101E6000732421E0892BB9F7822F08950F931F93D4
:101E7000CF93DF93EC0188819981009759F02A81F3
:101E80003B812617370730F081E0DF91CF911F911A
:101E90000F9108958B016F5F7F4F0E9496230097EB
:101EA00059F0998388831B830A832C813D81232BDE
:101EB00059F7FC011082E8CF80E0E7CFEF92FF9264
:101EC0000F931F93CF93DF93EC017B01198218824C
:101ED0001B821A821D821C82FB0101900020E9F7FF
:101EE00031978F01061B170BB8010E94360F811125
:101EF00009C0CE01DF91CF911F910F91FF90EF901C
:101F00000C94DF0E1D830C83B70188819981DF91CA
:101F1000CF911F910F91FF90EF900C947C249F9292
:101F2000AF92BF92CF92DF92EF92FF920F931F93E7
:101F3000CF93DF937C016B015A0189012417350788
:101F400020F48B2D5901042F182F67EB71E0C70186
:101F50000E945E0FD6011496CD91DC91AC16BD06A1
:101F600050F50C171D0708F4E801D601ED91FC911E
:101F70001197EC0FFD1F908010820D911C910A0D9E
:101F80001B1D0115110571F0F80101900020E9F702
:101F900031975F01A01AB10AB501C7010E94360F3F
:101FA000811116C0C7010E94DF0ED6018D919C9150
:101FB000C80FD91F9882C701DF91CF911F910F9150
:101FC000FF90EF90DF90CF90BF90AF909F900895DB
:101FD000F701B582A482B801808191810E947C249E
:101FE000E4CF1F920F920FB60F9211242F933F93BD
:101FF0008F939F93AF93BF938091C6039091C70334
:10200000A091C803B091C9033091C50323E0230F09
:102010002D3758F50196A11DB11D2093C50380935E
:10202000C6039093C703A093C803B093C9038091DC
:10203000CA039091CB03A091CC03B091CD0301963C
:10204000A11DB11D8093CA039093CB03A093CC0331
:10205000B093CD03BF91AF919F918F913F912F91FD
:102060000F900FBE0F901F90189526E8230F029631
:10207000A11DB11DD2CF1F920F920FB60F92112446
:102080008F939F938091E1009091E100937F9093D3
:10209000E10083FF0FC01092E90091E09093EB0004
:1020A0001092EC0092E39093ED001092CF0398E031
:1020B0009093F00082FF22C093E09093E90090910A
:1020C000F200992319F09AE39093E8009091E502C9
:1020D000992341F09091E50291509093E50291117E
:1020E00001C05D9A9091CE03992341F09091CE0367
:1020F00091509093CE03911101C0289A84FF18C08B
:102100008091E2008E7E81608093E2008091E10008
:102110008F7E8093E1008091E6028E7E80618093C5
:10212000E6029F918F910F900FBE0F901F90189510
:1021300080FFF7CF8091E2008E7E80618093E20085
:102140008091E1008E7E8093E1008091E6028E7E98
:102150008160E5CF1F920F920FB60F921124CF929C
:10216000DF92EF92FF920F931F932F933F934F9322
:102170005F936F937F938F939F93AF93BF93EF93EF
:10218000FF93CF93DF93CDB7DEB76C97DEBFCDBFA4
:102190001092E9008091E80083FF25C068E0CE013D
:1021A00045960E94D40582EF8093E8008D8987FFD1
:1021B00039C09091E80090FFFCCF982F907609F0FD
:1021C00034C19E894F89588D2F89F88C911131C067
:1021D000803861F58091E7028093F1001092F10060
:1021E0008EEF8093E8006C960FB6F894DEBF0FBEBA
:1021F000CDBFDF91CF91FF91EF91BF91AF919F91B3
:102200008F917F916F915F914F913F912F911F918E
:102210000F91FF90EF90DF90CF900F900FBE0F9037
:102220001F9018959EEF9093E800C7CF1092F10091
:10223000D5CF913059F48111D3CF4130510581F67A
:102240008091E7028D7F8093E702CACF933049F4F3
:102250008111C6CF4130510519F68091E7028260A5
:10226000F2CF953041F48091E80080FFFCCF2068E8
:102270002093E300B5CF963009F0A9C00B8D1C8DDB
:1022800022E01092E9001092E3021092E202F212B0
:102290002EC01092E1021092E0020E9448061F82B6
:1022A00099E09983FA8291E09E8390EA98879AEF69
:1022B00099872091E2023091E302275F3F4F3C83F0
:1022C0002B838D831092E9001092E3021092E202B8
:1022D0001093E1020093E00249E050E0BE016F5F1D
:1022E0007F4F80E00E9403050E94480679CF10933B
:1022F000E1020093E0020E94E105DC0112960D91DB
:102300001C910115110509F451C1D801ED91FC9101
:102310000480F581E02DBE016B5E7F4FC8010995F9
:10232000009709F03EC1F80100851185EACFF3E07E
:10233000FF120EC08F89882309F440C0823061F4F7
:1023400040E86FE086E591E00E94D004811148CF1B
:1023500081E28093EB0047CF813029F440E86BE0C5
:102360008AE491E0F1CF833099F70E94E105DC0126
:102370001296ED90FC908E010F5F1F4F6801E114E3
:10238000F10479F0D701ED91FC910680F781E02D01
:10239000B801C7010995080F111DF701E084F18408
:1023A000EECFD8011C92F60101900020E9F7319799
:1023B000BF016C197D0940E0C601C6CF64E371E03E
:1023C000FB01449150E080E80E94030509CF97305B
:1023D00009F4BECF983021F481E08093F10000CF62
:1023E000993009F0FDCE837009F0B2CFE4E1F1E05D
:1023F00081E031E096E32191222371F08093E9009E
:102400003093EB00DF0111972C912093EC00909317
:10241000ED008F5F873079F78EE78093EA001092A6
:10242000EA008F898093CF03DBCE8B8D9C8D109239
:10243000E9001092E3021092E2029093E10280938D
:10244000E002898D811192C08E899D89913A49F46B
:10245000813209F07DCF47E050E064E071E080E038
:10246000B3CF913209F074CF833269F48F89988D9C
:10247000B0E0A0E08093000190930101A0930201DD
:10248000B0930301ADCE803269F48091E80082FF01
:10249000FCCF67E084E091E00E94D4058BEF80934D
:1024A000E8009ECE823209F09BCE8F8980930B018B
:1024B000EEEFFFE7859194918B3F9C4D51F1E0E069
:1024C000F8E08091040190910501A0910601B0917E
:1024D0000701803B9440A105B105F1F480910B0107
:1024E00080FD1AC0EE3F8AE0F80789F587E797E795
:1024F00091838083809160008093E40288E19BE077
:102500000FB6F894A895809360000FBE909360007A
:1025100067CEEEEFFAE0D5CF80819181873797477C
:1025200009F05ECEA895809160008861809360007C
:102530008091E40280936000EE3F2AE0F20789F088
:102540008091FE0A9091FF0A9183808349CE808119
:1025500091818737980751F29093FF0A8093FE0A82
:10256000C5CF1092FF0A1092FE0A3ACE0E94E105F2
:10257000DC0112960D911C910115110509F4E8CEAC
:10258000D801ED91FC910190F081E02DBE016B5ED0
:102590007F4FC8010995811123CEF801008511856F
:1025A000EBCF181619060CF41BCED2CEF1E0FF12B9
:1025B000BECE68E371E004CF40911A0150911B0137
:1025C00085E098E0489F9001499F300D589F300D5D
:1025D0001124275E394C30931B0120931A01ACE083
:1025E000B0E00E94C01F0895E4EAF4E0168217826A
:1025F0001086118612861386148288EA94E00C9461
:10260000F505FC01DB019C918081890F08F48FEFB7
:10261000808311969C9111978181890F08F48FEF27
:10262000818312969C918281890F08F48FEF8283B7
:10263000CF01089540911A0150911B0125E038E027
:10264000429FC001439F900D529F900D1124875EC1
:10265000994C90931B0180931A01890F0895CF9391
:10266000109223041092220488EE93E0A0E0B0E0E0
:102670008093240490932504A0932604B093270408
:102680008FE891E090932104809320048FEF9FEFD7
:1026900090932D0480932C04809370041092720404
:1026A0001092710410927C0410927B048FEF9FEFC4
:1026B000DC018093770490937804A0937904B0931D
:1026C0007A0410927304109274041092750410929C
:1026D00076041092A7041092A6048DEA91E09093DC
:1026E000A5048093A40480919C04811113C01092CE
:1026F00097041092960487E094E090939904809355
:1027000098048FE290E090939B0480939A0481E078
:1027100080939C0480918E0481112AC0C1E0C093F3
:102720008104C093820487E894E0909384048093AA
:102730008304109286041092850481EA91E09093BC
:102740007E0480937D041092890410928804109274
:102750008B0410928A04C0938C04C0938D0481EC86
:10276000809387040E94E1050E946202C0938E0458
:10277000E0918804F0918904309711F586E994E09E
:10278000909389048093880480918A0490918B04AB
:1027900020919A0430919B04820F931F90938B0495
:1027A00080938A0487E893E09093B1048093B00407
:1027B00068EB71E082EB94E0CF910C945E0FFC012A
:1027C000808191810097D9F786E994E09183808395
:1027D000DBCFCF93DF93CDB7DEB7E6970FB6F89494
:1027E000DEBF0FBECDBF789484B5826084BD84B552
:1027F000816084BD85B5826085BD85B5816085BDFC
:1028000080916E00816080936E00109281008091B3
:10281000810082608093810080918100816080933B
:102820008100809180008160809380008091910080
:1028300082608093910080919100816080939100EB
:10284000809190008160809390008091C1008460AD
:102850008093C1008091C10082608093C10080910B
:10286000C10081608093C1008091C300816080932A
:10287000C3008091C00082608093C0008091C2003C
:1028800081608093C20080917A00846080937A0096
:1028900080917A00826080937A0080917A008160D2
:1028A00080937A0080917A00806880937A001092F9
:1028B000CF031092E7021092E6028091D700816068
:1028C0008093D70080EA8093D80089B5806189BD64
:1028D00089B5826089BD09B400FEFDCF61E070E07A
:1028E00080E090E00E94F7028091D8008F7C8061A8
:1028F0008093D8008091E000807F8093E0008091F9
:10290000E1008E7E8093E1008DE08093E200559A95
:10291000209A8FEF9FEF90932D0480932C0487E8EB
:1029200093E09093B1048093B0040E9429036B015B
:102930007C0110910B016AE070E080E090E00E9461
:10294000F70211110BC00E9429036C197D098E0931
:102950009F09683B7B408105910558F32DEA33E0E0
:10296000A4E5B1E08D919D919927FC01E155FE4FC1
:10297000449180579E4FFC0184918823D1F090E0D0
:10298000880F991FFC01EC58FE4F65917491FC0172
:10299000EA59FE4F059114919FB7F894FB015081BD
:1029A000842F809585238083F8018081482B408384
:1029B0009FBFF90111929F01F1E0AC36BF0791F67C
:1029C00080910203811157C01092ED021092EC0227
:1029D0008FEF8093F0028093F1028093F202809354
:1029E000F3028093F4028093F50281E08093F60273
:1029F0008093F7021092F9021092F80280E797E1B3
:102A00009093FB028093FA0283E090E09093FD02A2
:102A10008093FC021092FF021092FE021092EF02CD
:102A20001092EE0280911A0490911B04892B31F4CC
:102A30008AEE92E090931B0480931A04E091E802DE
:102A4000F091E902309721F08AEE92E09583848339
:102A50008AEE92E09093E9028093E80210920103DB
:102A6000109200038AE391E09093EB028093EA02D4
:102A700081E080930203259A80ED93E09093ED022C
:102A80008093EC028CE090E09093F9028093F8023E
:102A90008091730490917404A0917504B0917604B0
:102AA000843C29E09207A105B10520F484EC99E06B
:102AB000A0E0B0E08093730490937404A093750435
:102AC000B09376048FEF8093F00280EB8093F10255
:102AD00080EF8093F202809110018093700419E1DD
:102AE000412E512C612C712C8E010F5C1F4F80E206
:102AF00094E00E944407181619060CF06FC067EBAB
:102B000071E0C8010E945E0F0E94EE0697FD1EC094
:102B10008A309105D9F089831A82EDA8FEA84FEF7B
:102B2000E41AF40AB701C8010E94360F882361F342
:102B300029A93AA98DA99EA9BE016F5F7F4F820F77
:102B4000931F0E947C24FEAAEDAADECFA9A8BAA8F2
:102B5000A114B10439F0EDA8FEA86501E114F10457
:102B600009F077C063EC71E0CE0101960E945E0F20
:102B7000BE016F5F7F4FC8010E94060FF82ECE0185
:102B800001960E94F10EFF2009F49BC02DA93EA9D9
:102B900041E050E0B801CE0101960E948F0FCE01B6
:102BA00001960E94FB0E6B01CE0101960E94F10E70
:102BB0008EE793E00E94A506B601660F771F6C0DA5
:102BC0007D1D615D7B4F072E000C880B990B0E94C9
:102BD0009B0E0E94C70EC8010E94F10E6DEAC62E20
:102BE00063E0D62E74E5A72E71E0B72EF12CE12C10
:102BF000D5012D913D915D013327F901E253FE4F3F
:102C00009491F901E155FE4F849120573E4FF9010F
:102C10002491222309F493C3992309F402C3915008
:102C20009F3008F0FEC2E92FF0E0E75EF94E0C9409
:102C300048227A197E190C1972197619111911196D
:102C40001119811987198B198F199519111999194A
:102C5000640146018FEF881A980AD6018C91082EDC
:102C6000000C990B0E94361E892B91F7B1E0EB1AEC
:102C7000F108EA0CFB1CF7018081082E000C990B6F
:102C80000E94361E892B39F0EC14FD0420F0F1E08F
:102C9000EF1AF108F0CFA7014F5F5F4F4C195D09A4
:102CA0005EAB4DABAC14BD0420F4B601C5010E946F
:102CB0005824E9A9FAA98DA99EA9E80FF91F108245
:102CC00051CF65EC71E0C8010E94210F882349F0C3
:102CD00087E793E00E94A5068CE090E00E94CF0E6B
:102CE0007ACF67EC71E0CE0101960E945E0FBE01C3
:102CF0006F5F7F4FC8010E94060FF82ECE0101962C
:102D00000E94F10EFF2009F43FC02DA93EA948E022
:102D100050E0B801CE0101960E948F0F60ED71E086
:102D2000CE0101960E94210FF82E81E0F11001C022
:102D300080E080931201CE0101960E94F10EF11005
:102D40004ACFE0901A04F0901B04E114F104B9F0AA
:102D5000D70112968D919C911397009761F01E9662
:102D60002D913C91A901440F551F420F531F70E054
:102D700060E00E946124F701E480F580E6CF809155
:102D800070040E948E0327CF62ED71E0CE010196A0
:102D90000E945E0FBE016F5F7F4FC8010E94060F49
:102DA000F82ECE0101960E94F10EFF20C9F02DA948
:102DB0003EA948E050E0B801CE0101960E948F0F75
:102DC000CE0101960E94FB0EF62EF0921001709338
:102DD0001101CE0101960E94F10EF0927004FBCE1B
:102DE0006BED71E0CE0101960E945E0FBE016F5F38
:102DF0007F4FC8010E94060FF82ECE0101960E9457
:102E0000F10EFF2009F472C0ADA8BEA8A114B10450
:102E100039F1C9A8DAA86CE270E0C6010E94682402
:102E20007C01EC18FD08892B19F4EE24EA94FE2CA1
:102E3000F601EA0DFB1D90801082C9A8DAA86CE2A9
:102E400070E0C6010E949124CA0CDB1CF60190823E
:102E5000009749F029A93AA96C01C21AD30A06C001
:102E6000EE24EA94FE2CCC24CA94DC2C970148E092
:102E700050E0B801CE0101960E948F0FCE0101965D
:102E80000E94FB0E7093C4036093C303CE010196AE
:102E90000E94F10EA7014F5F5F4F9601B801CE016E
:102EA00001960E948F0FCE0101960E94FB0E709337
:102EB0000F0160930E01CE0101960E94F10E2DA923
:102EC0003EA9A6014F5F5F4FB801CE0101960E9457
:102ED0008F0FCE0101960E94FB0E70930D0160933F
:102EE0000C01CE0101960E94F10E75CE64EE71E0E8
:102EF000CE0101960E945E0FBE016F5F7F4FC80139
:102F00000E94060FF82ECE0101960E94F10EFF20BE
:102F100009F441C02DA93EA948E050E0B801CE0116
:102F200001960E948F0F8091B2049091B304009794
:102F3000D9F069817A8161157105A1F04091B404DD
:102F40005091B5042D813E814217530758F00E94DD
:102F50007C248D819E819093B7048093B6041E8259
:102F60001D82BFCF0E940D2389819A819093B30463
:102F70008093B2048B819C819093B5048093B404B8
:102F80008D819E819093B7048093B6041A82198232
:102F90001C821B82E4CF6DEE71E0CE0101960E948F
:102FA0005E0FBE016F5F7F4FC8010E94060FF82EB3
:102FB000CE0101960E94F10EFF2091F02DA93EA9AD
:102FC00048E050E0B801CE0101960E948F0FCE017B
:102FD00001960E94FB0E7093C2036093C10381CFE0
:102FE0008DA99EA9019709F0F6CDE9A9FAA9309714
:102FF00021F410920A03EAE0F3E080819FEB980F3E
:10300000973108F0E8CD813489F462E884EA94E0ED
:103010000E94590968E270E080E090E00E94F702A7
:103020006AE784EA94E00E94590935C0823469F461
:1030300062E884EA94E00E94590968E270E080E066
:1030400090E00E94F70269ECECCF62E8833409F467
:10305000B5C062E8843409F49DC062E8853409F49F
:1030600085C0863409F562E884EA94E00E94590933
:1030700062E370E080E090E00E94F70264EC84EA92
:1030800094E00E94590964E670E080E090E00E94BC
:10309000F7020E94F41266E970E080E090E00E947E
:1030A000F7020E94F41297CD873469F462E884EA4B
:1030B00094E00E94590968E270E080E090E00E948C
:1030C000F70262E7AECF883491F461E884EA94E0D5
:1030D0000E94590962E884EA94E00E94590968E272
:1030E00070E080E090E00E94F7026BEC9ACF8934A8
:1030F00069F460E884EA94E00E94590968E270E0AB
:1031000080E090E00E94F7026AEC8BCF8A3491F461
:1031100060E884EA94E00E94590961E884EA94E056
:103120000E94590968E270E080E090E00E94F70296
:103130006DE677CF8B3471F28C3469F462E884EAFF
:1031400094E00E94590968E270E080E090E00E94FB
:10315000F70262EC66CF8D3409F4A8CF8E3491F477
:1031600060E884EA94E00E94590961E884EA94E006
:103170000E94590968E270E080E090E00E94F70246
:1031800066EC4FCF8F3491F460E884EA94E00E94BB
:10319000590961E884EA94E00E94590968E270E004
:1031A00080E090E00E94F70267EC3BCF803591F41D
:1031B00060E884EA94E00E94590961E884EA94E0B6
:1031C0000E94590968E270E080E090E00E94F702F6
:1031D00068EC27CF9FEA980F923008F444CF8335EC
:1031E00031F460E884EA94E00E94590921CF66E74F
:1031F000843509F416CF60E8853519F0863531F449
:1032000061E884EA94E00E94590950CF60E884EABA
:1032100094E00E945909F4CF909180009F77909399
:103220008000E22FF0E0EE0FFF1FEE57FE4FA5915A
:10323000B491EC918E2331E020E009F430E0832F4B
:10324000922F9C01F1E02F27422F4170942ED6013E
:103250002D916D01421799F0892B09F073C081E718
:1032600093E00E94A506C7010E94CF0EF601319798
:1032700090826EE170E080E090E00E94F702BFEF84
:10328000EB1AFB0AECE0EE16F10409F0B1CC8091E8
:1032900012018823F9F068EB71E082EB94E00E9460
:1032A000210F882309F451C080910C0190910E01E7
:1032B0002091C30329839A838B83AE014F5F5F4FB5
:1032C0006CE070E080ED93E00E94FE078091700456
:1032D0000E948E0380E090E0892B09F408CC0E94C4
:1032E000000002CC909180009F7D99CF909180004A
:1032F000977F95CF94B59F7794BD93CF94B59F7DDD
:10330000FBCF909190009F77909390008ACF9091FF
:1033100090009F7DF9CF90919000977FF5CF90918D
:10332000C0009F779093C0007CCF9091C0009F7D9C
:10333000F9CF9091C200977F9093C20072CF90E036
:1033400080E07FCF8DE693E08CCF66EF71E082EB7B
:1033500094E00E94210F882309F457C00E9429039A
:103360000E943F1E20E030E04AEF54E40E943C20DF
:103370002BED3FE049E450E40E947C1E0E94BB21FB
:103380000E94B6206B017C0180910C0190910E018E
:103390002091C30329839A838B83AE014F5F5F4FD4
:1033A0006CE070E080ED93E00E94FE0722EB3AE5CE
:1033B0004CEB5EE3C701B6010E94CF1F20E030E076
:1033C00048ED52E40E947C1E0E94E8209B01AC0163
:1033D0008091100190911101092E000CAA0BBB0BDA
:1033E000BC01CD016A507109810991090E94242212
:1033F0002FEF30E040E050E00E943D1F265F3F4F3E
:103400004F4F5F4F2093700461CF63E072E082EB17
:1034100094E00E94210F8823E1F08BEE0E94470286
:103420008EE190E00E94350320910C0130910E0155
:10343000FC01EE0FFF1FE80FF91FE053FC4F8091D6
:10344000C3038083318322838091100180937004B1
:103450003DCF6EE072E082EB94E00E94210F882362
:1034600009F43FC0B090AC03B9828FEF8B8380EF3B
:103470008A8380EDC82E83E0D82E94EFE92E93E066
:10348000F92EB601CE0101960E945E078981895FFF
:103490008983F3E0CF0ED11CEC14FD0491F78091E9
:1034A000A403811113C08CE993E00E94300A84E1E7
:1034B00090E0A0E0B0E08093A0039093A103A093DC
:1034C000A203B093A30381E08093A4038CE993E06B
:1034D0000E949E0D882309F4B7CFB394B092AC0339
:1034E000B3CF6BE172E082EB94E00E94210F88235E
:1034F00041F1F090AC034DE253E06AE08F2D0E9461
:10350000CE0D80919403811113C08CE893E00E944A
:10351000300A8EE190E0A0E0B0E0809390039093B9
:103520009103A0939203B093930381E0809394035B
:103530008CE893E00E949E0D882309F485CFF394D4
:103540002CC066E272E082EB94E00E94210F882397
:1035500039F1F090AC034DEE52E06FE08F2D0E94F8
:10356000CE0D8091840381110FC08CE793E00E94FF
:10357000300A4092800350928103609282037092DD
:10358000830381E0809384038CE793E00E949E0D87
:10359000F394F394882309F457CFF092AC0354CFFB
:1035A00060E372E082EB94E00E94210F8823F1F047
:1035B000F090AC034DEA52E06FE08F2D0E94CE0DEB
:1035C0008091740381110FC08CE693E00E94300A51
:1035D0004092700350927103609272037092730371
:1035E00081E0809374038CE693E0D0CF6AE372E0CD
:1035F00082EB94E00E94210F882311F1F090AC033C
:103600004DE652E06AE08F2D0E94CE0D809164035A
:10361000811113C08CE593E00E94300A8EE190E0A6
:10362000A0E0B0E08093600390936103A0936203F5
:10363000B093630381E0809364038CE593E07ACFD9
:1036400065E472E082EB94E00E94210F882311F17F
:10365000F090AC034DE252E06AE08F2D0E94CE0D57
:1036600080915403811113C08CE493E00E94300ACE
:103670008EE190E0A0E0B0E080935003909351037E
:10368000A0935203B093530381E0809354038CE4DE
:1036900093E050CF61E572E082EB94E00E94210F4D
:1036A000882359F1F090AC034DEE51E06AE08F2D84
:1036B0000E94CE0D80914403811113C08CE393E0EE
:1036C0000E94300A8FE090E0A0E0B0E080934003D9
:1036D00090934103A0934203B093430381E080930E
:1036E00044038CE393E00E949E0D882309F4ACCE42
:1036F00083E08F0D8093AC03A7CE6CE572E082EB84
:1037000094E00E94210F882309F449C085EF0E94AC
:1037100047020E94DC127C010E941A13A0E48A9FD7
:10372000C0011124D090AC038D2D890F89AB88EC9A
:103730008AAB8FEF8BABBE016F5F7F4FC8010E94DA
:103740005E07C701880F991F8E0D9F1DBE016F5F19
:103750007F4F80539C4F0E9401138091340381114D
:1037600013C08CE293E00E94300A8FE090E0A0E06A
:10377000B0E08093300390933103A0933203B09371
:10378000330381E0809334038CE293E00E949E0D2A
:10379000882309F459CED394D092AC0355CE6CE66D
:1037A00072E082EB94E00E94210F8823D9F085EF2C
:1037B0000E9447020E94DC1220910C0130910E0100
:1037C0004091C30349833A832B839C01220F331F0B
:1037D000820F931FBE016F5F7F4F80539C4F0E94EB
:1037E000011332CE6CE772E082EB94E00E94210F6D
:1037F000882341F08BEE0E9447028DE090E00E940A
:103800003503DACF69E872E082EB94E00E94210F81
:10381000882309F444C08BEE0E944702E7E0EE2EB5
:10382000F12CD12CF8ECCF2EBB24BA94D9AACAAA79
:10383000BBAABE016F5F7F4FC8010E945E07C70130
:103840000E9435032981FC01EE0FFF1FDF01A80F45
:10385000B91FA053BC4F3C91321708F42C932A8116
:10386000DF01A80FB91FA053BC4F11963C911197CF
:10387000321710F411962C932B81E80FF91FE053A7
:10388000FC4F8281821708F4228390E2D90EAFEFB9
:10389000EA1AFA0ABFE0EB16F10441F6D5CD65E964
:1038A00072E082EB94E00E94210F882309F4C9C0E2
:1038B0008DEE91E0DE0111966D01FC01459155916F
:1038C000659174916C9311965C93119712964C9339
:1038D0001297049613960A171B0779F70E9429037B
:1038E0009B01AC0160E070ED83E490E00E94242233
:1038F000292F96FD2095E22FEF732F7096FD2F5FF5
:10390000E695E695E695E670F0E0E45BFE4F818192
:10391000829F802D212D112482958F702295207FEA
:10392000822B2081820F97FD819580589FEB899F84
:10393000080E80E0811D1124F090AC038F19805C8B
:10394000A0EDB3E068E7680F5F2D752F72957F706B
:10395000452F4F70E72FEE0FE70FEC0DFD2DF11DFA
:10396000308121819281442309F427C033967F302E
:1039700009F4F6014295407FE42EE0943E9D030E4B
:1039800030E0311D7081749F070E70E0711D370F9C
:103990002E9D020E20E0211D7181749F070E70E0A4
:1039A000711D270F9E9D090E90E0911D7281749FDD
:1039B000070E70E0711D970F11248F3FC1F088230F
:1039C00009F43BC041E0480F332321F0349F030E3C
:1039D00030E0311D222321F0249F020E20E0211D22
:1039E000992321F0949F090E90E0911D11243C939E
:1039F00011962C93119712969C9312975E5F1396D3
:103A0000865F6813A2CF80912403811113C08CE1DB
:103A100093E00E94300A84E190E0A0E0B0E080935F
:103A2000200390932103A0932203B093230381E00A
:103A3000809324038CE193E07DCD90E020E030E0A2
:103A4000D6CF6EE972E082EB94E00E94210F8823CA
:103A5000B1F081EE0E9447020E941A13853B08F4E0
:103A6000F3CC0E94DC12FC01EE0FFF1FE80FF91FE0
:103A7000E053FC4F10828FEF81831282E5CC6AEA1B
:103A800072E082EB94E00E94210F8823D9F085EF49
:103A90000E9447020E941A13883208F0D5CCF09099
:103AA0000C01E0900E01D090C3030E94DC12FC01D7
:103AB000EE0FFF1FE80FF91FE053FC4FD082E182A9
:103AC000F282C2CC67EB72E082EB94E00E94210F9D
:103AD000882309F445C080911403811113C08CE040
:103AE00093E00E94300A84E690E0A0E0B0E080938A
:103AF000100390931103A0931203B093130381E07A
:103B0000809314038CE093E00E949E0D882309F4B7
:103B10009BCCF0900B038FEFF11001C080E0898304
:103B20001A821B82AE014F5F5F4F66E070E080ED4E
:103B300093E00E94FE0780E0F11001C08FEF198230
:103B40001A828B83AE014F5F5F4F66E070E082EEBA
:103B500093E00E94FE0781E0F826F0920B0374CCFC
:103B600063EC72E082EB94E00E94210F882309F459
:103B7000ADCB8FEA0E944702E090C103F090C203F0
:103B80002CE030E0D7010E94562224E6822E912CB0
:103B9000A12CB12CA50194010E943D1F1901970190
:103BA000A0E6BFEF0E944E22A50194010E943D1F96
:103BB00030EA932E920E40EDE42E43E0F42ED12C09
:103BC000C12C88248A94C214D3040CF03DCC998271
:103BD0008A828B82B701CE0101960E945E079FEF19
:103BE000C91AD90AA3E0EA0EF11CEDCF82EB94E0EA
:103BF0000C94F10E1F93FC0199278827BC01E894CF
:103C000011911032E9F3193010F01E30C8F31B3255
:103C100051F01D3249F4689406C00E94211E610FC4
:103C2000711D811D911D119110531A30B0F33EF496
:103C300090958095709561957F4F8F4F9F4F1F9105
:103C40000895592F482F372F262F660F771F881F6B
:103C5000991F660F771F881F991F620F731F841F9C
:103C6000951F660F771F881F991F089591110C9457
:103C7000E91E803219F089508550C8F70895E894FC
:103C800009C097FB3EF490958095709561957F4FA4
:103C90008F4F9F4F9923A9F0F92F96E9BB27939552
:103CA000F695879577956795B795F111F8CFFAF462
:103CB000BB0F11F460FF1BC06F5F7F4F8F4F9F4F93
:103CC00016C0882311F096E911C0772321F09EE8F1
:103CD000872F762F05C0662371F096E8862F70E057
:103CE00060E02AF09A95660F771F881FDAF7880F31
:103CF0009695879597F908950E948F1E0C94031F3F
:103D00000E94F51E38F00E94FC1E20F0952311F051
:103D10000C94EC1E0C94F21E11240C94371F0E947C
:103D2000141F70F3959FC1F3950F50E0551F629FCC
:103D3000F001729FBB27F00DB11D639FAA27F00D04
:103D4000B11DAA1F649F6627B00DA11D661F829F2B
:103D50002227B00DA11D621F739FB00DA11D621F10
:103D6000839FA00D611D221F749F3327A00D611D2D
:103D7000231F849F600D211D822F762F6A2F11240F
:103D80009F5750409AF0F1F088234AF0EE0FFF1F42
:103D9000BB1F661F771F881F91505040A9F79E3F99
:103DA000510580F00C94EC1E0C94371F5F3FE4F338
:103DB000983ED4F3869577956795B795F795E795EF
:103DC0009F5FC1F7FE2B880F911D9695879597F9F8
:103DD000089599278827089597F99F6780E870E0EC
:103DE00060E008959FEF80EC089500240A94161671
:103DF000170618060906089500240A9412161306D9
:103E0000140605060895092E0394000C11F4882366
:103E100052F0BB0F40F4BF2B11F460FF04C06F5F82
:103E20007F4F8F4F9F4F089557FD9058440F551F58
:103E300059F05F3F71F04795880F97FB991F61F02C
:103E40009F3F79F087950895121613061406551FA3
:103E5000F2CF4695F1DF08C0161617061806991F0F
:103E6000F1CF86957105610508940895E894BB2704
:103E700066277727CB0197F90895052E97FB1EF447
:103E800000940E94541F57FD07D00E949E1F07FCFC
:103E900003D04EF40C94541F5095409530952195C5
:103EA0003F4F4F4F5F4F0895909580957095619566
:103EB0007F4F8F4F9F4F08950E94C01FA59F900D69
:103EC000B49F900DA49F800D911D112408952F92F1
:103ED0003F924F925F926F927F928F929F92AF929A
:103EE000BF92CF92DF92EF92FF920F931F93CF93E7
:103EF000DF93CDB7DEB7CA1BDB0B0FB6F894DEBF7E
:103F00000FBECDBF09942A88398848885F846E84A3
:103F10007D848C849B84AA84B984C884DF80EE80ED
:103F2000FD800C811B81AA81B981CE0FD11D0FB6F6
:103F3000F894DEBF0FBECDBFED010895A1E21A2EA9
:103F4000AA1BBB1BFD010DC0AA1FBB1FEE1FFF1F3D
:103F5000A217B307E407F50720F0A21BB30BE40B8D
:103F6000F50B661F771F881F991F1A9469F76095D4
:103F70007095809590959B01AC01BD01CF0108958E
:103F8000A29FB001B39FC001A39F700D811D11249A
:103F9000911DB29F700D811D1124911D08955058DF
:103FA000BB27AA270E94E71F0C94031F0E94F51E3F
:103FB00038F00E94FC1E20F039F49F3F19F426F4DB
:103FC0000C94F21E0EF4E095E7FB0C94EC1EE92F26
:103FD0000E94141F58F3BA176207730784079507E6
:103FE00020F079F4A6F50C94361F0EF4E0950B2E14
:103FF000BA2FA02D0B01B90190010C01CA01A0013B
:104000001124FF27591B99F0593F50F4503E68F195
:104010001A16F040A22F232F342F4427585FF3CFD6
:10402000469537952795A795F0405395C9F77EF4A7
:104030001F16BA0B620B730B840BBAF09150A1F0F0
:10404000FF0FBB1F661F771F881FC2F70EC0BA0F76
:10405000621F731F841F48F4879577956795B795FE
:10406000F7959E3F08F0B0CF9395880F08F09927F9
:10407000EE0F9795879508950E9450200C94031F8A
:104080000E94FC1E58F00E94F51E40F029F45F3F8C
:1040900029F00C94EC1E51110C94371F0C94F21E55
:1040A0000E94141F68F39923B1F3552391F3951BD4
:1040B000550BBB27AA2762177307840738F09F5F49
:1040C0005F4F220F331F441FAA1FA9F335D00E2EB6
:1040D0003AF0E0E832D091505040E695001CCAF723
:1040E0002BD0FE2F29D0660F771F881FBB1F2617E6
:1040F00037074807AB07B0E809F0BB0B802DBF01BD
:10410000FF2793585F4F3AF09E3F510578F00C948B
:10411000EC1E0C94371F5F3FE4F3983ED4F3869572
:1041200077956795B795F7959F5FC9F7880F911DAC
:104130009695879597F90895E1E0660F771F881F98
:10414000BB1F621773078407BA0720F0621B730B4B
:10415000840BBA0BEE1F88F7E095089529F416F04A
:104160000C94EC1E0C94361F0C94F21E0E941C1F23
:10417000A8F39638A0F707F80F92E8942BE33AEAF1
:1041800048EB5FE70E94921E0F920F920F924DB77D
:104190005EB70F920E948721ECEAF0E00E941E2198
:1041A0004F915F91EF91FF91E595EE1FFF1F49F051
:1041B000FE57E0684427EE0F441FFA95E1F741955A
:1041C000550B0E9451210F9007FE0C944521089534
:1041D0000E94EF206894B1110C94371F08950E943B
:1041E0001C1F88F09F5798F0B92F9927B751B0F04E
:1041F000E1F0660F771F881F991F1AF0BA95C9F76B
:1042000014C0B13091F00E94361FB1E008950C94B3
:10421000361F672F782F8827B85F39F0B93FCCF366
:10422000869577956795B395D9F73EF490958095E7
:10423000709561957F4F8F4F9F4F0895DF93CF9378
:104240001F930F93FF92EF92DF927B018C01689492
:1042500006C0DA2EEF010E948F1EFE01E894A591A0
:104260002591359145915591A6F3EF010E94E71FE5
:10427000FE019701A801DA9469F7DF90EF90FF90B3
:104280000F911F91CF91DF9108959B01AC0160E0E8
:1042900070E080E89FE30C943C200C94EC1E0C949E
:1042A000C3210E941C1FD8F39923C9F3940F511DF9
:1042B000A3F39150504094F059F0882332F0660FE8
:1042C000771F881F91505040C1F79E3F51052CF732
:1042D000880F911D9695879597F908955F3FACF0EB
:1042E000983E9CF0BB27869577956795B79508F41F
:1042F000B1609395C1F7BB0F58F711F460FFE8CF99
:104300006F5F7F4F8F4F9F4FE3CF0C94371FFA01A2
:10431000DC01AA0FBB1F9B01AC01BF5728F4222769
:1043200033274427507820C0B75190F4AB2F002496
:10433000469537952795011CA395D2F3002071F07F
:10434000220F331F441FB395DAF30ED00C94CF1F06
:1043500061307105A0E88A07B94630F49B01AC01D1
:104360006627772788279078309621F0208331833D
:104370004283538308959F930E94D3210F9007FC9B
:10438000EE5F0C94FC219F3F31F0915020F4879513
:1043900077956795B795880F911D9695879597F9AD
:1043A00008950C94F21E0E941C1FD8F3E894E0E0DC
:1043B000BB279F57F0F02AED3FE049EC06C0EE0F17
:1043C000BB0F661F771F881F28F0B23A620773077A
:1043D000840728F0B25A620B730B840BE3959A950D
:1043E00072F7803830F49A95BB0F661F771F881FCD
:1043F000D2F790480C94C521EF93E0FF07C0A2EAE2
:104400002AED3FE049EC5FEB0E94E71F0E94031F8B
:104410000F90039401FC9058E4EDF0E00C9410220E
:104420009F938F937F936F93FF93EF939B01AC01C7
:104430000E947C1EEF91FF910E941E212F913F91BF
:104440004F915F910C947C1EDB018F939F930E9490
:104450005C1FBF91AF91A29F800D911DA39F900DF6
:10446000B29F900D1124089597FB072E16F4009427
:1044700007D077FD09D00E945D2207FC05D03EF4ED
:10448000909581959F4F0895709561957F4F089500
:10449000EE0FFF1F0590F491E02D09940E94C01FBC
:1044A000332312F48A1B9B0B0C9458220E94C01FCA
:1044B000B7FF0895821B930B0895AA1BBB1B51E104
:1044C00007C0AA1FBB1FA617B70710F0A61BB70B84
:1044D000881F991F5A95A9F780959095BC01CD0129
:1044E00008950F931F93CF93DF938230910510F4BB
:1044F00082E090E0E091BA04F091BB0430E020E06B
:10450000B0E0A0E0309799F42115310509F44AC0D4
:10451000281B390B24303105D8F58A819B81611520
:10452000710589F1FB0193838283FE0111C04081F3
:1045300051810281138148175907E0F04817590744
:1045400099F4109761F012960C93129713961C939E
:104550003296CF01DF91CF911F910F910895009373
:10456000BA041093BB04F4CF2115310551F0421762
:10457000530738F0A901DB019A01BD01DF01F80101
:10458000C1CFEF01F9CF9093BB048093BA04CDCF94
:10459000FE01E20FF31F8193919322503109398379
:1045A0002883D7CF2091B8043091B904232B41F44C
:1045B00020911E0130911F013093B9042093B8045B
:1045C00020911C0130911D012115310541F42DB7B9
:1045D0003EB74091200150912101241B350BE09101
:1045E000B804F091B904E217F307A0F42E1B3F0BB7
:1045F0002817390778F0AC014E5F5F4F2417350755
:1046000048F04E0F5F1F5093B9044093B804819354
:1046100091939FCFF0E0E0E09CCFCF93DF930097A2
:10462000E9F0FC01329713821282A091BA04B09192
:10463000BB04ED0130E020E01097A1F4208131812E
:10464000820F931F2091B8043091B90428173907BD
:1046500009F061C0F093B904E093B804DF91CF9101
:104660000895EA01CE17DF07E8F54A815B819E01D4
:1046700041155105B1F7E901FB83EA83499159914D
:10468000C40FD51FEC17FD0761F48081918102965C
:10469000840F951FE90199838883828193819B838D
:1046A0008A83F0E0E0E012968D919C911397009739
:1046B000B9F52D913C911197CD010296820F931F70
:1046C0002091B8043091B9042817390739F630978A
:1046D00051F51092BB041092BA04B093B904A093A0
:1046E000B804BCCFD383C28340815181840F951F0E
:1046F000C817D90761F44E5F5F4F88819981480FD1
:10470000591F518340838A819B8193838283211522
:10471000310509F0B0CFF093BB04E093BA049ECF0B
:10472000FD01DC01C0CF13821282D7CFB0E0A0E040
:10473000ECE9F3E20C94691F8C01009751F4CB0172
:104740000E9471228C01C801CDB7DEB7E0E10C9464
:10475000851FFC01E60FF71F9C0122503109E2176B
:10476000F30708F49DC0D901CD91DC911197C617CC
:10477000D70798F0C530D10530F3CE0104978617DE
:10478000970708F3C61BD70B2297C193D1936D935C
:104790007C93CF010E940D23D6CF5B01AC1ABD0ADA
:1047A0004C018C0E9D1EA091BA04B091BB04512CFB
:1047B000412CF12CE12C109731F58091B8049091A7
:1047C000B9048815990509F05CC04616570608F02B
:1047D00058C080911C0190911D01009741F48DB744
:1047E0009EB74091200150912101841B950BE81741
:1047F000F90708F055C0F093B904E093B804F90143
:1048000071836083A0CF8D919C91119712966C90CB
:10481000129713967C901397A815B90559F56C015A
:1048200042E0C40ED11CCA14DB0420F1AC014A19C9
:104830005B09DA011296159780F0628273825183C8
:104840004083D9016D937C93E114F10471F0D70199
:104850001396FC93EE93129776CF22968C0F9D1FA2
:10486000F90191838083F301EFCFF093BB04E093D0
:10487000BA0469CF4816590608F42C017D01D3010A
:104880009ACFCB010E9471227C01009749F0AE01C2
:10489000B8010E945824C8010E940D23870153CFFC
:1048A00010E000E050CF81E090E0F8940C949C245C
:1048B000FB01DC0102C001900D9241505040D8F73D
:1048C0000895DC0101C06D9341505040E0F7089518
:1048D000FC018191861721F08823D9F79927089543
:1048E0003197CF010895FB01DC018D910190801972
:1048F0000110D9F3990B0895FB01DC0101900D9291
:104900000020E1F70895FB01DC014150504030F0F8
:104910008D910190801919F40020B9F7881B990B2B
:104920000895FC0181E090E00190061609F4CF01A2
:104930000020D1F70197089512E0CCE1D2E004C045
:10494000FE010E9448222196CD31D107C9F7F89483
:02495000FFCF97
:10495200FFFFFFFF00E1000000000000FF00FF007A
:1049620096000100C1808100000039050000BC04EE
:10497200800000000000F90EF90EF90E9A0D66088B
:10498200960D930D900D000000003B0DD50CD30C3D
:104992009A0D6608960D930D9E04790A003131290D
:1049A2005A1B750A020003000400050006000700F6
:1049B20008000E000A0010000F0012000000310073
:1049C200F9183000FB302C001C472600825A1F00C9
:1049D2006D6A170041760E00897D04000000008F89
:1049E200067906CB06C0064407D006200700000061
:1049F200006908E208A7088C0800000000D7092D0A
:104A0200092D0AA1040D0A004D4F44455F534F4C36
:104A120049440040003F004C45445F5057523A0021
:104A220031004C45445F4252543A004C45445F4386
:104A32004F4C3A004C45445F4D4F443A004C45447C
:104A42005F4155443A004D4F44455F4252454154FF
:104A52004845004D4F44455F4348415345004D4F43
:104A620044455F5241494E424F57004D4F44455FC6
:104A72004F4345414E004D4F44455F464952450024
:104A82004D4F44455F4C415641004D4F44455F43B5
:104A92004C4F5544004D4F44455F464F5245535489
:104AA200004D4F44455F5041525459004D4F4445CB
:104AB2005F434F4E46455454495F52004D4F444563
:104AC2005F434F4E46455454495F43004D4F444562
:104AD2005F53494E454C4F4E004D4F44455F4A553A
:104AE20047474C45004D4F44455F42504D004D4FA6
:104AF20044455F4D4154524958004D4F44455F541F
:104B020057494E4B4C45004D4F44455F504F4C4921
:0E4B12004345004D4F44455F415544494F0017
:00000001FF
